:020000040000FA
:0400000007EF00F016
:0A0008005F829CED2EF0CDEF32F088
:101000000000000000DCCFD1350000000000C0155A
:101010003F6042A20D70A5EC363BAAB83F4F387630
:101020003F3CAA38338CBEBF350072313F18723155
:101030003F4CBB31330EEADDB555B38A38610B3610
:10104000BBABAA2A3E42F1533E55326C3E05A38B00
:101050003EABAAAA3EB76DDB3E9A99193F6042A209
:101060000DCAF249710000804B0000803F0000C0B3
:101070003F00AAB83FC623F6B80040763F4D4F4424
:1010800020484F555220202020004D4F44205345EA
:10109000434F4E442020004D4F44204D494E55545F
:1010A0004520200053544F5020574154434820209E
:1010B000004E4F524D414C20434C4F434B0020209B
:0710C0002020202020000089
:1010C80088C0B8F189C0B9F18AC0BAF18BC0BBF148
:1010D800B8C160F1B9C161F1BAC162F1BBC163F1D4
:1010E8008CC0B8F18DC0B9F18EC0BAF18FC0BBF118
:1010F800B8C184F1B9C185F1BAC186F1BBC187F124
:10110800FF0E01016015A86FFF0E6115A96FFF0E94
:101118006215AA6F7F0E6315AB6FFF0E8415986F6B
:10112800FF0E8515996FFF0E86159A6F7F0E87152E
:101138009B6F985199119A119B11D8A4A6EF08F0AA
:10114800A8EF08F0B3EF08F0000E0001886F000E5A
:10115800896F800E8A6F3F0E8B6F7CEF1DF0800EBB
:10116800621909E13F0E631960116111D8A4BFEF3C
:1011780008F0C1EF08F0CCEF08F0000E0001886F0E
:10118800000E896F800E8A6F3F0E8B6F7CEF1DF00B
:10119800ABBFDDEF08F0A805000EA959800EAA59CB
:1011A8007F0EAB59D8B0DBEF08F0DDEF08F0EEEFBB
:1011B80008F09BBFECEF08F09805000E9959800ED7
:1011C8009A597F0E9B59D8A0ECEF08F0EEEF08F083
:1011D8000AEF09F088C001F089C002F08AC003F064
:1011E8008BC004F08CC005F08DC006F08EC007F0EF
:1011F8008FC008F0DDEC1FF001C088F002C089F054
:1012080003C08AF004C08BF07CEF1DF0000E506F15
:10121800000E516F000E526F000E536F63BF19EF2F
:1012280009F017EF09F0E5EF09F09BBF25EF09F08A
:10123800800E9A5D4B0E9B59D8A025EF09F027EF39
:1012480009F031EF09F0020E506F000E516F000ED9
:10125800526F000E536FE5EF09F09BBF3DEF09F0A9
:10126800800E9A5D3F0E9B59D8A03DEF09F03FEFE5
:1012780009F0E5EF09F0170E0001906F98C191F0A1
:1012880099C192F09AC193F09BC194F090674FEF87
:1012980009F057EF09F0943594339333923391332F
:1012A800902F4AEF09F0810E000191250101A06FEE
:1012B800FF0E000192210101A16FFF0E0001932191
:1012C8000101A26FFF0E000194210101A36FA0513B
:1012D80017080001906F98C191F099C192F09AC1D6
:1012E80093F09BC194F090677CEF09F084EF09F0CC
:1012F80094359433933392339133902F77EF09F0E9
:1013080091C0ACF192C0ADF193C0AEF194C0AFF111
:101318000101A05117080001906FACC191F0ADC157
:1013280092F0AEC193F0AFC194F0902BA1EF09F009
:10133800D8909137923793379437902F9CEF09F0D4
:10134800010198510001911913E10101995100011E
:1013580092190EE101019A510001931909E1010165
:101368009B5100019419D8A4BCEF09F0BEEF09F015
:10137800E5EF09F0010E0101AC150001906F000EB8
:101388000101AD150001916F000E0101AE150001BC
:10139800926F000E0101AF150001936F9051020882
:1013A8000101506F000E000191550101516F000EAF
:1013B800000192550101526F000E00019355010181
:1013C800536F800E01019A1909E17F0E9B1998113C
:1013D8009911D8A4F2EF09F0F4EF09F060EF0AF0E0
:1013E800800EAA1909E13F0EAB19A811A911D8A4BA
:1013F80000EF0AF002EF0AF00DEF0AF0000E00010C
:10140800886F000E896F800E8A6F3F0E8B6F7CEF9E
:101418001DF0ABBF1CEF0AF0A805000EA959800EFD
:10142800AA593F0EAB59D8A01CEF0AF01EEF0AF0DC
:101438003AEF0AF087BF25EF0AF023EF0AF030EF02
:101448000AF0000E0001886F000E896F000E8A6F87
:10145800000E8B6F7CEF1DF08CC088F08DC089F07A
:101468008EC08AF08FC08BF07CEF1DF087BF41EFF4
:101478000AF03FEF0AF055EF0AF08CC001F08DC07A
:1014880002F08EC003F08FC004F0B1EC32F001C05E
:1014980088F002C089F003C08AF004C08BF07CEFAA
:1014A8001DF0000E0001886F000E896F000E8A6F14
:1014B800000E8B6F7CEF1DF0800E9A1909E13F0E2C
:1014C8009B1998119911D8A46CEF0AF06EEF0AF0E5
:1014D8009BEF0AF087BF75EF0AF073EF0AF091EF00
:1014E8000AF0000E406E000E416E800E426E3F0EF6
:1014F800436E88C044F089C045F08AC046F08BC06E
:1015080047F02AEC26F040C088F041C089F042C07C
:101518008AF043C08BF07CEF1DF088C088F089C04A
:1015280089F08AC08AF08BC08BF07CEF1DF0400EEA
:101538008719841185118611D8A4A5EF0AF0A7EFA1
:101548000AF0C3EF0AF088C011F089C012F08AC00F
:1015580013F08BC014F088C015F089C016F08AC04B
:1015680017F08BC018F03DEC22F011C088F012C0C3
:1015780089F013C08AF014C08BF07CEF1DF03F0E89
:101588008719841185118611D8A4CDEF0AF0CFEF01
:101598000AF0EAEF0AF063BFD4EF0AF0D6EF0AF0D8
:1015A800EAEF0AF088C04CF089C04DF08AC04EF0CE
:1015B8008BC04FF07DEC1DF04CC088F04DC089F019
:1015C8004EC08AF04FC08BF07CEF1DF088C001F050
:1015D80089C002F08AC003F08BC004F0E8EC32F056
:1015E80001C070F102C071F103C072F104C073F15F
:1015F800800E0101AA190BE17F0EAB19A811A911E0
:10160800D8B409EF0BF00BEF0BF024EF0BF0A85157
:10161800A911AA11AB11D8B414EF0BF016EF0BF007
:1016280024EF0BF0800EAA1909E13F0EAB19A8119F
:10163800A911D8A422EF0BF024EF0BF0EFEF0BF079
:1016480070C1B4F171C1B5F172C1B6F173C1B7F12E
:1016580087BF33EF0BF031EF0BF04DEF0BF0000EBF
:10166800406E000E416E800E426E3F0E436EB4C156
:1016780044F0B5C145F0B6C146F0B7C147F02AEC11
:1016880026F040C0B4F141C0B5F142C0B6F143C044
:10169800B7F1010163BF55EF0BF053EF0BF0E5EF26
:1016A8000BF0000EA8250001906F000E0101A92182
:1016B8000001916F800E0101AA210001926FC00EF6
:1016C8000101AB210001936F0101505100019011FC
:1016D800946F0101515100019111956F010152510F
:1016E80000019211966F0101535100019311976FF8
:1016F8009451951196119711D8A485EF0BF087EFA7
:101708000BF0C7EF0BF0B4C13CF0B5C13DF0B6C16A
:101718003EF0B7C13FF0B4C138F0B5C139F0B6C139
:101728003AF0B7C13BF012EC32F038C040F039C0A3
:1017380041F03AC042F03BC043F0B4C13CF0B5C1FF
:101748003DF0B6C13EF0B7C13FF0B4C138F0B5C105
:1017580039F0B6C13AF0B7C13BF012EC32F038C0FC
:1017680044F039C045F03AC046F03BC047F02AEC97
:1017780026F040C0B4F141C0B5F142C0B6F143C053
:10178800B7F1E5EF0BF0010150055111521153115A
:10179800D8A4D1EF0BF0D3EF0BF0E5EF0BF0B4C109
:1017A80001F0B5C102F0B6C103F0B7C104F0B1EC65
:1017B80032F001C0B4F102C0B5F103C0B6F104C003
:1017C800B7F1B4C188F0B5C189F0B6C18AF0B7C124
:1017D8008BF07CEF1DF0000E886F000E896F800E75
:1017E8008A6F3F0E8B6F63BFFEEF0BF0FCEF0BF0C1
:1017F8005CEF0CF05051511152115311D8A407EF5E
:101808000CF009EF0CF049EF0CF088C03CF089C0EF
:101818003DF08AC03EF08BC03FF088C038F089C0E8
:1018280039F08AC03AF08BC03BF012EC32F038C085
:1018380040F039C041F03AC042F03BC043F088C0A4
:101848003CF089C03DF08AC03EF08BC03FF088C0B4
:1018580038F089C039F08AC03AF08BC03BF012ECFE
:1018680032F038C044F039C045F03AC046F03BC0C9
:1018780047F02AEC26F040C088F041C089F042C009
:101888008AF043C08BF07CEF1DF0500551115211C6
:101898005311D8A452EF0CF054EF0CF05CEF0CF09D
:1018A800000E886F000E896F800E8A6FBF0E8B6FD7
:1018B8009BBF6BEF0CF09805000E9959000E9A59D2
:1018C8004D0E9B59D8A06BEF0CF06DEF0CF0F2EFBA
:1018D8000EF0ABBF7FEF0CF0F80EA85DFF0EA95914
:1018E8007F0EAA593F0EAB59D8B07DEF0CF07FEFB1
:1018F8000CF0F2EF0CF087BF84EF0CF086EF0CF0E1
:10190800BCEF0CF0600E156E420E166EA20E176E2E
:101918000D0E186E88C111F089C112F08AC113F03A
:101928008BC114F03DEC22F011C0A4F112C0A5F156
:1019380013C0A6F114C0A7F1A4C111F0A5C112F0FB
:10194800A6C113F0A7C114F0600E156E420E166EF4
:10195800A20E176E0D0E186E3DEC22F011C088F025
:1019680012C089F013C08AF014C08BF07CEF1DF010
:10197800CA0E156EF20E166E490E176E710E186E9F
:1019880088C111F089C112F08AC113F08BC114F01B
:101998003DEC22F011C0A4F112C0A5F113C0A6F1CC
:1019A80014C0A7F1A4C111F0A5C112F0A6C113F08B
:1019B800A7C114F0CA0E156EF20E166E490E176EF8
:1019C800710E186E3DEC22F011C088F012C089F03B
:1019D80013C08AF014C08BF07CEF1DF0ABBF02EF90
:1019E8000DF0080EA85D000EA959800EAA593F0EE9
:1019F800AB59D8A002EF0DF004EF0DF07FEF0DF01A
:101A080087BF13EF0DF087518611851106E1840514
:101A1800D8B011EF0DF013EF0DF049EF0DF0600E97
:101A2800156E420E166EA20E176E0D0E186E88C138
:101A380011F089C112F08AC113F08BC114F03DEC8A
:101A480022F011C0A4F112C0A5F113C0A6F114C070
:101A5800A7F1A4C111F0A5C112F0A6C113F0A7C146
:101A680014F0600E156E420E166EA20E176E0D0E55
:101A7800186E3DEC22F011C088F012C089F013C036
:101A88008AF014C08BF07CEF1DF0CA0E156EF20EB2
:101A9800166E490E176E710E186E88C111F089C145
:101AA80012F08AC113F08BC114F03DEC22F011C082
:101AB800A4F112C0A5F113C0A6F114C0A7F1A4C1E6
:101AC80011F0A5C112F0A6C113F0A7C114F0CA0EF7
:101AD800156EF20E166E490E176E710E186E3DECED
:101AE80022F011C088F012C089F013C08AF014C027
:101AF8008BF07CEF1DF070C101F071C102F072C172
:101B080003F073C104F0000E056E000E066E800E21
:101B1800076EBF0E086EDDEC1FF001C0B0F102C009
:101B2800B1F103C0B2F104C0B3F1000E156E000E9E
:101B3800166E800E176E3E0E186EB0C111F0B1C150
:101B480012F0B2C113F0B3C114F03DEC22F011C091
:101B58003CF012C03DF013C03EF014C03FF0AB0E95
:101B6800386EAA0E396EAA0E3A6E3E0E3B6E12EC15
:101B780032F038C0A4F139C0A5F13AC0A6F13BC093
:101B8800A7F1B0C115F0B1C116F0B2C117F0B3C1D9
:101B980018F0B0C111F0B1C112F0B2C113F0B3C165
:101BA80014F03DEC22F011C054F112C055F113C0ED
:101BB80056F114C057F1B0C115F0B1C116F0B2C159
:101BC80017F0B3C118F0A4C111F0A5C112F0A6C155
:101BD80013F0A7C114F03DEC22F011C03CF012C084
:101BE8003DF013C03EF014C03FF0000E386E000EFA
:101BF800396E000E3A6E3F0E3B6E12EC32F038C072
:101C080048F139C049F13AC04AF13BC04BF154C1DF
:101C180011F055C112F056C113F057C114F048C164
:101C280015F049C116F04AC117F04BC118F03DEC48
:101C380022F011C044F112C045F113C046F114C09E
:101C480047F1B0C111F0B1C112F0B2C113F0B3C184
:101C580014F0000E156EAA0E166EB80E176E3F0E13
:101C6800186E3DEC22F011C074F112C075F113C06A
:101C780076F114C077F1700E156EA50E166EEC0E87
:101C8800176E360E186EB0C111F0B1C112F0B2C1A4
:101C980013F0B3C114F03DEC22F011C038F012C0BB
:101CA80039F013C03AF014C03BF03B0E156EAA0E83
:101CB800166EB80E176E3F0E186E44C111F045C16E
:101CC80012F046C113F047C114F03DEC22F011C0E8
:101CD8003CF012C03DF013C03EF014C03FF012ECCF
:101CE80032F038C078F139C079F13AC07AF13BC0A6
:101CF8007BF174C101F075C102F076C103F077C1C0
:101D080004F078C105F079C106F07AC107F07BC10B
:101D180008F0DDEC1FF001C080F102C081F103C0C2
:101D280082F104C083F180C1B8F181C1B9F182C1E7
:101D3800BAF183C1BBF1B8C190F1B9C191F1BAC18F
:101D480092F1BBC193F1000E01019015B86FF00E2E
:101D58009115B96FFF0E9215BA6FFF0E9315BB6FF1
:101D6800B8C180F1B9C181F1BAC182F1BBC183F1B7
:101D780074C13CF075C13DF076C13EF077C13FF0CB
:101D880080C138F081C139F082C13AF083C13BF09B
:101D980012EC32F038C094F139C095F13AC096F19E
:101DA8003BC097F178C138F079C139F07AC13AF07F
:101DB8007BC13BF094C13CF095C13DF096C13EF02B
:101DC80097C13FF012EC32F038C01CF139C01DF158
:101DD8003AC01EF13BC01FF172EF16F0000E7C6F87
:101DE800000E7D6F000E7E6F000E7F6FABBF08EF99
:101DF8000FF0AB5107E1800EAA5DD8B006EF0FF0E7
:101E080008EF0FF03BEF0FF070C111F071C112F045
:101E180072C113F073C114F0000E156E000E166E29
:101E2800800E176E4B0E186E3DEC22F011C070F14B
:101E380012C071F113C072F114C073F1E80E010100
:101E48007C27FF0E7D23FF0E7E23FF0E7F2370C1AC
:101E5800B8F171C1B9F172C1BAF173C1BBF1B8C1BE
:101E6800A8F1B9C1A9F1BAC1AAF1BBC1ABF1170E6A
:101E78000001906FA8C191F0A9C192F0AAC193F096
:101E8800ABC194F090674BEF0FF053EF0FF0943520
:101E98009433933392339133902F46EF0FF0810EA2
:101EA80000019125956FFF0E9221966FFF0E9321E9
:101EB800976FFF0E9421986F955101017C270001BF
:101EC800965101017D230001975101017E230001F4
:101ED800985101017F23FF0EA815AC6FFF0EA915BD
:101EE800AD6F7F0EAA15AE6F000EAB15AF6F000E6B
:101EF800AC11A86F000EAD11A96F800EAE11AA6FBC
:101F08003F0EAF11AB6FAFBF99EF0FF0AF510BE1C1
:101F1800720EAC5DC40EAD591C0EAE59D8B097EF19
:101F28000FF099EF0FF0A3EF0FF0000EA06F000E67
:101F3800A16F000EA26F000EA36FD5EF0FF0AFBF19
:101F4800B5EF0FF0AF510BE1D70EAC5DB30EAD5945
:101F58005D0EAE59D8B0B3EF0FF0B5EF0FF0BFEF8D
:101F68000FF0010EA06F000EA16F000EA26F000E01
:101F7800A36FD5EF0FF0000EA06F000EA16F000E3B
:101F8800A26F000EA36F010E7C27000E7D237E2317
:101F98007F23000EA827000EA923800EAA23FF0E78
:101FA800AB23A8C1B8F1A9C1B9F1AAC1BAF1ABC1B3
:101FB800BBF1B8C170F1B9C171F1BAC172F1BBC15D
:101FC80073F170C138F071C139F072C13AF073C160
:101FD8003BF0A0C190F0A1C191F00001D8909037DA
:101FE8009137D89090379137690E9025F66E100E7C
:101FF8009121F76EF86A000EF8220900F5CF3CF03F
:102008000900F5CF3DF00900F5CF3EF00A00F5CF05
:102018003FF012EC32F038C074F139C075F13AC0B3
:1020280076F13BC077F1000E406E000E416E800ED7
:10203800426E3F0E436E70C105F071C106F072C169
:1020480007F073C108F0A0C190F0A1C191F00001A0
:10205800D89090379137D89090379137690E90255E
:10206800F66E100E9121F76EF86A000EF82209003C
:10207800F5CF01F00900F5CF02F00900F5CF03F024
:102088000A00F5CF04F0DDEC1FF001C044F002C0F7
:1020980045F003C046F004C047F02AEC26F040C0E3
:1020A80078F141C079F142C07AF143C07BF174C143
:1020B80011F075C112F076C113F077C114F078C130
:1020C80015F079C116F07AC117F07BC118F03DEC14
:1020D80022F011C05CF112C05DF113C05EF114C0B2
:1020E8005FF15CC16CF15DC16DF15EC16EF15FC104
:1020F8006FF16CC1B8F16DC1B9F16EC1BAF16FC1C0
:10210800BBF1B8C190F1B9C191F1BAC192F1BBC1AB
:1021180093F1000E01019015B86FF00E9115B96F8B
:10212800FF0E9215BA6FFF0E9315BB6FB8C16CF115
:10213800B9C16DF1BAC16EF1BBC16FF1A8C190F020
:10214800A9C191F0AAC192F0ABC193F000019335F7
:102158009333923391339033000E9015946FF00EB1
:102168009115956FFF0E9215966FFF0E9315976F49
:10217800000E94110101906F000E000195110101EC
:10218800916F000E000196110101926F200E00015F
:1021980097110101936FA0C190F0A1C191F0A2C164
:1021A80092F0A3C193F0150ED890000190379137A3
:1021B80092379337E82ED8EF10F0010190510001C3
:1021C8009025946F0101915100019121956F0101B2
:1021D800925100019221966F0101935100019321C0
:1021E800976F000E94250101B86F000E000195212C
:1021F8000101B96F400E000196210101BA6F000E6E
:10220800000197210101BB6FB8C168F1B9C169F13B
:10221800BAC16AF1BBC16BF1A0C190F0A1C191F044
:102228000001D89090379137D89090379137690E40
:102238009025F66E100E9121F76EF86A000EF822BE
:102248000900F5CF3CF00900F5CF3DF00900F5CFC6
:102258003EF00A00F5CF3FF068C138F069C139F0A7
:102268006AC13AF06BC13BF012EC32F038C094F11D
:1022780039C095F13AC096F13BC097F170C138F07A
:1022880071C139F072C13AF073C13BF094C13CF0AE
:1022980095C13DF096C13EF097C13FF012EC32F087
:1022A80038C034F139C035F13AC036F13BC037F1A6
:1022B80068C115F069C116F06AC117F06BC118F052
:1022C8006CC111F06DC112F06EC113F06FC114F042
:1022D8003DEC22F011C03CF012C03DF013C03EF0BE
:1022E80014C03FF074C138F075C139F076C13AF0C6
:1022F80077C13BF012EC32F038C094F139C095F157
:102308003AC096F13BC097F134C115F035C116F0CB
:1023180036C117F037C118F06CC111F06DC112F059
:102328006EC113F06FC114F03DEC22F011C03CF007
:1023380012C03DF013C03EF014C03FF094C138F015
:1023480095C139F096C13AF097C13BF012EC32F0E2
:1023580038C054F139C055F13AC056F13BC057F175
:1023680054C111F055C112F056C113F057C114F001
:1023780078C115F079C116F07AC117F07BC118F051
:102388003DEC22F011C030F112C031F113C032F12E
:1023980014C033F15CC111F05DC112F05EC113F0DD
:1023A8005FC114F05CC115F05DC116F05EC117F095
:1023B8005FC118F03DEC22F011C08CF112C08DF114
:1023C80013C08EF114C08FF1550E056E320E066ED5
:1023D8006C0E076E3E0E086E420E156EF10E166EEE
:1023E800530E176E3E0E186E8CC111F08DC112F08F
:1023F8008EC113F08FC114F03DEC22F011C001F032
:1024080012C002F013C003F014C004F0DDEC1FF09A
:1024180001C0A4F102C0A5F103C0A6F104C0A7F150
:10242800050E056EA30E066E8B0E076E3E0E086E29
:102438008CC115F08DC116F08EC117F08FC118F040
:10244800A4C111F0A5C112F0A6C113F0A7C114F0E0
:102458003DEC22F011C001F012C002F013C003F0ED
:1024680014C004F0DDEC1FF001C054F102C055F1B6
:1024780003C056F104C057F1AB0E056EAA0E066EE6
:10248800AA0E076E3E0E086E8CC115F08DC116F0AF
:102498008EC117F08FC118F054C111F055C112F058
:1024A80056C113F057C114F03DEC22F011C001F0F1
:1024B80012C002F013C003F014C004F0DDEC1FF0EA
:1024C80001C048F102C049F103C04AF104C04BF110
:1024D800B70E056E6D0E066EDB0E076E3E0E086EAD
:1024E8008CC115F08DC116F08EC117F08FC118F090
:1024F80048C111F049C112F04AC113F04BC114F0A0
:102508003DEC22F011C001F012C002F013C003F03C
:1025180014C004F0DDEC1FF001C038F102C039F13D
:1025280003C03AF104C03BF19A0E056E990E066E8F
:10253800190E076E3F0E086E8CC115F08DC116F08E
:102548008EC117F08FC118F038C111F039C112F0DF
:102558003AC113F03BC114F03DEC22F011C001F078
:1025680012C002F013C003F014C004F0DDEC1FF039
:1025780001C000F102C001F103C002F104C003F17F
:102588008CC115F08DC116F08EC117F08FC118F0EF
:102598008CC111F08DC112F08EC113F08FC114F0EF
:1025A8003DEC22F011C004F112C005F113C006F190
:1025B80014C007F100C111F001C112F002C113F0FB
:1025C80003C114F004C115F005C116F006C117F0D7
:1025D80007C118F03DEC22F011C04CF112C04DF1CA
:1025E80013C04EF114C04FF130C115F031C116F0CF
:1025F80032C117F033C118F05CC105F05DC106F0B7
:102608005EC107F05FC108F06CC101F06DC102F056
:102618006EC103F06FC104F0DDEC1FF001C011F0D2
:1026280002C012F003C013F004C014F03DEC22F015
:1026380011C058F112C059F113C05AF114C05BF11E
:102648004CC101F04DC102F04EC103F04FC104F07E
:1026580058C105F059C106F05AC107F05BC108F02E
:10266800DDEC1FF001C04CF102C04DF103C04EF18A
:1026780004C04FF16CC111F06DC112F06EC113F0BE
:102688006FC114F06CC115F06DC116F06EC117F072
:102698006FC118F03DEC22F011C08CF112C08DF121
:1026A80013C08EF114C08FF1000E056E000E066E79
:1026B800400E076E400E086E8CC101F08DC102F00D
:1026C8008EC103F08FC104F0DDEC1FF001C058F19A
:1026D80002C059F103C05AF104C05BF158C101F0BE
:1026E80059C102F05AC103F05BC104F04CC105F0B6
:1026F8004DC106F04EC107F04FC108F0DDEC1FF0E8
:1027080001C068F102C069F103C06AF104C06BF14D
:1027180068C1B8F169C1B9F16AC1BAF16BC1BBF15D
:10272800B8C190F1B9C191F1BAC192F1BBC193F1AD
:10273800000E01019015B86FF00E9115B96FFF0EDC
:102748009215BA6FFF0E9315BB6FB8C168F1B9C186
:1027580069F1BAC16AF1BBC16BF1000E056E000EDA
:10276800066E400E076EC00E086E68C101F069C1A2
:1027780002F06AC103F06BC104F0DDEC1FF001C088
:102788003CF102C03DF103C03EF104C03FF18CC1F1
:102798003CF08DC13DF08EC13EF08FC13FF03CC191
:1027A80038F03DC139F03EC13AF03FC13BF012EC80
:1027B80032F038C040F139C041F13AC042F13BC073
:1027C80043F14CC138F04DC139F04EC13AF04FC118
:1027D8003BF040C13CF041C13DF042C13EF043C135
:1027E8003FF012EC32F038C034F139C035F13AC05C
:1027F80036F13BC037F16CC111F06DC112F06EC1FA
:1028080013F06FC114F068C115F069C116F06AC100
:1028180017F06BC118F03DEC22F011C074F112C032
:1028280075F113C076F114C077F168C115F069C16C
:1028380016F06AC117F06BC118F030C111F031C140
:1028480012F032C113F033C114F03DEC22F011C084
:1028580001F012C002F013C003F014C004F05CC110
:1028680015F05DC116F05EC117F05FC118F034C1F4
:1028780011F035C112F036C113F037C114F03DEC38
:1028880022F011C005F012C006F013C007F014C002
:1028980008F0DDEC1FF001C078F102C079F103C047
:1028A8007AF104C07BF174C101F075C102F076C100
:1028B80003F077C104F078C105F079C106F07AC158
:1028C80007F07BC108F0DDEC1FF001C09CF102C0ED
:1028D8009DF103C09EF104C09FF19CC1B8F19DC158
:1028E800B9F19EC1BAF19FC1BBF1B8C190F1B9C1AC
:1028F80091F1BAC192F1BBC193F1000E010190159B
:10290800B86FF00E9115B96FFF0E9215BA6FFF0EE2
:102918009315BB6FB8C19CF1B9C19DF1BAC19EF1C5
:10292800BBC19FF174C13CF075C13DF076C13EF06A
:1029380077C13FF09CC138F09DC139F09EC13AF093
:102948009FC13BF012EC32F038C094F139C095F1D8
:102958003AC096F13BC097F178C138F079C139F0A7
:102968007AC13AF07BC13BF094C13CF095C13DF08F
:1029780096C13EF097C13FF012EC32F038C064F1D6
:1029880039C065F13AC066F13BC067F19CC111F0EE
:102998009DC112F09EC113F09FC114F0000E156E78
:1029A800400E166E760E176E3F0E186E3DEC22F036
:1029B80011C020F112C021F113C022F114C023F17B
:1029C8004F0E156E380E166E760E176E3F0E186E79
:1029D80064C111F065C112F066C113F067C114F04B
:1029E8003DEC22F011C005F012C006F013C007F04C
:1029F80014C008F0C60E156E230E166EF60E176E6E
:102A0800B80E186E9CC111F09DC112F09EC113F052
:102A18009FC114F03DEC22F011C001F012C002F089
:102A280013C003F014C004F0DDEC1FF001C058F12E
:102A380002C059F103C05AF104C05BF158C101F05A
:102A480059C102F05AC103F05BC104F0A0C190F073
:102A5800A1C191F00001D89090379137D890903764
:102A68009137010E9025F66E100E9121F76EF86AD7
:102A7800000EF8220900F5CF05F00900F5CF06F0A1
:102A88000900F5CF07F00A00F5CF08F0DDEC1FF0DC
:102A980001C024F102C025F103C026F104C027F1CA
:102AA8007CC12AF07DC12BF07EC12CF07FC12DF0B6
:102AB800010EF9EC29F02AC0B0F12BC0B1F12CC0FD
:102AC800B2F12DC0B3F124C105F025C106F026C12D
:102AD80007F027C108F020C101F021C102F022C18E
:102AE80003F023C104F0DDEC1FF001C058F102C06F
:102AF80059F103C05AF104C05BF1A0C190F0A1C123
:102B080091F00001D89090379137D890903791374D
:102B1800090E9025F66E100E9121F76EF86A000ED8
:102B2800F8220900F5CF05F00900F5CF06F00900F5
:102B3800F5CF07F00A00F5CF08F058C101F059C1E8
:102B480002F05AC103F05BC104F0DDEC1FF001C0D4
:102B580008F102C009F103C00AF104C00BF108C171
:102B680001F009C102F00AC103F00BC104F0B0C1C1
:102B780005F0B1C106F0B2C107F0B3C108F0DDEC51
:102B88001FF001C080F102C081F103C082F104C0CE
:102B980083F180C1B8F181C1B9F182C1BAF183C1B1
:102BA800BBF1B8C190F1B9C191F1BAC192F1BBC101
:102BB80093F1000E01019015B86FF00E9115B96FE1
:102BC800FF0E9215BA6FFF0E9315BB6FB8C180F157
:102BD800B9C181F1BAC182F1BBC183F1B0C13CF086
:102BE800B1C13DF0B2C13EF0B3C13FF080C138F091
:102BF80081C139F082C13AF083C13BF012EC32F066
:102C080038C094F139C095F13AC096F13BC097F1BC
:102C1800A0C190F0A1C191F00001D89090379137F0
:102C2800D89090379137090E9025F66E100E9121A5
:102C3800F76EF86A000EF8220900F5CF3CF009009B
:102C4800F5CF3DF00900F5CF3EF00A00F5CF3FF093
:102C580094C138F095C139F096C13AF097C13BF06C
:102C680012EC32F038C040F139C041F13AC042F1BB
:102C78003BC043F120C13CF021C13DF022C13EF0F0
:102C880023C13FF040C138F041C139F042C13AF0A8
:102C980043C13BF012EC32F038C00CF139C00DF1F1
:102CA8003AC00EF13BC00FF124C138F025C139F00C
:102CB80026C13AF027C13BF00CC13CF00DC13DF0F4
:102CC8000EC13EF00FC13FF012EC32F038C01CF1DB
:102CD80039C01DF13AC01EF13BC01FF18CC0B8F1DC
:102CE8008DC0B9F18EC0BAF18FC0BBF1B8C190F1F7
:102CF800B9C191F1BAC192F1BBC193F1000E0101C2
:102D08009015B86FF00E9115B96FFF0E9215BA6F46
:102D1800FF0E9315BB6FB8C128F1B9C129F1BAC12B
:102D28002AF1BBC12BF180C115F081C116F082C117
:102D380017F083C118F028C13CF029C13DF02AC121
:102D48003EF02BC13FF08CC038F08DC039F08EC0FA
:102D58003AF08FC03BF012EC32F038C011F039C0B5
:102D680012F03AC013F03BC014F03DEC22F011C051
:102D780010F112C011F113C012F114C013F110C1F7
:102D880001F011C102F012C103F013C104F01CC11B
:102D980015F01DC116F01EC117F01FC118F08CC028
:102DA80011F08DC012F08EC013F08FC014F03DECFE
:102DB80022F011C005F012C006F013C007F014C0CD
:102DC80008F0DDEC1FF001C064F102C065F103C03A
:102DD80066F104C067F128C111F029C112F02AC1B7
:102DE80013F02BC114F080C115F081C116F082C117
:102DF80017F083C118F03DEC22F011C09CF112C00D
:102E08009DF113C09EF114C09FF164C101F065C12A
:102E180002F066C103F067C104F09CC105F09DC1D2
:102E280006F09EC107F09FC108F0DDEC1FF001C05D
:102E3800B4F102C0B5F103C0B6F104C0B7F1B4C132
:102E4800B8F1B5C1B9F1B6C1BAF1B7C1BBF1B8C1F2
:102E5800ACF1B9C1ADF1BAC1AEF1BBC1AFF101017D
:102E6800AFBF43EF17F0AC05000EAD59000EAE59D9
:102E7800430EAF59D8A043EF17F045EF17F07BEF9B
:102E880017F0CA0E156EF20E166E490E176E710EF9
:102E9800186E88C111F089C112F08AC113F08BC174
:102EA80014F03DEC22F011C0A4F112C0A5F113C03A
:102EB800A6F114C0A7F1A4C111F0A5C112F0A6C1D2
:102EC80013F0A7C114F0CA0E156EF20E166E490E55
:102ED800176E710E186E3DEC22F011C088F012C00A
:102EE80089F013C08AF014C08BF07CEF1DF0430EFC
:102EF800AF19AC11AD11AE11D8A485EF17F087EF5B
:102F080017F0FAEF17F09CC13CF09DC13DF09EC14F
:102F18003EF09FC13FF0B4C138F0B5C139F0B6C139
:102F28003AF0B7C13BF012EC32F038C040F039C08B
:102F380041F03AC042F03BC043F03C0E056EAA0E89
:102F4800066E380E076E330E086E64C101F065C157
:102F580002F066C103F067C104F0DDEC1FF001C0A8
:102F680044F002C045F003C046F004C047F04FECFF
:102F78002DF0D8B0C2EF17F0C4EF17F0C4EF18F077
:102F8800CA0E156EF20E166E490E176E710E186E79
:102F980088C111F089C112F08AC113F08BC114F0F5
:102FA8003DEC22F011C0A4F112C0A5F113C0A6F1A6
:102FB80014C0A7F1A4C111F0A5C112F0A6C113F065
:102FC800A7C114F0CA0E156EF20E166E490E176ED2
:102FD800710E186E3DEC22F011C088F012C089F015
:102FE80013C08AF014C08BF07CEF1DF0FF0EAC15F7
:102FF8000001906FFF0E0101AD150001916FFF0EEA
:103008000101AE150001926F7F0E0101AF1500019D
:10301800936F93BF1CEF18F09005000E9159160E90
:103028009259430E9359D8A01CEF18F01EEF18F0D0
:1030380054EF18F0600E156E420E166EA20E176E43
:103048000D0E186E88C111F089C112F08AC113F0F3
:103058008BC114F03DEC22F011C0A4F112C0A5F10F
:1030680013C0A6F114C0A7F1A4C111F0A5C112F0B4
:10307800A6C113F0A7C114F0600E156E420E166EAD
:10308800A20E176E0D0E186E3DEC22F011C088F0DE
:1030980012C089F013C08AF014C08BF07CEF1DF0C9
:1030A800160E0101AE1909E1C30EAF19AC11AD112D
:1030B800D8A461EF18F063EF18F0C4EF18F09CC1C2
:1030C8003CF09DC13DF09EC13EF09FC13FF0B4C1B0
:1030D80038F0B5C139F0B6C13AF0B7C13BF012ECDF
:1030E80032F038C040F039C041F03AC042F03BC03D
:1030F80043F064C144F065C145F066C146F067C15C
:1031080047F04FEC2DF0D8A08CEF18F08EEF18F0A8
:10311800C4EF18F0600E156E420E166EA20E176EF2
:103128000D0E186E88C111F089C112F08AC113F012
:103138008BC114F03DEC22F011C0A4F112C0A5F12E
:1031480013C0A6F114C0A7F1A4C111F0A5C112F0D3
:10315800A6C113F0A7C114F0600E156E420E166ECC
:10316800A20E176E0D0E186E3DEC22F011C088F0FD
:1031780012C089F013C08AF014C08BF07CEF1DF0E8
:10318800FF0E0101AC152C6FFF0EAD152D6FFF0E54
:10319800AE152E6F7F0EAF152F6F170E0001906FB3
:1031A8002CC191F02DC192F02EC193F02FC194F053
:1031B8009067E1EF18F0E9EF18F094359433933302
:1031C80092339133902FDCEF18F0810E0001912596
:1031D8000101A06FFF0E000192210101A16FFF0EF6
:1031E800000193210101A26FFF0E0001942101014A
:1031F800A36F000E7C6F000E7D6F000E7E6F000EB9
:103208007F6F2FBF14EF19F02C05000E2D59000EFB
:103218002E593F0E2F59D8A014EF19F016EF19F0B8
:103228001AEF1AF0A0C190F0010E00019027000ECD
:10323800916F000E926F800E936F000E946F9067DF
:1032480028EF19F030EF19F0943594339333923313
:103258009133902F23EF19F00101AC510001912512
:1032680001017C6FAD510001922101017D6FAE51CA
:103278000001932101017E6FAF51000194210101EA
:103288007F6F810E0001906FFF0E916FFF0E926F9E
:10329800FF0E936F170E946F7CC195F07DC196F069
:1032A8007EC197F07FC198F094675DEF19F065EFE4
:1032B80019F098359833973396339533942F58EF00
:1032C80019F00001955190250101A06F000E000131
:1032D80091210101A16F000E000192210101A26F4D
:1032E800000E000193210101A36FA0C190F0FF0E11
:1032F8000001916FFF0E926F7F0E936F000E946F17
:10330800906789EF19F091EF19F09435943393335E
:1033180092339133902F84EF19F00001911D956F2E
:10332800921D966F931D976F941D986F01017C51A4
:10333800000195150101B86F7D5100019615010135
:10334800B96F7E51000197150101BA6F7F510001D5
:1033580098150101BB6FB8C1B0F1B9C1B1F1BAC1DB
:10336800B2F1BBC1B3F1A05117080001906FFF0E75
:1033780001017C150001916FFF0E01017D1500010F
:10338800926F7F0E01017E150001936F000E0101FF
:103398007F150001946F000E9111956F000E921128
:1033A800966F800E9311976F000E9411986F906727
:1033B800E0EF19F0E8EF19F0983598339733963322
:1033C8009533902FDBEF19F095C07CF196C07DF115
:1033D80097C07EF198C07FF10101AFBFF8EF19F0F7
:1033E800F6EF19F000EF1AF07F1F7E1F7D1F7C6D2E
:1033F800000E7D237E237F239CC138F09DC139F0C8
:103408009EC13AF09FC13BF0B0C13CF0B1C13DF064
:10341800B2C13EF0B3C13FF012EC32F038C09CF1BB
:1034280039C09DF13AC09EF13BC09FF164C101F0E3
:1034380065C102F066C103F067C104F09CC105F0E4
:103448009DC106F09EC107F09FC108F0DDEC1FF09A
:1034580001C0B0F102C0B1F103C0B2F104C0B3F1D0
:10346800B0C1B8F1B1C1B9F1B2C1BAF1B3C1BBF1E0
:10347800B8C190F1B9C191F1BAC192F1BBC193F150
:10348800000E01019015B86F800E9115B96FFF0EEF
:103498009215BA6FFF0E9315BB6FB8C1B0F1B9C1E1
:1034A800B1F1BAC1B2F1BBC1B3F1B0C111F0B1C150
:1034B80012F0B2C113F0B3C114F0000E156E720E03
:1034C800166E310E176E3F0E186E3DEC22F011C0CD
:1034D80074F112C075F113C076F114C077F19CC174
:1034E8003CF09DC13DF09EC13EF09FC13FF0B0C190
:1034F80038F0B1C139F0B2C13AF0B3C13BF012ECC7
:1035080032F038C094F139C095F13AC096F13BC019
:1035180097F1180E156E720E166E310E176E3F0E5D
:10352800186E94C13CF095C13DF096C13EF097C12C
:103538003FF064C138F065C139F066C13AF067C13F
:103548003BF012EC32F038C011F039C012F03AC03A
:1035580013F03BC014F03DEC22F011C014F112C07E
:1035680015F113C016F114C017F114C101F015C1FB
:1035780002F016C103F017C104F08C0E156EBE0ED2
:10358800166EBF0E176E350E186EB0C111F0B1C1B0
:1035980012F0B2C113F0B3C114F03DEC22F011C027
:1035A80005F012C006F013C007F014C008F0DDECF7
:1035B8001FF001C078F102C079F103C07AF104C0AC
:1035C8007BF174C101F075C102F076C103F077C1D7
:1035D80004F078C105F079C106F07AC107F07BC123
:1035E80008F0DDEC1FF001C0B4F102C0B5F103C072
:1035F800B6F104C0B7F174C13CF075C13DF076C1B5
:103608003EF077C13FF0B4C138F0B5C139F0B6C16A
:103618003AF0B7C13BF012EC32F038C094F139C03F
:1036280095F13AC096F13BC097F178C138F079C16D
:1036380039F07AC13AF07BC13BF094C13CF095C1B6
:103648003DF096C13EF097C13FF012EC32F038C021
:1036580044F139C045F13AC046F13BC047F1B4C125
:1036680011F0B5C112F0B6C113F0B7C114F0B4C16E
:1036780015F0B5C116F0B6C117F0B7C118F03DEC9A
:1036880022F011C0B0F112C0B1F113C0B2F114C0F0
:10369800B3F10E0E056EEA0E066EDD0E076EB50E60
:1036A800086E4C0E156EBB0E166E310E176E330E6D
:1036B800186EB0C111F0B1C112F0B2C113F0B3C1AC
:1036C80014F03DEC22F011C001F012C002F013C05A
:1036D80003F014C004F0DDEC1FF001C0A4F102C037
:1036E800A5F103C0A6F104C0A7F1550E056EB30EEF
:1036F800066E8A0E076E380E086EB0C115F0B1C19D
:1037080016F0B2C117F0B3C118F0A4C111F0A5C1E9
:1037180012F0A6C113F0A7C114F03DEC22F011C0BD
:1037280001F012C002F013C003F014C004F0DDEC85
:103738001FF001C054F102C055F103C056F104C096
:1037480057F1610E056E0B0E066E360E076EBB0E38
:10375800086EB0C115F0B1C116F0B2C117F0B3C10F
:1037680018F054C111F055C112F056C113F057C1E9
:1037780014F03DEC22F011C001F012C002F013C0A9
:1037880003F014C004F0DDEC1FF001C048F102C0E2
:1037980049F103C04AF104C04BF1AB0E056EAA0E05
:1037A800066E2A0E076E3E0E086EB0C115F0B1C146
:1037B80016F0B2C117F0B3C118F048C111F049C1F1
:1037C80012F04AC113F04BC114F03DEC22F011C0C5
:1037D80001F012C002F013C003F014C004F0DDECD5
:1037E8001FF001C038F102C039F103C03AF104C03A
:1037F8003BF1B4C138F0B5C139F0B6C13AF0B7C140
:103808003BF0B0C115F0B1C116F0B2C117F0B3C1A9
:1038180018F038C111F039C112F03AC113F03BC1A8
:1038280014F03DEC22F011C03CF012C03DF013C082
:103838003EF014C03FF012EC32F038C080F139C0CD
:1038480081F13AC082F13BC083F1000E056E000E93
:10385800066E000E076EC00E086E80C101F081C1B1
:1038680002F082C103F083C104F0DDEC1FF001C057
:1038780044F002C045F003C046F004C047F080C1E0
:1038880015F081C116F082C117F083C118F0B4C1D8
:1038980011F0B5C112F0B6C113F0B7C114F03DEC88
:1038A80022F011C040F012C041F013C042F014C021
:1038B80043F02AEC26F040C03CF141C03DF142C043
:1038C8003EF143C03FF144C105F045C106F046C191
:1038D80007F047C108F044C115F045C116F046C1CC
:1038E80017F047C118F0B4C111F0B5C112F0B6C154
:1038F80013F0B7C114F03DEC22F011C001F012C072
:1039080002F013C003F014C004F0DDEC1FF001C096
:1039180018F102C019F103C01AF104C01BF13CC12F
:1039280038F03DC139F03EC13AF03FC13BF018C113
:103938003CF019C13DF01AC13EF01BC13FF012EC3A
:1039480032F038C04CF139C04DF13AC04EF13BC0AD
:103958004FF1B4C13CF0B5C13DF0B6C13EF0B7C1BE
:103968003FF04CC138F04DC139F04EC13AF04FC16B
:103978003BF012EC32F038C094F139C095F13AC0FE
:1039880096F13BC097F1000E386E000E396E800E2E
:103998003A6E3F0E3B6E94C13CF095C13DF096C126
:1039A8003EF097C13FF012EC32F038C0B4F139C0A4
:1039B800B5F13AC0B6F13BC0B7F1B4C1B8F1B5C181
:1039C800B9F1B6C1BAF1B7C1BBF1B8C1ACF1B9C16F
:1039D800ADF1BAC1AEF1BBC1AFF17CC190F07DC110
:1039E80091F07EC192F07FC193F0170ED89000013C
:1039F8009037913792379337E82EFAEF1CF09051B1
:103A08000101AC27000191510101AD230001925140
:103A18000101AE23000193510101AF23170E0001EC
:103A2800906FACC191F0ADC192F0AEC193F0AFC14F
:103A380094F0906722EF1DF02AEF1DF0943594332F
:103A4800933392339133902F1DEF1DF0000194BFF3
:103A58003AEF1DF094519311921106E19105D8B0F7
:103A680038EF1DF03AEF1DF052EF1DF0B4C12AF007
:103A7800B5C12BF0B6C12CF0B7C12DF07CC12EF02A
:103A88007DC12FF0F7EC27F02AC0B4F12BC0B5F1B7
:103A98002CC0B6F12DC0B7F162EF1DF0ACC1B8F182
:103AA800ADC1B9F1AEC1BAF1AFC1BBF1B8C1B4F1A2
:103AB800B9C1B5F1BAC1B6F1BBC1B7F188C111F04E
:103AC80089C112F08AC113F08BC114F0B4C115F08A
:103AD800B5C116F0B6C117F0B7C118F03DEC22F029
:103AE80011C088F012C089F013C08AF014C08BF09E
:103AF80012004CC06CF04DC06DF04EC06EF04FC05F
:103B08006FF06CC084F06DC085F06EC086F06FC039
:103B180087F0000E00018415506E000E8515516E59
:103B2800800E8615526E7F0E8715536E800E5218C2
:103B380009E17F0E531850105110D8A4A6EF1DF0BC
:103B4800A8EF1DF0D6EF1DF04CC015F04DC016F0D3
:103B58004EC017F04FC018F04CC011F04DC012F015
:103B68004EC013F04FC014F03DEC22F011C001F02C
:103B780012C002F013C003F014C004F04CC005F0EA
:103B88004DC006F04EC007F04FC008F0DDEC1FF046
:103B980001C04CF002C04DF003C04EF004C04FF01D
:103BA800DCEF1FF087BFE5EF1DF087518611851107
:103BB80006E18405D8B0E3EF1DF0E5EF1DF021EF35
:103BC8001EF0FF0E8415506EFF0E8515516EFF0E08
:103BD8008615526E7F0E8715536E50505110521035
:103BE8005310D8A4FAEF1DF0FCEF1DF006EF1EF0FD
:103BF8004CC04CF04DC04DF04EC04EF04FC04FF091
:103C0800DCEF1FF087BF0DEF1EF00BEF1EF021EF6A
:103C18001EF0000EB46F210EB36FC50E016E100EAC
:103C2800026E14EC33F001C04CF002C04DF003C03A
:103C38004EF004C04FF0DCEF1FF0170E506E84C03A
:103C480051F085C052F086C053F087C054F05066DA
:103C580030EF1EF038EF1EF05434543253325232E3
:103C68005132502E2BEF1EF051C07CF052C07DF027
:103C780053C07EF054C07FF000017C517D117E114D
:103C88007F11D8A44AEF1EF04CEF1EF07CEF1EF017
:103C9800000E686F000E696F000E6A6F000E6B6F82
:103CA80061EF1EF0D8908437853786378737010E45
:103CB8006827000E69236A236B2386AF66EF1EF020
:103CC80068EF1EF056EF1EF0FF0E6825506EFF0ECF
:103CD8006921516EFF0E6A21526EFF0E6B21536EE1
:103CE80050507C5F51507D5B52507E5B53507F5BE0
:103CF800810E7C27FF0E7D23FF0E7E23FF0E7F2380
:103D0800FF0E8415506EFF0E8515516E7F0E8615B9
:103D1800526E000E8715536E000E5010846F000E01
:103D28005110856F800E5210866F000E5310876FEA
:103D38007CA1A1EF1EF0A3EF1EF0ABEF1EF08451A3
:103D480084278551852386518623875187237F358C
:103D58007F337E337D337C3384518427855185239B
:103D68008651862387518723000E646F000E656F86
:103D7800000E666F000E676F64C070F065C071F06A
:103D880066C072F067C073F0000E806F000E816F1E
:103D9800000E826F010E836F1AEF1FF080516425A9
:103DA800746F81516521756F82516621766F8351D9
:103DB8006721776F7451845D75518559765186599D
:103DC8008751800A506E7751800A5058D8A0EFEF7B
:103DD8001EF0F1EF1EF00DEF1FF080517425646F97
:103DE80081517521656F82517621666F83517721E4
:103DF800676F7451845F7551855B7651865B775127
:103E0800875B8051702781517123825172238351BE
:103E180073238451842785518523865186238751AE
:103E28008723D89083338233813380338051811143
:103E380082118311D8A423EF1FF025EF1FF0D2EFD2
:103E48001EF08451851186118711D8B42EEF1FF00A
:103E580030EF1FF091EF1FF0000E786F000E796FB2
:103E6800800E7A6F3F0E7B6F78C040F079C041F0CA
:103E78007AC042F07BC043F0000E446E000E456EDF
:103E8800800E466E3F0E476E4FEC2DF0D8A04FEFD8
:103E98001FF051EF1FF091EF1FF0000E0001786F37
:103EA800000E796F800E7A6F3F0E7B6F000E406EAA
:103EB800000E416E800E426E3F0E436E78C044F095
:103EC80079C045F07AC046F07BC047F04FEC2DF042
:103ED800D8B071EF1FF073EF1FF07CEF1FF0020EE8
:103EE80000017027000E71237223732391EF1FF0D6
:103EF800010E00017015506E000E7115516E000E06
:103F08007215526E000E7315536E50507027515033
:103F18007123525072235350732370C050F071C0F4
:103F280051F072C052F073C053F0533453325232CE
:103F380051325032000E50240001846F000E51207F
:103F4800856F000E5220866F3F0E5320876F7CC00E
:103F580050F07DC051F07EC052F07FC053F0170E74
:103F6800D8905036513652365336E82EB4EF1FF0FB
:103F7800505084275150852352508623535087230D
:103F880084C06CF085C06DF086C06EF087C06FF09D
:103F98006CC078F06DC079F06EC07AF06FC07BF0BD
:103FA80078C04CF079C04DF07AC04EF07BC04FF02D
:103FB80012000450800B0D6E045004240F6E03AEE3
:103FC800E8EF1FF0EAEF1FF0EBEF1FF00F800F5044
:103FD800D8B4F1EF1FF0F3EF1FF008EF20F00F282F
:103FE800D8A4F9EF1FF0FBEF1FF003EF20F0000E4D
:103FF800016E000E026E000E036E000E046E038E3C
:10400800000E046E10EF20F0000E016E000E026E1E
:10401800000E036E000E046E0850800B0E6E0D50DD
:104028000E18D8B41AEF20F01CEF20F01DEF20F086
:104038000D8C085008240E6E07AE25EF20F027EFF0
:1040480020F028EF20F00E800E50D8B42EEF20F08C
:1040580030EF20F045EF20F00E28D8A436EF20F0FE
:1040680038EF20F040EF20F0000E056E000E066ECF
:10407800000E076E000E086E078E000E086E4DEFDC
:1040880020F0000E056E000E066E000E076E000E84
:10409800086E0F500E5CD8B054EF20F056EF20F0A9
:1040A8007DEF20F00DAC5BEF20F05DEF20F05FEFCF
:1040B80020F0800E0D1A0FC010F00EC00FF010C0C7
:1040C8000EF001C010F005C001F010C005F002C0EC
:1040D80010F006C002F010C006F003C010F007C0D0
:1040E80003F010C007F004C010F008C004F010C0BE
:1040F80008F0000E106E0F500EC009F00A6A095E33
:10410800000E0A5A0ABE92EF20F00A5009E11A0E70
:10411800095CD8A092EF20F094EF20F0CBEF20F0CC
:104128000150021003100410D8A49DEF20F0A0EF56
:1041380020F0010EA1EF20F0000E106E000E016EAF
:10414800000E026E000E036E000E046E0EC00FF01D
:10415800D4EF20F010A0B3EF20F0B5EF20F0BBEFC4
:1041680020F0D89010300109106EBDEF20F0D890E3
:10417800103201A0C2EF20F0C4EF20F0C5EF20F00C
:10418800108E043404320332023201320F2A0E50E8
:104198000F5CD8A0D2EF20F0D4EF20F0AEEF20F0E3
:1041A8000DBCD9EF20F0DBEF20F01BEF21F00F5012
:1041B800D8A4E1EF20F0E3EF20F0EDEF20F0000EBF
:1041C800016E000E026E000E036E000E046E3CEFD0
:1041D80022F00550012606500222075003220850FB
:1041E800042204A0FAEF20F0FCEF20F0A8EF21F061
:1041F80010A001EF21F003EF21F009EF21F0D89092
:1042080010300109106E0BEF21F0D890103201A088
:1042180010EF21F012EF21F013EF21F0108E04348B
:1042280004320332023201320F2AA8EF21F005507E
:10423800015C06500258075003580450800A096E62
:104248000850800A0958D8B02CEF21F02EEF21F041
:1042580059EF21F00150055C096E025006580A6EAC
:10426800035007580B6E045008580C6EFF0E0924B3
:10427800016EFF0E0A20026EFF0E0B20036EFF0E6A
:104288000C20046E800E0D1A106C1050D8A44FEF3D
:1042980021F051EF21F061EF21F0010E0126000E0F
:1042A80002220322042261EF21F00550015E06502C
:1042B800025A0750035A0850045A015002100310BA
:1042C8000410D8A46AEF21F06CEF21F0A1EF21F0DF
:1042D8001050D8A472EF21F074EF21F0A1EF21F073
:1042E800000E016E000E026E000E036E000E046ECC
:1042F8003CEF22F0D890013602360336043610AE71
:1043080088EF21F08AEF21F08BEF21F0018010A0D7
:1043180090EF21F092EF21F096EF21F0D88010363F
:1043280098EF21F0D89010360F50D8B49EEF21F0B6
:10433800A0EF21F0A1EF21F00F0603AEA6EF21F0C8
:10434800A8EF21F07EEF21F0000E0E6E10AEAFEF59
:1043580021F0B1EF21F0C9EF21F010C009F07F0E74
:104368000916D8B4BAEF21F0BCEF21F0C0EF21F064
:10437800010E0E6EC9EF21F001A0C5EF21F0C7EFC5
:1043880021F0C9EF21F0BCEF21F00E50D8B4CFEFE7
:1043980021F0D1EF21F0FCEF21F0010E0126000EF3
:1043A80002220322042204A0DCEF21F0DEEF21F038
:1043B800FCEF21F001C009F002C00AF003C00BF0C5
:1043C80004C00CF00C340C320B320A32093209C02A
:1043D80001F00AC002F00BC003F00CC004F00F2873
:1043E800D8B4F9EF21F0FBEF21F0FCEF21F00F2A10
:1043F8000F28D8B402EF22F004EF22F00CEF22F0DD
:104408000F50D8A40AEF22F00CEF22F01EEF22F092
:10441800000E016E000E026E000E036E000E046E9A
:104428000F50D8A41AEF22F01CEF22F01EEF22F052
:10443800000E0D6E0FA023EF22F025EF22F028EFDB
:1044480022F0038E29EF22F0039ED8900F30046EDD
:104458000DAE31EF22F033EF22F034EF22F0048E6C
:1044680001C001F002C002F003C003F004C004F070
:1044780012001450800B1D6E14501424236E13AEBA
:1044880048EF22F04AEF22F04BEF22F0238023502E
:10449800D8B451EF22F053EF22F066EF22F0232830
:1044A800D8A459EF22F05BEF22F063EF22F0000E60
:1044B800116E000E126E000E136E000E146E138E27
:1044C8006EEF22F0000E116E000E126E000E136ECB
:1044D800000E146E1850800B1D1A18501824226EE6
:1044E80017AE79EF22F07BEF22F07CEF22F02280EA
:1044F8002250D8B482EF22F084EF22F097EF22F016
:104508002228D8A48AEF22F08CEF22F094EF22F030
:10451800000E156E000E166E000E176E000E186E49
:10452800178E9FEF22F0000E156E000E166E000E0D
:10453800176E000E186E2250D8B4A5EF22F0A7EF20
:1045480022F0AFEF22F02350D8A4ADEF22F0AFEF66
:1045580022F0B9EF22F0000E116E000E126E000E5E
:10456800136E000E146E51EF24F017501102F3CFA2
:1045780028F0F4CF29F028501E6E1F6A206A216A9D
:104588002950246E256A266A276A16501202F3CF2C
:1045980028F0F4CF29F028501E26000E1F222022D2
:1045A800212229502426000E2522262227221550B2
:1045B8001302F3CF28F0F4CF29F028501E26000E5E
:1045C8001F222022212229502426000E25222622BD
:1045D800272220C021F01FC020F01EC01FF01E6A35
:1045E80015501202F3CF28F0F4CF29F028501E26D8
:1045F80029501F22000E2022000E212216501102DF
:10460800F3CF28F0F4CF29F028501E2629501F2276
:10461800000E2022000E212220C021F01FC020F011
:104628001EC01FF01E6A15501102F3CF28F0F4CFF8
:1046380029F028501E2629501F22000E2022000E85
:10464800212217501202F3CF28F0F4CF29F0285076
:10465800242629502522000E2622000E2722165035
:104668001302F3CF28F0F4CF29F02850242629503C
:104678002522000E2622000E272217501302F3CF00
:1046880028F0F4CF29F02850196E29501A6E1B6AA9
:104698001C6A1BC01CF01AC01BF019C01AF0196A5A
:1046A800195024261A5025221B5026221C50272236
:1046B8001EC019F01FC01AF020C01BF021C01CF04A
:1046C800190E6CEF23F0D8901C321B321A321932B3
:1046D800E82E67EF23F0195024261A5025221B5084
:1046E80026221C50272220C021F01FC020F01EC007
:1046F8001FF01E6A225023C019F01A6A1926000EEC
:104708001A22820E1924286EFF0E1A20296EA2EF93
:1047180023F0D890243625362636273621AE97EF53
:1047280023F099EF23F09AEF23F02480D8901E36D7
:104738001F36203621362806D8A0290626AEA7EF30
:1047480023F0A9EF23F08DEF23F0000E226E21AEA7
:10475800B0EF23F0B2EF23F0D6EF23F0FF0E1E14D4
:10476800196EFF0E1F141A6EFF0E20141B6E7F0E9B
:1047780021141C6E19501A101B101C10D8B4C7EF46
:1047880023F0C9EF23F0CDEF23F0010E226ED6EF10
:1047980023F024A0D2EF23F0D4EF23F0D6EF23F0B8
:1047A800C9EF23F02250D8B4DCEF23F0DEEF23F07A
:1047B80002EF24F0010E2426000E252226222722AD
:1047C80027A0E9EF23F0EBEF23F002EF24F024C059
:1047D80019F025C01AF026C01BF027C01CF01C34A5
:1047E8001C321B321A32193219C024F01AC025F0B3
:1047F8001BC026F01CC027F0284A292A29BE0DEF25
:1048080024F0295008E12828D8A00DEF24F00FEF54
:1048180024F019EF24F0000E246E000E256E800E91
:10482800266E7F0E276E47EF24F029BE26EF24F070
:10483800295006E12804D8B024EF24F026EF24F00C
:1048480032EF24F0000E246E000E256E000E266E48
:10485800000E276E000E1D6E47EF24F028C023F0CF
:10486800FF0E2416FF0E25167F0E2616000E27169D
:1048780023A041EF24F043EF24F044EF24F0268EE8
:10488800D8902330276E1D50271224C011F025C060
:1048980012F026C013F027C014F0120055EC32F0C5
:1048A8000C6E0C500001C56FC66B35EC32F00C6E07
:1048B8000C500001C36FC46BC505C611D8A467EFBF
:1048C80024F069EF24F06DEF24F0000ECA6F000E9B
:1048D800C96FC305C411D8A474EF24F076EF24F08F
:1048E8007AEF24F0000EC86F000EC76F020EC519CC
:1048F800C611D8A482EF24F084EF24F0D6EF24F078
:10490800C951CA11D8A48BEF24F08DEF24F09FEF82
:1049180024F0010ECB25016E000ECC21026E000E94
:10492800046E050E036E44EC2EF001C0CBF002C0FD
:10493800CCF0D3EC2AF00001C94BCA2BCABFAEEFAA
:1049480024F0CA5109E1650EC95DD8A0AEEF24F084
:10495800B0EF24F0D6EF24F0010ECB25016E000E47
:10496800CC21026E000E046E050E036E44EC2EF090
:1049780001C0CBF002C0CCF0040E0001CB19CC1161
:10498800D8A4C9EF24F0CBEF24F0CFEF24F0D1EC7A
:104998002DF0D1EF24F0D3EC2AF0000E0001CA6FFD
:1049A800010EC96F020EC319C411D8A4DEEF24F09A
:1049B800E0EF24F029EF26F0C751C811D8A4E7EF9B
:1049C80024F0E9EF24F084EF25F0CB05CC11D8A42E
:1049D800F0EF24F0F2EF24F017EF25F0C14BC22BD3
:1049E800C5EC30F0000E076E000E94EC32F0C1C03A
:1049F80001F0C2C002F0000E046E0A0E036E8BECCA
:104A080030F00150300FC6EC31F0C1C001F0C2C027
:104A180002F0000E046E0A0E036E33EC31F0015002
:104A2800300FC6EC31F0020E0001CB19CC11D8A41E
:104A380020EF25F022EF25F047EF25F0BF4BC02BE4
:104A4800C5EC30F0030E076E000E94EC32F0BFC0D8
:104A580001F0C0C002F0000E046E0A0E036E8BEC6B
:104A680030F00150300FC6EC31F0BFC001F0C0C0CB
:104A780002F0000E046E0A0E036E33EC31F00150A2
:104A8800300FC6EC31F0030E0001CB19CC11D8A4BD
:104A980050EF25F052EF25F077EF25F0BD4BBE2BF8
:104AA800C5EC30F0060E076E000E94EC32F0BDC077
:104AB80001F0BEC002F0000E046E0A0E036E8BEC0D
:104AC80030F00150300FC6EC31F0BDC001F0BEC06F
:104AD80002F0000E046E0A0E036E33EC31F0015042
:104AE800300FC6EC31F0040E0001CB19CC11D8A45C
:104AF80080EF25F082EF25F084EF25F0010ED66FC8
:104B0800C74BC82BC8BF92EF25F0C85109E1650E05
:104B1800C75DD8A092EF25F094EF25F029EF26F095
:104B2800CB05CC11D8A49BEF25F09DEF25F0C2EF63
:104B380025F0C14BC22BC5EC30F0000E076E000EFD
:104B480094EC32F0C1C001F0C2C002F0000E046E55
:104B58000A0E036E8BEC30F00150300FC6EC31F0CA
:104B6800C1C001F0C2C002F0000E046E0A0E036E4E
:104B780033EC31F00150300FC6EC31F0020E000179
:104B8800CB19CC11D8A4CBEF25F0CDEF25F0F2EF5F
:104B980025F0BF4BC02BC5EC30F0030E076E000E9E
:104BA80094EC32F0BFC001F0C0C002F0000E046EF9
:104BB8000A0E036E8BEC30F00150300FC6EC31F06A
:104BC800BFC001F0C0C002F0000E046E0A0E036EF2
:104BD80033EC31F00150300FC6EC31F0030E000118
:104BE800CB19CC11D8A4FBEF25F0FDEF25F022EF6F
:104BF80026F0BD4BBE2BC5EC30F0060E076E000E3E
:104C080094EC32F0BDC001F0BEC002F0000E046E9C
:104C18000A0E036E8BEC30F00150300FC6EC31F009
:104C2800BDC001F0BEC002F0000E046E0A0E036E95
:104C380033EC31F00150300FC6EC31F0F60E0001C4
:104C4800C725C76FFF0EC821C86F12004350800BDD
:104C5800506E43504324576E42AE35EF26F037EF7F
:104C680026F038EF26F057805750D8B43EEF26F09C
:104C780040EF26F055EF26F05728D8A446EF26F047
:104C880048EF26F050EF26F0000E406E000E416E01
:104C9800000E426E000E436E428E000E436E5DEFB4
:104CA80026F0000E406E000E416E000E426E000EA1
:104CB800436E4750800B501A47504724586E46AEF3
:104CC80068EF26F06AEF26F06BEF26F05880585010
:104CD800D8B471EF26F073EF26F088EF26F0582845
:104CE800D8A479EF26F07BEF26F083EF26F0000EAC
:104CF800446E000E456E000E466E000E476E468EE0
:104D0800000E476E90EF26F0000E446E000E456EC2
:104D1800000E466E000E476E445045104610471070
:104D2800D8A499EF26F09BEF26F0B3EF26F0000EFB
:104D3800406E000E416E000E426E000E436E800EF5
:104D480042127F0E43125050431240C040F041C0FF
:104D580041F042C042F043C043F0F6EF27F057500D
:104D6800D8A4B9EF26F0BBEF26F0C5EF26F0000E69
:104D7800406E000E416E000E426E000E436EF6EF5E
:104D880027F0585057C048F0496A485E000E495A03
:104D98007F0E4824516E000E4920526E40C04CF0E0
:104DA80041C04DF042C04EF043C04FF0000E406E7F
:104DB800000E416E000E426E000E436E000E536EE2
:104DC800000E546E000E556E000E566E000E586E94
:104DD80026EF27F05850D8B4F4EF26F0F6EF26F077
:104DE8000DEF27F0D8904C364D364E364F36D890CA
:104DF800403641364236433656AE05EF27F007EFC8
:104E080027F008EF27F04080D890533654365536AF
:104E1800563644504C5C45504D5846504E584750B5
:104E28004F58D8A01AEF27F01CEF27F025EF27F0EE
:104E3800568C44504C5E45504D5A46504E5A475039
:104E48004F5A582A190E58642CEF27F02EEF27F0E6
:104E5800EEEF26F04C504D104E104F10D8B437EFEF
:104E680027F039EF27F051EF27F0538051EF27F063
:104E7800D890403641364236433656AE46EF27F094
:104E880048EF27F049EF27F04080D8905336543642
:104E9800553656365106D8A0520642AE56EF27F080
:104EA80058EF27F03CEF27F0000E586E56AE5FEF34
:104EB80027F061EF27F085EF27F0FF0E5314486EB7
:104EC800FF0E5414496EFF0E55144A6E7F0E561489
:104ED8004B6E485049104A104B10D8B476EF27F063
:104EE80078EF27F07CEF27F0010E586E85EF27F05A
:104EF80040A081EF27F083EF27F085EF27F078EFC8
:104F080027F05850D8B48BEF27F08DEF27F0B1EF8A
:104F180027F0010E4026000E41224222432243A0E0
:104F280098EF27F09AEF27F0B1EF27F040C048F04C
:104F380041C049F042C04AF043C04BF04B344B32B9
:104F48004A324932483248C040F049C041F04AC06C
:104F580042F04BC043F0514A522A52BEBCEF27F0F0
:104F6800525008E15128D8A0BCEF27F0BEEF27F037
:104F7800C9EF27F0000E526E5168000E406E000E09
:104F8800416E000E426E000E436E52BED6EF27F001
:104F9800525006E15104D8B0D4EF27F0D6EF27F0ED
:104FA800E4EF27F0000E526E000E516E000E406EB8
:104FB800000E416E000E426E000E436E000E506EE3
:104FC80051C057F057A0EBEF27F0EDEF27F0F0EFC7
:104FD80027F0428EF1EF27F0429ED8905730436E6B
:104FE800A7EF26F012002AC038F02BC039F02CC0E9
:104FF8003AF02DC03BF02FBE0BEF28F02F5009E1FF
:10500800800E2E5CD8A00BEF28F00DEF28F06BEF88
:1050180028F038C011F039C012F03AC013F03BC084
:1050280014F0000E156E000E166E000E176E7F0E31
:10503800186E3DEC22F011C038F012C039F013C0E0
:105048003AF014C03BF0810E2E26FF0E2F222FBE01
:1050580037EF28F02F5009E1800E2E5CD8A037EFEB
:1050680028F039EF28F0D5EF28F038C011F039C012
:1050780012F03AC013F03BC014F0000E156E000E8B
:10508800166E000E176E7F0E186E3DEC22F011C0E2
:1050980038F012C039F013C03AF014C03BF0810E5A
:1050A8002E26FF0E2F222FBE63EF28F02F5009E186
:1050B800800E2E5CD8A063EF28F065EF28F0D5EFBE
:1050C80028F0000E2F6E7F0E2E6ED5EF28F02FAE33
:1050D80077EF28F0820E2E5CFF0E2F58D8B077EFAE
:1050E80028F079EF28F0D5EF28F038C011F039C052
:1050F80012F03AC013F03BC014F0000E156E000E0B
:10510800166E800E176E0C0E186E3DEC22F011C054
:1051180038F012C039F013C03AF014C03BF0660EF4
:105128002E26000E2F222FAEA3EF28F0820E2E5C23
:10513800FF0E2F58D8B0A3EF28F0A5EF28F0D5EF31
:1051480028F038C011F039C012F03AC013F03BC053
:1051580014F0000E156E000E166E800E176E0C0EF3
:10516800186E3DEC22F011C038F012C039F013C0AF
:105178003AF014C03BF0660E2E26000E2F222FAEFA
:10518800CFEF28F0820E2E5CFF0E2F58D8B0CFEF4D
:1051980028F0D1EF28F0D5EF28F0FF0E2F6E820E01
:1051A8002E6E7F0E2E24306E000E2F20316E326A46
:1051B800336A170ED8903036313632363336E82E09
:1051C800DEEF28F030C034F031C035F032C036F0B0
:1051D80033C037F034C011F035C012F036C013F0C8
:1051E80037C014F038C015F039C016F03AC017F0BF
:1051F8003BC018F03DEC22F011C02AF012C02BF091
:1052080013C02CF014C02DF02AC02AF02BC02BF0AC
:105218002CC02CF02DC02DF01200060E076E000ECB
:1052280094EC32F0B9C001F0BAC002F0000E046E7E
:105238000A0E036E8BEC30F00150300FC6EC31F0E3
:10524800B9C001F0BAC002F0000E046E0A0E036E77
:1052580033EC31F00150300FC6EC31F00001BA5197
:1052680009E1640EB95DD8A03CEF29F03EEF29F0C2
:1052780095EF29F0000EBA6F000EB96FB74BB82B37
:10528800040E076E000E94EC32F0B7C001F0B8C0FF
:1052980002F0000E046E0A0E036E33EC31F001507A
:1052A800300FC6EC31F00001B85109E13C0EB75D92
:1052B800D8A061EF29F063EF29F06BEF29F0030E16
:1052C800076E000E94EC32F0300EC6EC31F000019F
:1052D800B85109E10A0EB75DD8A075EF29F077EF4C
:1052E80029F095EF29F0B85107E13C0EB75DD8B029
:1052F80080EF29F082EF29F095EF29F0030E076E71
:10530800000E94EC32F0B7C001F0B8C002F0000E05
:10531800046E0A0E036E8BEC30F00150300FC6ECB1
:1053280031F00001B85109E13C0EB75DD8A09FEFFC
:1053380029F0A1EF29F0F8EF29F0000EB86F000E60
:10534800B76FB54BB62B010E076E000E94EC32F01A
:10535800B5C001F0B6C002F0000E046E0A0E036E6E
:1053680033EC31F00150300FC6EC31F00001B6518A
:1053780009E13C0EB55DD8A0C4EF29F0C6EF29F0CD
:10538800CEEF29F0000E076E000E94EC32F0300ECE
:10539800C6EC31F00001B65109E10A0EB55DD8A09E
:1053A800D8EF29F0DAEF29F0F8EF29F0B65107E144
:1053B8003C0EB55DD8B0E3EF29F0E5EF29F0F8EF42
:1053C80029F0000E076E000E94EC32F0B5C001F023
:1053D800B6C002F0000E046E0A0E036E8BEC30F0BD
:1053E8000150300FC6EC31F01200326E3250D8B492
:1053F80000EF2AF002EF2AF024EF2AF02DBE09EF81
:105408002AF007EF2AF024EF2AF02AC02EF02BC04A
:105418002FF02CC030F02DC031F02E1E2F1E301E64
:10542800311E2E2A000E2F22302231222EC034F0B7
:105438002FC035F030C036F031C037F02CEF2AF0ED
:105448002AC034F02BC035F02CC036F02DC037F010
:105458002A502B102C102D10D8A435EF2AF037EF36
:105468002AF041EF2AF0000E2A6E000E2B6E000E75
:105478002C6E000E2D6ED2EF2AF0960E336E4BEF87
:105488002AF0332AD8903732363235323432000E89
:1054980034142E6E000E35142F6E000E3614306E36
:1054A800FE0E3714316E2E502F1030103110D8A444
:1054B80060EF2AF062EF2AF045EF2AF070EF2AF049
:1054C800332A010E3426000E352236223722D89090
:1054D8003732363235323432000E34142E6E000E26
:1054E80035142F6E000E3614306EFF0E3714316EE1
:1054F8002E502F1030103110D8A485EF2AF087EFE6
:105508002AF064EF2AF08FEF2AF03306D890343669
:1055180035363636373636BE94EF2AF096EF2AF00F
:105528009EEF2AF0020E33609CEF2AF09EEF2AF0DD
:1055380089EF2AF033B0A3EF2AF0A5EF2AF0A6EFFF
:105548002AF0369ED890333233C02EF02F6A306A54
:10555800316A2EC031F0306A2F6A2E6A2E5034120A
:105568002F50351230503612315037123250D8B4CD
:10557800C0EF2AF0C2EF2AF0CAEF2AF02DBEC9EF19
:105588002AF0C7EF2AF0CAEF2AF0378E34C02AF083
:1055980035C02BF036C02CF037C02DF01200800E2D
:1055A800ECEC31F0C1C001F0C2C002F0000E046E94
:1055B8000A0E036E8BEC30F00150300FC6EC31F060
:1055C800C1C001F0C2C002F0000E046E0A0E036EE4
:1055D80033EC31F00150300FC6EC31F03A0EC6EC26
:1055E80031F0BFC001F0C0C002F0000E046E0A0E18
:1055F800036E8BEC30F00150300FC6EC31F0BFC0B9
:1056080001F0C0C002F0000E046E0A0E036E33EC07
:1056180031F00150300FC6EC31F03A0EC6EC31F0E3
:10562800BDC001F0BEC002F0000E046E0A0E036E8B
:105638008BEC30F00150300FC6EC31F0BDC001F0FA
:10564800BEC002F0000E046E0A0E036E33EC31F099
:105658000150300FC6EC31F0BE0E076E100E086E0A
:1056680075EC32F00001CB51CC11D8A43EEF2BF0F1
:1056780040EF2BF04BEF2BF0000E076E010E94EC71
:1056880032F0B10E076E100E086E75EC32F00001A4
:10569800CB05CC11D8A453EF2BF055EF2BF060EFCE
:1056A8002BF0000E076E010E94EC32F07D0E076EA3
:1056B800100E086E75EC32F0020E0001CB19CC11F9
:1056C800D8A469EF2BF06BEF2BF076EF2BF0000EE0
:1056D800076E010E94EC32F0970E076E100E086EEE
:1056E80075EC32F0030E0001CB19CC11D8A47FEF72
:1056F8002BF081EF2BF08CEF2BF0000E076E010ED4
:1057080094EC32F08A0E076E100E086E75EC32F0CB
:10571800040E0001CB19CC11D8A495EF2BF097EF0C
:105728002BF0A4EF2BF0D1EC2DF0000E076E010E3C
:1057380094EC32F0A40E076E100E086E75EC32F081
:105748001200000E00018C6F000E8D6F400E8E6FE0
:10575800400E8F6F000E886F000E896F200E8A6FC3
:10576800410E8B6F64EC08F088C09DF089C09EF0F4
:105778008AC09FF08BC0A0F0000E156E000E166E4A
:10578800000E176E400E186E9DC011F09EC012F0EC
:105798009FC013F0A0C014F03DEC22F011C0A1F09E
:1057A80012C0A2F013C0A3F014C0A4F0000E0001B0
:1057B8008C6F000E8D6F800E8E6F410E8F6F000EF6
:1057C800886F000E896F000E8A6F400E8B6F64EC35
:1057D80008F088C0A5F089C0A6F08AC0A7F08BC0E1
:1057E800A8F0000E156E000E166E200E176E410EF4
:1057F800186EA1C011F0A2C012F0A3C013F0A4C08B
:1058080014F03DEC22F011C059F012C05AF013C048
:105818005BF014C05CF0CBEC2CF059C02AF05AC0F5
:105828002BF0000E2BBEFF0E2C6E2D6E010EF9EC28
:1058380029F02AC03CF02BC03DF02CC03EF02DC012
:105848003FF0A5C038F0A6C039F0A7C03AF0A8C00C
:105858003BF012EC32F038C0A9F039C0AAF03AC0D7
:10586800ABF03BC0ACF0A9C059F0AAC05AF0ABC02D
:105878005BF0ACC05CF0CBEC2CF059C0DEF05AC049
:10588800DFF012000001D051D8B44DEF2CF04FEFEB
:105898002CF072EF2CF0000ED06F060E076E000E83
:1058A80094EC32F0BDC001F0BEC002F0000E046EF0
:1058B8000A0E036E8BEC30F00150300FC6EC31F05D
:1058C800BDC001F0BEC002F0000E046E0A0E036EE9
:1058D80033EC31F00150300FC6EC31F00001CF51FC
:1058E800D8B479EF2CF07BEF2CF09EEF2CF0000E63
:1058F800CF6F030E076E000E94EC32F0BFC001F0BC
:10590800C0C002F0000E046E0A0E036E8BEC30F07D
:105918000150300FC6EC31F0BFC001F0C0C002F03A
:10592800000E046E0A0E036E33EC31F00150300F96
:10593800C6EC31F00001CE51D8B4A5EF2CF0A7EF9A
:105948002CF0CAEF2CF0000ECE6F000E076E000E82
:1059580094EC32F0C1C001F0C2C002F0000E046E37
:105968000A0E036E8BEC30F00150300FC6EC31F0AC
:10597800C1C001F0C2C002F0000E046E0A0E036E30
:1059880033EC31F00150300FC6EC31F012005B34CB
:105998005C345E6E5E50D8A4D4EF2CF0D6EF2CF0B9
:1059A800E0EF2CF0000E596E000E5A6E000E5B6E82
:1059B800000E5C6E4EEF2DF059C099F05AC09AF067
:1059C8005BC09BF05CC09CF0200EF1EF2CF0000156
:1059D800D8909C339B339A339933E82EEBEF2CF015
:1059E80099515D6E5B8EFF0E5916FF0E5A16FF0E0B
:1059F8005B16000E5C16960E5E5E5EBE08EF2DF01E
:105A080006EF2DF01EEF2DF05E50800A970FD8B0EC
:105A180010EF2DF012EF2DF014EF2DF0D6EF2CF043
:105A2800D8905C325B325A3259325E3E14EF2DF018
:105A380036EF2DF01F0E5E6424EF2DF026EF2DF0CB
:105A48002EEF2DF0D6EF2CF0D89059365A365B361B
:105A58005C365E065E50D8A434EF2DF036EF2DF09C
:105A680028EF2DF05D50D8B43CEF2DF03EEF2DF02F
:105A780046EF2DF05C1E5B1E5A1E596C000E5A2212
:105A88005B225C2259C059F05AC05AF05BC05BF0E7
:105A98005CC05CF01200000E4014486E000E411409
:105AA800496E800E42144A6E7F0E43144B6E485066
:105AB80049104A104B10D8A464EF2DF066EF2DF072
:105AC8006EEF2DF0000E406E000E416E000E426E1D
:105AD800000E436E000E4414486E000E4514496EC5
:105AE800800E46144A6E7F0E47144B6E485049107C
:105AF8004A104B10D8A483EF2DF085EF2DF08DEFD1
:105B08002DF0000E446E000E456E000E466E000E1F
:105B1800476E43AE92EF2DF094EF2DF09DEF2DF0F0
:105B2800406C411ED8B0412A421ED8B0422A800E8D
:105B3800435647AEA2EF2DF0A4EF2DF0ADEF2DF0B8
:105B4800446C451ED8B0452A461ED8B0462A800E59
:105B58004756000E401A000E411A000E421A800ED7
:105B6800431A000E441A000E451A000E461A800EFB
:105B7800471A4450405C4550415846504258475097
:105B88004358D8B0CAEF2DF0CCEF2DF0CFEF2DF061
:105B9800D890D0EF2DF0D8801200010E0001D96FF7
:105BA800000EBA6F000EB96F000EB86F000EB76F17
:105BB800000EB66F000EB56F800EECEC31F0B5C07C
:105BC80001F0B6C002F0000E046E0A0E036E8BECF4
:105BD80030F00150300FC6EC31F0B5C001F0B6C05E
:105BE80002F0000E046E0A0E036E33EC31F0015021
:105BF800300FC6EC31F03A0EC6EC31F0B7C001F008
:105C0800B8C002F0000E046E0A0E036E8BEC30F082
:105C18000150300FC6EC31F0B7C001F0B8C002F047
:105C2800000E046E0A0E036E33EC31F00150300F93
:105C3800C6EC31F03A0EC6EC31F0B9C001F0BAC08A
:105C480002F0000E046E0A0E036E8BEC30F0015069
:105C5800300FC6EC31F0B9C001F0BAC002F0000E46
:105C6800046E0A0E036E33EC31F00150300FC6ECAF
:105C780031F0BE0E076E100E086E75EC32F0120091
:105C8800000E066E02BE4DEF2EF04BEF2EF053EFD6
:105C98002EF0016C021ED8B0022A010E066E04BE58
:105CA8005AEF2EF058EF2EF05EEF2EF0036C041E24
:105CB800D8B0042A03500410D8B465EF2EF067EF6B
:105CC8002EF08BEF2EF0010E056E6FEF2EF0D890B0
:105CD80003360436052A04AE74EF2EF076EF2EF064
:105CE8006BEF2EF00350015C04500258D8A07FEFF0
:105CF8002EF081EF2EF085EF2EF00350015E045058
:105D0800025AD89004320332052E76EF2EF0065050
:105D1800D8B491EF2EF093EF2EF097EF2EF0016CA0
:105D2800021ED8B0022A01C001F002C002F012001F
:105D38000600F2AAA2EF2EF0A4EF2EF0EEEF2EF05E
:105D4800F2A4A9EF2EF0ABEF2EF0EEEF2EF0F294C6
:105D5800DEC0D6FFDFC0D7FF010E0001D36FBB4BFB
:105D6800BC2BBC5109E1640EBB5DD8A0BEEF2EF080
:105D7800C0EF2EF0CAEF2EF0000EBC6F000EBB6F06
:105D8800BD4BBE2B010ED06F010ECD6FBC5109E18A
:105D9800470EBB5DD8A0D3EF2EF0D5EF2EF0D7EF8E
:105DA8002EF0010ED26FFCEC30F0040E0001CB197E
:105DB800CC11D8A4E2EF2EF0E4EF2EF0EEEF2EF0A7
:105DC800D951D8A4EAEF2EF0ECEF2EF0EEEF2EF03A
:105DD800B94BBA2B5F92110025EC33F00001D305C3
:105DE800D8A4F9EF2EF0FBEF2EF000EF2FF052ECD5
:105DF80024F0000E0001D36FC5EC30F018EF2FF03F
:105E080046EC2CF0F2EF2EF0C7EC2FF0F2EF2EF06C
:105E180082EC2FF0F2EF2EF03DEC2FF0F2EF2EF0A7
:105E280050EC30F0F2EF2EF0CBC0ADF0CCC0AEF0BD
:105E38000001AE51000AD8B424EF2FF0F2EF2EF093
:105E4800AD51000AD8B404EF2FF0010AD8B408EF16
:105E58002FF0030AD8B40CEF2FF0010AD8B410EFD2
:105E68002FF0070AD8B414EF2FF0F2EF2EF007EF57
:105E780000F046EC2CF00001D205D8A446EF2FF034
:105E880048EF2FF055EF2FF0C305C411D8A44FEFFA
:105E98002FF051EF2FF055EF2FF0000ED26F0CECD2
:105EA80030F00001CD05D8A45CEF2FF05EEF2FF0A5
:105EB80081EF2FF0000ECD6F060E076E000E94ECEA
:105EC80032F0BDC001F0BEC002F0000E046E0A0E32
:105ED800036E8BEC30F00150300FC6EC31F0BDC0D2
:105EE80001F0BEC002F0000E046E0A0E036E33EC21
:105EF80031F00150300FC6EC31F0120046EC2CF0B6
:105F08000001D205D8A48BEF2FF08DEF2FF09AEF78
:105F18002FF0C305C411D8A494EF2FF096EF2FF0FB
:105F28009AEF2FF0000ED26F0CEC30F00001CD0587
:105F3800D8A4A1EF2FF0A3EF2FF0C6EF2FF0000E9B
:105F4800CD6F030E076E000E94EC32F0BFC001F067
:105F5800C0C002F0000E046E0A0E036E8BEC30F027
:105F68000150300FC6EC31F0BFC001F0C0C002F0E4
:105F7800000E046E0A0E036E33EC31F00150300F40
:105F8800C6EC31F0120046EC2CF00001D205D8A482
:105F9800D0EF2FF0D2EF2FF0DFEF2FF0C305C411B1
:105FA800D8A4D9EF2FF0DBEF2FF0DFEF2FF0000EA2
:105FB800D26F0CEC30F00001CD05D8A4E6EF2FF03D
:105FC800E8EF2FF00BEF30F0000ECD6F000E076EEC
:105FD800000E94EC32F0C1C001F0C2C002F0000E15
:105FE800046E0A0E036E8BEC30F00150300FC6ECD5
:105FF80031F0C1C001F0C2C002F0000E046E0A0EFA
:10600800036E33EC31F00150300FC6EC31F0120062
:1060180035EF30F0000E076E000E94EC32F0C30E30
:10602800076E100E086E75EC32F04FEF30F0030E6D
:10603800076E000E94EC32F0C30E076E100E086E59
:1060480075EC32F04FEF30F0060E076E000E94EC50
:1060580032F0C30E076E100E086E75EC32F04FEF7B
:1060680030F0CBC00CF0CCC00DF00D50000AD8B405
:1060780040EF30F04FEF30F00C50010AD8B40EEF7B
:1060880030F0030AD8B41BEF30F0010AD8B428EF77
:1060980030F04FEF30F0120074EF30F0D605D8A48E
:1060A80058EF30F05AEF30F08AEF30F0000ED96F29
:1060B800000ED66F010ED16F8AEF30F0D605D8A446
:1060C80068EF30F06AEF30F070EF30F0010ED96F02
:1060D800000ED66F000ED16F11EC29F08AEF30F068
:1060E8000001D1510C6E0D6A0D50000AD8B47FEF33
:1060F80030F08AEF30F00C50000AD8B452EF30F08C
:10610800010AD8B462EF30F08AEF30F01200000EC6
:10611800066E000E056E03500410D8B496EF30F0EA
:1061280098EF30F0C0EF30F0010E076EA0EF30F0BE
:10613800D89003360436072A04AEA5EF30F0A7EF4F
:1061480030F09CEF30F0D890053606360350015CED
:1061580004500258D8A0B3EF30F0B5EF30F0BAEFE2
:1061680030F00350015E0450025A0580D890043282
:106178000332072EA7EF30F005C001F006C002F089
:1061880012000001BE5109E13C0EBD5DD8A0CFEF61
:1061980030F0D1EF30F0D9EF30F0000EBE6F000EC6
:1061A800BD6FBF4BC02B010ECF6FC05109E13C0E34
:1061B800BF5DD8A0E2EF30F0E4EF30F0ECEF30F064
:1061C800000EC06F000EBF6FC14BC22B010ECE6F09
:1061D800C25109E1180EC15DD8A0F5EF30F0F7EF14
:1061E80030F0FBEF30F0000EC26F000EC16F1200EE
:1061F8000001BE5109E13C0EBD5DD8A006EF31F0AB
:1062080008EF31F010EF31F0000EBE6F000EBD6FD9
:10621800BF4BC02B010ECF6FC05109E13C0EBF5DD3
:10622800D8A019EF31F01BEF31F023EF31F0000E59
:10623800C06F000EBF6FC14BC22B010ECE6FC25193
:1062480009E1180EC15DD8A02CEF31F02EEF31F026
:1062580032EF31F0000EC26F000EC16F1200035012
:106268000410D8B43AEF31F03CEF31F060EF31F080
:10627800010E056E44EF31F0D89003360436052A36
:1062880004AE49EF31F04BEF31F040EF31F00350FD
:10629800015C04500258D8A054EF31F056EF31F0A9
:1062A8005AEF31F00350015E0450025AD89004327C
:1062B8000332052E4BEF31F001C001F002C002F0AD
:1062C8001200016E01C003F0000E026E01AE6FEF06
:1062D80031F071EF31F074EF31F08B8A75EF31F0F6
:1062E8008B9A8BA87AEF31F07CEF31F080EF31F0A8
:1062F800D880033683EF31F003500324036E8B8676
:1063080000F000F000F000F000F000F08B96D8905C
:106318000136022A070E026494EF31F096EF31F04D
:106328006AEF31F012004EEC33F0979C8E9C0D0E04
:10633800076EFC0EE82EFED7072EFCD78E8C000EBB
:1063480034EC33F0010E34EC33F0000E046E120E10
:1063580041EC33F0270E076EF50EE82EFED7072E18
:10636800FCD700F0320EECEC31F03C0EECEC31F0E6
:106378000C0EECEC31F0010EECEC31F0060EECEC0E
:1063880031F01200066E420EE82EFED700D0800EC5
:10639800046E120E41EC33F0060EE82EFED700D044
:1063A80006C004F0130E41EC33F0060EE82EFED7BB
:1063B80000D0C00E046E120E41EC33F0060EE82E2B
:1063C800FED700D0000E046E120E41EC33F012001E
:1063D800066E420EE82EFED700D0000E046E120E96
:1063E80041EC33F0060EE82EFED700D006C004F0CC
:1063F800130E41EC33F0060EE82EFED700D0400E07
:10640800046E120E41EC33F0060EE82EFED700D0D3
:10641800000E046E120E41EC33F01200000E3C1A0E
:10642800000E3D1A000E3E1A800E3F1A38C001F0C9
:1064380039C002F03AC003F03BC004F03CC005F09C
:106448003DC006F03EC007F03FC008F0DDEC1FF08D
:1064580001C038F002C039F003C03AF004C03BF084
:106468001200DAC0DBF0000E81B0010E0001DA6F15
:10647800DB51DA19D8A443EF32F045EF32F053EF8D
:1064880032F0DA51D8A44BEF32F04DEF32F050EF42
:1064980032F0020E54EF32F0010E54EF32F0000EDB
:1064A8001200DCC0DDF0000E80BA010E0001DC6FC6
:1064B800DD51DC19D8A463EF32F065EF32F073EFE9
:1064C80032F0DC51D8A46BEF32F06DEF32F070EFA0
:1064D80032F0020E74EF32F0010E74EF32F0000E5B
:1064E800120083EF32F007C0F6FF08C0F7FF000E76
:1064F800F86E0800F550C6EC31F0074A082A07C0C4
:10650800F6FF08C0F7FF000EF86E0800F550000906
:10651800D8A491EF32F093EF32F077EF32F0120017
:10652800086E0850D8B49BEF32F09DEF32F0A5EF1B
:1065380032F0C00E0724096E0A6A000E0A22ABEF79
:1065480032F0800E0724096E0A6A000E0A2209C07A
:106558000BF00B50ECEC31F012000150021003105C
:106568000410D8B4BAEF32F0BCEF32F0C4EF32F016
:10657800000E011A000E021A000E031A800E041AE9
:1065880001C001F002C002F003C003F004C004F02F
:106598001200C40EF66E660EF76E000EF86E00EE70
:1065A800D9F010EE05F00900F5CFEEFFE550E15007
:1065B800FAE100EEAFF02A0EEE6AE806FDE15F9020
:1065C8005F920001F0EF2EF0AFC005F0B0C006F00A
:1065D800B1C007F0B2C008F001C005F002C006F073
:1065E80003C007F004C008F0089E05C001F006C00B
:1065F80002F007C003F008C004F01200000E956E08
:10660800000E8C6E000E896EF30E926E000E8A6E6E
:106618009368000E8B6ED70E946E0F0EC16E12002B
:10662800FF0E056EFF0E066EFF0E076E7F0E086EDC
:1066380005C001F006C002F007C003F008C004F06E
:1066480012005FEC33F002EC33F057EC33F05CEC03
:1066580033F0A5EC2BF097EC31F0D3EC2AF01200D4
:10666800046E8994400E65EC31F0045065EC31F00D
:10667800000E65EC31F089841200056E8994400E95
:1066880065EC31F0055065EC31F0045065EC31F003
:106698008984120092949488949A949689848B8819
:1066A8008B9A8B961200F28EF28CF28AF294120078
:1066B800880ED56E1200700ED36E12000101010112
:0166C80001D0
:020000040020DA
:08000000FFFFFFFFFFFFFFFF00
:020000040030CA
:0E000000FF09191EF38381FFFFC0FFE0FF40E0
:00000001FF
