:020000040000FA
:0400000007EF00F016
:0A0008005D82A0ED2CF03CEF2CF01F
:101000000000000000DCCFD1350000000000C0155A
:101010003F6042A20D70A5EC363BAAB83F4F387630
:101020003F3CAA38338CBEBF350072313F18723155
:101030003F4CBB31330EEADDB555B38A38610B3610
:10104000BBABAA2A3E42F1533E55326C3E05A38B00
:101050003EABAAAA3EB76DDB3E9A99193F6042A209
:101060000DCAF249710000804B0000803F0000C0B3
:0F1070003F00AAB83FC623F6B80040763F000005
:1010800088C0B8F189C0B9F18AC0BAF18BC0BBF190
:10109000B8C160F1B9C161F1BAC162F1BBC163F11C
:1010A0008CC0B8F18DC0B9F18EC0BAF18FC0BBF160
:1010B000B8C17CF1B9C17DF1BAC17EF1BBC17FF18C
:1010C000FF0E01016015A86FFF0E6115A96FFF0EDD
:1010D0006215AA6F7F0E6315AB6FFF0E7C15906FC4
:1010E000FF0E7D15916FFF0E7E15926F7F0E7F159F
:1010F000936F9051911192119311D8A482EF08F03F
:1011000084EF08F08FEF08F0000E0001886F000EEA
:10111000896F800E8A6F3F0E8B6F58EF1DF0800E27
:10112000621909E13F0E631960116111D8A49BEFA8
:1011300008F09DEF08F0A8EF08F0000E0001886F9E
:10114000000E896F800E8A6F3F0E8B6F58EF1DF077
:10115000ABBFB9EF08F0A805000EA959800EAA5937
:101160007F0EAB59D8B0B7EF08F0B9EF08F0CAEF6F
:1011700008F093BFC8EF08F09005000E9159800E5B
:1011800092597F0E9359D8A0C8EF08F0CAEF08F023
:10119000E6EF08F088C003F089C004F08AC005F0CB
:1011A0008BC006F08CC007F08DC008F08EC009F02F
:1011B0008FC00AF0B9EC1FF003C088F004C089F0BA
:1011C00005C08AF006C08BF058EF1DF0000E506F7E
:1011D000000E516F000E526F000E536F63BFF5EF9C
:1011E00008F0F3EF08F0C1EF09F093BF01EF09F049
:1011F000800E925D4B0E9359D8A001EF09F003EFDA
:1012000009F00DEF09F0020E506F000E516F000E45
:10121000526F000E536FC1EF09F093BF19EF09F041
:10122000800E925D3F0E9359D8A019EF09F01BEF85
:1012300009F0C1EF09F0170E0001906F90C191F015
:1012400091C192F092C193F093C194F090672BEF0B
:1012500009F033EF09F0943594339333923391339B
:10126000902F26EF09F0810E000191250101A06F5A
:10127000FF0E000192210101A16FFF0E00019321D9
:101280000101A26FFF0E000194210101A36FA05183
:1012900017080001906F90C191F091C192F092C136
:1012A00093F093C194F0906758EF09F060EF09F064
:1012B00094359433933392339133902F53EF09F055
:1012C00091C0ACF192C0ADF193C0AEF194C0AFF15A
:1012D0000101A05117080001906FACC191F0ADC1A0
:1012E00092F0AEC193F0AFC194F0902B7DEF09F076
:1012F000D8909137923793379437902F78EF09F041
:10130000010190510001911913E101019151000176
:1013100092190EE1010192510001931909E10101B5
:10132000935100019419D8A498EF09F09AEF09F0AD
:10133000C1EF09F0010E0101AC150001906F000E24
:101340000101AD150001916F000E0101AE15000104
:10135000926F000E0101AF150001936F90510208CA
:101360000101506F000E000191550101516F000EF7
:10137000000192550101526F000E000193550101C9
:10138000536F800E0101921909E17F0E931990119C
:101390009111D8A4CEEF09F0D0EF09F03CEF0AF09C
:1013A000800EAA1909E13F0EAB19A811A911D8A402
:1013B000DCEF09F0DEEF09F0E9EF09F0000E0001C3
:1013C000886F000E896F800E8A6F3F0E8B6F58EF0B
:1013D0001DF0ABBFF8EF09F0A805000EA959800E6B
:1013E000AA593F0EAB59D8A0F8EF09F0FAEF09F06F
:1013F00016EF0AF07FBF01EF0AF0FFEF09F00CEFE4
:101400000AF0000E0001886F000E896F000E8A6FCF
:10141000000E8B6F58EF1DF08CC088F08DC089F0E6
:101420008EC08AF08FC08BF058EF1DF07FBF1DEF8C
:101430000AF01BEF0AF031EF0AF08CC003F08DC008
:1014400004F08EC005F08FC006F059EC2CF003C0FC
:1014500088F004C089F005C08AF006C08BF058EF10
:101460001DF0000E0001886F000E896F000E8A6F5C
:10147000000E8B6F58EF1DF0800E921909E13F0EA0
:10148000931990119111D8A448EF0AF04AEF0AF08D
:1014900077EF0AF07FBF51EF0AF04FEF0AF06DEFE0
:1014A0000AF0000E426E000E436E800E446E3F0E38
:1014B000456E88C046F089C047F08AC048F08BC0AE
:1014C00049F02EEC24F042C088F043C089F044C0BB
:1014D0008AF045C08BF058EF1DF088C088F089C0B5
:1014E00089F08AC08AF08BC08BF058EF1DF0400E57
:1014F0007F197C117D117E11D8A481EF0AF083EF52
:101500000AF09FEF0AF088C013F089C014F08AC077
:1015100015F08BC016F088C017F089C018F08AC08B
:1015200019F08BC01AF019EC22F013C088F014C027
:1015300089F015C08AF016C08BF058EF1DF03F0EF1
:101540007F197C117D117E11D8A4A9EF0AF0ABEFB1
:101550000AF0C6EF0AF063BFB0EF0AF0B2EF0AF08C
:10156000C6EF0AF088C04EF089C04FF08AC050F034
:101570008BC051F059EC1DF04EC088F04FC089F07F
:1015800050C08AF051C08BF058EF1DF088C003F0B6
:1015900089C004F08AC005F08BC006F075EC2CF011
:1015A00003C070F104C071F105C072F106C073F19F
:1015B000800E0101AA190BE17F0EAB19A811A91128
:1015C000D8B4E5EF0AF0E7EF0AF000EF0BF0A8510E
:1015D000A911AA11AB11D8B4F0EF0AF0F2EF0AF09A
:1015E00000EF0BF0800EAA1909E13F0EAB19A8110C
:1015F000A911D8A4FEEF0AF000EF0BF0CBEF0BF02F
:1016000070C1B4F171C1B5F172C1B6F173C1B7F176
:101610007FBF0FEF0BF00DEF0BF029EF0BF0000E7B
:10162000426E000E436E800E446E3F0E456EB4C196
:1016300046F0B5C147F0B6C148F0B7C149F02EEC4D
:1016400024F042C0B4F143C0B5F144C0B6F145C086
:10165000B7F1010163BF31EF0BF02FEF0BF0C1EFDA
:101660000BF0000EA8250001906F000E0101A921CA
:101670000001916F800E0101AA210001926FC00E3E
:101680000101AB210001936F010150510001901144
:10169000946F0101515100019111956F0101525157
:1016A00000019211966F0101535100019311976F40
:1016B0009451951196119711D8A461EF0BF063EF37
:1016C0000BF0A3EF0BF0B4C13EF0B5C13FF0B6C1D3
:1016D00040F0B7C141F0B4C13AF0B5C13BF0B6C17A
:1016E0003CF0B7C13DF09AEC2BF03AC042F03BC061
:1016F00043F03CC044F03DC045F0B4C13EF0B5C13C
:101700003FF0B6C140F0B7C141F0B4C13AF0B5C145
:101710003BF0B6C13CF0B7C13DF09AEC2BF03AC0BB
:1017200046F03BC047F03CC048F03DC049F02EECCD
:1017300024F042C0B4F143C0B5F144C0B6F145C095
:10174000B7F1C1EF0BF001015005511152115311C6
:10175000D8A4ADEF0BF0AFEF0BF0C1EF0BF0B4C1BD
:1017600003F0B5C104F0B6C105F0B7C106F059ECFD
:101770002CF003C0B4F104C0B5F105C0B6F106C049
:10178000B7F1B4C188F0B5C189F0B6C18AF0B7C16C
:101790008BF058EF1DF0000E846F000E856F800EE9
:1017A000866F3F0E876F63BFDAEF0BF0D8EF0BF059
:1017B00038EF0CF05051511152115311D8A4E3EFEE
:1017C0000BF0E5EF0BF025EF0CF088C03EF089C080
:1017D0003FF08AC040F08BC041F088C03AF089C029
:1017E0003BF08AC03CF08BC03DF09AEC2BF03AC045
:1017F00042F03BC043F03CC044F03DC045F088C0DF
:101800003EF089C03FF08AC040F08BC041F088C0F4
:101810003AF089C03BF08AC03CF08BC03DF09AECB6
:101820002BF03AC046F03BC047F03CC048F03DC00A
:1018300049F02EEC24F042C088F043C089F044C047
:101840008AF045C08BF058EF1DF050055111521130
:101850005311D8A42EEF0CF030EF0CF038EF0CF051
:10186000000E846F000E856F800E866FBF0E876F2F
:1018700093BF47EF0CF09005000E9159000E92595E
:101880004D0E9359D8A047EF0CF049EF0CF0CEEF76
:101890000EF0ABBF5BEF0CF0F80EA85DFF0EA95980
:1018A0007F0EAA593F0EAB59D8B059EF0CF05BEF41
:1018B0000CF0CEEF0CF07FBF60EF0CF062EF0CF09D
:1018C00098EF0CF0600E176E420E186EA20E196E95
:1018D0000D0E1A6E84C113F085C114F086C115F087
:1018E00087C116F019EC22F013C0A4F114C0A5F1C1
:1018F00015C0A6F116C0A7F1A4C113F0A5C114F03C
:10190000A6C115F0A7C116F0600E176E420E186E34
:10191000A20E196E0D0E1A6E19EC22F013C088F08B
:1019200014C089F015C08AF016C08BF058EF1DF076
:10193000CA0E176EF20E186E490E196E710E1A6EDF
:1019400084C113F085C114F086C115F087C116F06B
:1019500019EC22F013C0A4F114C0A5F115C0A6F132
:1019600016C0A7F1A4C113F0A5C114F0A6C115F0CB
:10197000A7C116F0CA0E176EF20E186E490E196E38
:10198000710E1A6E19EC22F013C088F014C089F0A1
:1019900015C08AF016C08BF058EF1DF0ABBFDEEF1C
:1019A0000CF0080EA85D000EA959800EAA593F0E32
:1019B000AB59D8A0DEEF0CF0E0EF0CF05BEF0DF0D0
:1019C0007FBFEFEF0CF07F517E117D1106E17C05AA
:1019D000D8B0EDEF0CF0EFEF0CF025EF0DF0600E4E
:1019E000176E420E186EA20E196E0D0E1A6E84C17D
:1019F00013F085C114F086C115F087C116F019ECFB
:101A000022F013C0A4F114C0A5F115C0A6F116C0B0
:101A1000A7F1A4C113F0A5C114F0A6C115F0A7C188
:101A200016F0600E176E420E186EA20E196E0D0E95
:101A30001A6E19EC22F013C088F014C089F015C09A
:101A40008AF016C08BF058EF1DF0CA0E176EF20E1A
:101A5000186E490E196E710E1A6E84C113F085C18D
:101A600014F086C115F087C116F019EC22F013C0EE
:101A7000A4F114C0A5F115C0A6F116C0A7F1A4C128
:101A800013F0A5C114F0A6C115F0A7C116F0CA0E37
:101A9000176EF20E186E490E196E710E1A6E19EC51
:101AA00022F013C088F014C089F015C08AF016C067
:101AB0008BF058EF1DF070C103F071C104F072C1DA
:101AC00005F073C106F0000E076E000E086E800E62
:101AD000096EBF0E0A6EB9EC1FF003C0B0F104C06E
:101AE000B1F105C0B2F106C0B3F1000E176E000EE1
:101AF000186E800E196E3E0E1A6EB0C113F0B1C191
:101B000014F0B2C115F0B3C116F019EC22F013C0F5
:101B10003EF014C03FF015C040F016C041F0AB0ECF
:101B20003A6EAA0E3B6EAA0E3C6E3E0E3D6E9AECCD
:101B30002BF03AC0A4F13BC0A5F13CC0A6F13DC0DA
:101B4000A7F1B0C117F0B1C118F0B2C119F0B3C11B
:101B50001AF0B0C113F0B1C114F0B2C115F0B3C1A5
:101B600016F019EC22F013C058F114C059F115C049
:101B70005AF116C05BF1B0C117F0B1C118F0B2C193
:101B800019F0B3C11AF0A4C113F0A5C114F0A6C195
:101B900015F0A7C116F019EC22F013C03EF014C0E6
:101BA0003FF015C040F016C041F0000E3A6E000E36
:101BB0003B6E000E3C6E3F0E3D6E9AEC2BF03AC031
:101BC00048F13BC049F13CC04AF13DC04BF158C11E
:101BD00013F059C114F05AC115F05BC116F048C199
:101BE00017F049C118F04AC119F04BC11AF019ECAD
:101BF00022F013C044F114C045F115C046F116C0DF
:101C000047F1B0C113F0B1C114F0B2C115F0B3C1C6
:101C100016F0000E176EAA0E186EB80E196E3F0E53
:101C20001A6E19EC22F013C074F114C075F115C0CE
:101C300076F116C077F1700E176EA50E186EEC0EC9
:101C4000196E360E1A6EB0C113F0B1C114F0B2C1E4
:101C500015F0B3C116F019EC22F013C03AF014C01D
:101C60003BF015C03CF016C03DF03B0E176EAA0EBF
:101C7000186EB80E196E3F0E1A6E44C113F045C1AE
:101C800014F046C115F047C116F019EC22F013C04C
:101C90003EF014C03FF015C040F016C041F09AEC81
:101CA0002BF03AC078F13BC079F13CC07AF13DC0ED
:101CB0007BF174C103F075C104F076C105F077C102
:101CC00006F078C107F079C108F07AC109F07BC14C
:101CD0000AF0B9EC1FF003C080F104C081F105C027
:101CE00082F106C083F180C1B8F181C1B9F182C12E
:101CF000BAF183C1BBF1B8C194F1B9C195F1BAC1D0
:101D000096F1BBC197F1000E01019415B86FF00E6A
:101D10009515B96FFF0E9615BA6FFF0E9715BB6F2D
:101D2000B8C180F1B9C181F1BAC182F1BBC183F1FF
:101D300074C13EF075C13FF076C140F077C141F00B
:101D400080C13AF081C13BF082C13CF083C13DF0DB
:101D50009AEC2BF03AC098F13BC099F13CC09AF153
:101D60003DC09BF178C13AF079C13BF07AC13CF0BB
:101D70007BC13DF098C13EF099C13FF09AC140F05F
:101D80009BC141F09AEC2BF03AC01CF13BC01DF115
:101D90003CC01EF13DC01FF14EEF16F0000E886FE3
:101DA000000E896F000E8A6F000E8B6FABBFE4EFE1
:101DB0000EF0AB5107E1800EAA5DD8B0E2EF0EF055
:101DC000E4EF0EF017EF0FF070C113F071C114F0D3
:101DD00072C115F073C116F0000E176E000E186E6A
:101DE000800E196E4B0E1A6E19EC22F013C070F1B2
:101DF00014C071F115C072F116C073F1E80E010143
:101E00008827FF0E8923FF0E8A23FF0E8B2370C1C4
:101E1000B8F171C1B9F172C1BAF173C1BBF1B8C106
:101E2000A8F1B9C1A9F1BAC1AAF1BBC1ABF1170EB2
:101E30000001906FA8C191F0A9C192F0AAC193F0DE
:101E4000ABC194F0906727EF0FF02FEF0FF09435B0
:101E50009433933392339133902F22EF0FF0810E0E
:101E600000019125956FFF0E9221966FFF0E932131
:101E7000976FFF0E9421986F9551010188270001FB
:101E80009651010189230001975101018A23000124
:101E9000985101018B23FF0EA815AC6FFF0EA915F9
:101EA000AD6F7F0EAA15AE6F000EAB15AF6F000EB3
:101EB000AC11A86F000EAD11A96F800EAE11AA6F04
:101EC0003F0EAF11AB6FAFBF75EF0FF0AF510BE12E
:101ED000720EAC5DC40EAD591C0EAE59D8B073EF86
:101EE0000FF075EF0FF07FEF0FF0000EA06F000EF8
:101EF000A16F000EA26F000EA36FB1EF0FF0AFBF86
:101F000091EF0FF0AF510BE1D70EAC5DB30EAD59B1
:101F10005D0EAE59D8B08FEF0FF091EF0FF09BEF41
:101F20000FF0010EA06F000EA16F000EA26F000E49
:101F3000A36FB1EF0FF0000EA06F000EA16F000EA7
:101F4000A26F000EA36F010E8827000E89238A233B
:101F50008B23000EA827000EA923800EAA23FF0EB4
:101F6000AB23A8C1B8F1A9C1B9F1AAC1BAF1ABC1FB
:101F7000BBF1B8C170F1B9C171F1BAC172F1BBC1A5
:101F800073F170C13AF071C13BF072C13CF073C1A2
:101F90003DF0A0C190F0A1C191F00001D890903720
:101FA0009137D89090379137690E9025F66E100EC4
:101FB0009121F76EF86A000EF8220900F5CF3EF085
:101FC0000900F5CF3FF00900F5CF40F00A00F5CF4A
:101FD00041F09AEC2BF03AC074F13BC075F13CC073
:101FE00076F13DC077F1000E426E000E436E800E1A
:101FF000446E3F0E456E70C107F071C108F072C1AA
:1020000009F073C10AF0A0C190F0A1C191F00001E4
:10201000D89090379137D89090379137690E9025A6
:10202000F66E100E9121F76EF86A000EF822090084
:10203000F5CF03F00900F5CF04F00900F5CF05F066
:102040000A00F5CF06F0B9EC1FF003C046F004C05B
:1020500047F005C048F006C049F02EEC24F042C01D
:1020600078F143C079F144C07AF145C07BF174C185
:1020700013F075C114F076C115F077C116F078C170
:1020800017F079C118F07AC119F07BC11AF019EC78
:1020900022F013C054F114C055F115C056F116C00A
:1020A00057F154C16CF155C16DF156C16EF157C174
:1020B0006FF16CC1B8F16DC1B9F16EC1BAF16FC108
:1020C000BBF1B8C194F1B9C195F1BAC196F1BBC1E8
:1020D00097F1000E01019415B86FF00E9515B96FC8
:1020E000FF0E9615BA6FFF0E9715BB6FB8C16CF156
:1020F000B9C16DF1BAC16EF1BBC16FF1A8C190F069
:10210000A9C191F0AAC192F0ABC193F0000193353F
:102110009333923391339033000E9015946FF00EF9
:102120009115956FFF0E9215966FFF0E9315976F91
:10213000000E94110101946F000E00019511010130
:10214000956F000E000196110101966F200E00019F
:1021500097110101976FA0C190F0A1C191F0A2C1A8
:1021600092F0A3C193F0150ED890000190379137EB
:1021700092379337E82EB4EF10F00101945100012B
:102180009025946F0101955100019121956F0101F6
:10219000965100019221966F010197510001932100
:1021A000976F000E94250101B86F000E0001952174
:1021B0000101B96F400E000196210101BA6F000EB6
:1021C000000197210101BB6FB8C168F1B9C169F184
:1021D000BAC16AF1BBC16BF1A0C190F0A1C191F08D
:1021E0000001D89090379137D89090379137690E89
:1021F0009025F66E100E9121F76EF86A000EF82207
:102200000900F5CF3EF00900F5CF3FF00900F5CF0A
:1022100040F00A00F5CF41F068C13AF069C13BF0E7
:102220006AC13CF06BC13DF09AEC2BF03AC098F1DA
:102230003BC099F13CC09AF13DC09BF170C13AF0AE
:1022400071C13BF072C13CF073C13DF098C13EF0EA
:1022500099C13FF09AC140F09BC141F09AEC2BF03C
:102260003AC034F13BC035F13CC036F13DC037F1E6
:1022700068C117F069C118F06AC119F06BC11AF092
:102280006CC113F06DC114F06EC115F06FC116F082
:1022900019EC22F013C03EF014C03FF015C040F01E
:1022A00016C041F074C13AF075C13BF076C13CF004
:1022B00077C13DF09AEC2BF03AC098F13BC099F110
:1022C0003CC09AF13DC09BF134C117F035C118F004
:1022D00036C119F037C11AF06CC113F06DC114F09A
:1022E0006EC115F06FC116F019EC22F013C03EF06C
:1022F00014C03FF015C040F016C041F098C13AF04C
:1023000099C13BF09AC13CF09BC13DF09AEC2BF097
:102310003AC058F13BC059F13CC05AF13DC05BF1A5
:1023200058C113F059C114F05AC115F05BC116F031
:1023300078C117F079C118F07AC119F07BC11AF091
:1023400019EC22F013C030F114C031F115C032F194
:1023500016C033F154C113F055C114F056C115F035
:1023600057C116F054C117F055C118F056C119F0F5
:1023700057C11AF019EC22F013C08CF114C08DF182
:1023800015C08EF116C08FF1550E076E320E086E15
:102390006C0E096E3E0E0A6E420E176EF10E186E2E
:1023A000530E196E3E0E1A6E8CC113F08DC114F0CF
:1023B0008EC115F08FC116F019EC22F013C003F096
:1023C00014C004F015C005F016C006F0B9EC1FF0FB
:1023D00003C0A4F104C0A5F105C0A6F106C0A7F191
:1023E000050E076EA30E086E8B0E096E3E0E0A6E6A
:1023F0008CC117F08DC118F08EC119F08FC11AF081
:10240000A4C113F0A5C114F0A6C115F0A7C116F020
:1024100019EC22F013C003F014C004F015C005F04D
:1024200016C006F0B9EC1FF003C058F104C059F112
:1024300005C05AF106C05BF1AB0E076EAA0E086E1E
:10244000AA0E096E3E0E0A6E8CC117F08DC118F0EF
:102450008EC119F08FC11AF058C113F059C114F090
:102460005AC115F05BC116F019EC22F013C003F04D
:1024700014C004F015C005F016C006F0B9EC1FF04A
:1024800003C048F104C049F105C04AF106C04BF150
:10249000B70E076E6D0E086EDB0E096E3E0E0A6EED
:1024A0008CC117F08DC118F08EC119F08FC11AF0D0
:1024B00048C113F049C114F04AC115F04BC116F0E0
:1024C00019EC22F013C003F014C004F015C005F09D
:1024D00016C006F0B9EC1FF003C038F104C039F1A2
:1024E00005C03AF106C03BF19A0E076E990E086ED0
:1024F000190E096E3F0E0A6E8CC117F08DC118F0CF
:102500008EC119F08FC11AF038C113F039C114F01F
:102510003AC115F03BC116F019EC22F013C003F0DC
:1025200014C004F015C005F016C006F0B9EC1FF099
:1025300003C000F104C001F105C002F106C003F1BF
:102540008CC117F08DC118F08EC119F08FC11AF02F
:102550008CC113F08DC114F08EC115F08FC116F02F
:1025600019EC22F013C004F114C005F115C006F1F6
:1025700016C007F100C113F001C114F002C115F03B
:1025800003C116F004C117F005C118F006C119F017
:1025900007C11AF019EC22F013C04CF114C04DF130
:1025A00015C04EF116C04FF130C117F031C118F00F
:1025B00032C119F033C11AF054C107F055C108F007
:1025C00056C109F057C10AF06CC103F06DC104F0A7
:1025D0006EC105F06FC106F0B9EC1FF003C013F037
:1025E00004C014F005C015F006C016F019EC22F076
:1025F00013C05CF114C05DF115C05EF116C05FF14F
:102600004CC103F04DC104F04EC105F04FC106F0BE
:102610005CC107F05DC108F05EC109F05FC10AF05E
:10262000B9EC1FF003C04CF104C04DF105C04EF1F0
:1026300006C04FF16CC113F06DC114F06EC115F0FE
:102640006FC116F06CC117F06DC118F06EC119F0B2
:102650006FC11AF019EC22F013C08CF114C08DF187
:1026600015C08EF116C08FF1000E076E000E086EB9
:10267000400E096E400E0A6E8CC103F08DC104F04D
:102680008EC105F08FC106F0B9EC1FF003C05CF1FC
:1026900004C05DF105C05EF106C05FF15CC103F0EE
:1026A0005DC104F05EC105F05FC106F04CC107F0EA
:1026B0004DC108F04EC109F04FC10AF0B9EC1FF04E
:1026C00003C068F104C069F105C06AF106C06BF18E
:1026D00068C1B8F169C1B9F16AC1BAF16BC1BBF1A6
:1026E000B8C194F1B9C195F1BAC196F1BBC197F1E6
:1026F000000E01019415B86FF00E9515B96FFF0E1D
:102700009615BA6FFF0E9715BB6FB8C168F1B9C1C6
:1027100069F1BAC16AF1BBC16BF1000E076E000E20
:10272000086E400E096EC00E0A6E68C103F069C1E2
:1027300004F06AC105F06BC106F0B9EC1FF003C0EC
:102740003CF104C03DF105C03EF106C03FF18CC133
:102750003EF08DC13FF08EC140F08FC141F03CC1D1
:102760003AF03DC13BF03EC13CF03FC13DF09AEC38
:102770002BF03AC040F13BC041F13CC042F13DC0BA
:1027800043F14CC13AF04DC13BF04EC13CF04FC15A
:102790003DF040C13EF041C13FF042C140F043C175
:1027A00041F09AEC2BF03AC034F13BC035F13CC01B
:1027B00036F13DC037F16CC113F06DC114F06EC13C
:1027C00015F06FC116F068C117F069C118F06AC141
:1027D00019F06BC11AF019EC22F013C074F114C097
:1027E00075F115C076F116C077F168C117F069C1AF
:1027F00018F06AC119F06BC11AF030C113F031C181
:1028000014F032C115F033C116F019EC22F013C0E8
:1028100003F014C004F015C005F016C006F054C152
:1028200017F055C118F056C119F057C11AF034C14C
:1028300013F035C114F036C115F037C116F019EC9C
:1028400022F013C007F014C008F015C009F016C03C
:102850000AF0B9EC1FF003C078F104C079F105C0AB
:102860007AF106C07BF174C103F075C104F076C142
:1028700005F077C106F078C107F079C108F07AC198
:1028800009F07BC10AF0B9EC1FF003C09CF104C051
:102890009DF105C09EF106C09FF19CC1B8F19DC19C
:1028A000B9F19EC1BAF19FC1BBF1B8C194F1B9C1F0
:1028B00095F1BAC196F1BBC197F1000E01019415D3
:1028C000B86FF00E9515B96FFF0E9615BA6FFF0E23
:1028D0009715BB6FB8C19CF1B9C19DF1BAC19EF10A
:1028E000BBC19FF174C13EF075C13FF076C140F0AD
:1028F00077C141F09CC13AF09DC13BF09EC13CF0D4
:102900009FC13DF09AEC2BF03AC098F13BC099F191
:102910003CC09AF13DC09BF178C13AF079C13BF0DF
:102920007AC13CF07BC13DF098C13EF099C13FF0C7
:102930009AC140F09BC141F09AEC2BF03AC064F18F
:102940003BC065F13CC066F13DC067F19CC113F02E
:102950009DC114F09EC115F09FC116F0000E176EB8
:10296000400E186E760E196E3F0E1A6E19EC22F09C
:1029700013C020F114C021F115C022F116C023F1BB
:102980004F0E176E380E186E760E196E3F0E1A6EB9
:1029900064C113F065C114F066C115F067C116F08B
:1029A00019EC22F013C007F014C008F015C009F0AC
:1029B00016C00AF0C60E176E230E186EF60E196EAC
:1029C000B80E1A6E9CC113F09DC114F09EC115F093
:1029D0009FC116F019EC22F013C003F014C004F0EC
:1029E00015C005F016C006F0B9EC1FF003C05CF18D
:1029F00004C05DF105C05EF106C05FF15CC103F08B
:102A00005DC104F05EC105F05FC106F0A0C190F0A9
:102A1000A1C191F00001D89090379137D8909037AC
:102A20009137010E9025F66E100E9121F76EF86A1F
:102A3000000EF8220900F5CF07F00900F5CF08F0E5
:102A40000900F5CF09F00A00F5CF0AF0B9EC1FF044
:102A500003C024F104C025F105C026F106C027F10A
:102A600088C12CF089C12DF08AC12EF08BC12FF0C6
:102A7000010E15EC27F02CC0B0F12DC0B1F12EC025
:102A8000B2F12FC0B3F124C107F025C108F026C16F
:102A900009F027C10AF020C103F021C104F022C1CE
:102AA00005F023C106F0B9EC1FF003C05CF104C0CF
:102AB0005DF105C05EF106C05FF1A0C190F0A1C15B
:102AC00091F00001D89090379137D8909037913796
:102AD000090E9025F66E100E9121F76EF86A000E21
:102AE000F8220900F5CF07F00900F5CF08F009003A
:102AF000F5CF09F00A00F5CF0AF05CC103F05DC123
:102B000004F05EC105F05FC106F0B9EC1FF003C030
:102B100008F104C009F105C00AF106C00BF108C1B3
:102B200003F009C104F00AC105F00BC106F0B0C101
:102B300007F0B1C108F0B2C109F0B3C10AF0B9ECB5
:102B40001FF003C080F104C081F105C082F106C00E
:102B500083F180C1B8F181C1B9F182C1BAF183C1F9
:102B6000BBF1B8C194F1B9C195F1BAC196F1BBC13D
:102B700097F1000E01019415B86FF00E9515B96F1D
:102B8000FF0E9615BA6FFF0E9715BB6FB8C180F197
:102B9000B9C181F1BAC182F1BBC183F1B0C13EF0CC
:102BA000B1C13FF0B2C140F0B3C141F080C13AF0D1
:102BB00081C13BF082C13CF083C13DF09AEC2BF027
:102BC0003AC098F13BC099F13CC09AF13DC09BF1ED
:102BD000A0C190F0A1C191F00001D8909037913739
:102BE000D89090379137090E9025F66E100E9121EE
:102BF000F76EF86A000EF8220900F5CF3EF00900E2
:102C0000F5CF3FF00900F5CF40F00A00F5CF41F0D5
:102C100098C13AF099C13BF09AC13CF09BC13DF09C
:102C20009AEC2BF03AC040F13BC041F13CC042F17C
:102C30003DC043F120C13EF021C13FF022C140F030
:102C400023C141F040C13AF041C13BF042C13CF0E8
:102C500043C13DF09AEC2BF03AC00CF13BC00DF1B2
:102C60003CC00EF13DC00FF124C13AF025C13BF04C
:102C700026C13CF027C13DF00CC13EF00DC13FF034
:102C80000EC140F00FC141F09AEC2BF03AC01CF19C
:102C90003BC01DF13CC01EF13DC01FF18CC0B8F11E
:102CA0008DC0B9F18EC0BAF18FC0BBF1B8C194F13B
:102CB000B9C195F1BAC196F1BBC197F1000E0101FE
:102CC0009415B86FF00E9515B96FFF0E9615BA6F83
:102CD000FF0E9715BB6FB8C128F1B9C129F1BAC170
:102CE0002AF1BBC12BF180C117F081C118F082C15C
:102CF00019F083C11AF028C13EF029C13FF02AC162
:102D000040F02BC141F08CC03AF08DC03BF08EC03A
:102D10003CF08FC03DF09AEC2BF03AC013F03BC072
:102D200014F03CC015F03DC016F019EC22F013C0B1
:102D300010F114C011F115C012F116C013F110C139
:102D400003F011C104F012C105F013C106F01CC15B
:102D500017F01DC118F01EC119F01FC11AF08CC068
:102D600013F08DC014F08EC015F08FC016F019EC62
:102D700022F013C007F014C008F015C009F016C007
:102D80000AF0B9EC1FF003C064F104C065F105C09E
:102D900066F106C067F128C113F029C114F02AC1F9
:102DA00015F02BC116F080C117F081C118F082C157
:102DB00019F083C11AF019EC22F013C09CF114C071
:102DC0009DF115C09EF116C09FF164C103F065C16D
:102DD00004F066C105F067C106F09CC107F09DC113
:102DE00008F09EC109F09FC10AF0B9EC1FF003C0C2
:102DF000B4F104C0B5F105C0B6F106C0B7F1B4C175
:102E0000B8F1B5C1B9F1B6C1BAF1B7C1BBF1B8C13A
:102E1000ACF1B9C1ADF1BAC1AEF1BBC1AFF10101C5
:102E2000AFBF1FEF17F0AC05000EAD59000EAE5945
:102E3000430EAF59D8A01FEF17F021EF17F057EF4F
:102E400017F0CA0E176EF20E186E490E196E710E3B
:102E50001A6E84C113F085C114F086C115F087C1C4
:102E600016F019EC22F013C0A4F114C0A5F115C09E
:102E7000A6F116C0A7F1A4C113F0A5C114F0A6C114
:102E800015F0A7C116F0CA0E176EF20E186E490E95
:102E9000196E710E1A6E19EC22F013C088F014C06E
:102EA00089F015C08AF016C08BF058EF1DF0430E64
:102EB000AF19AC11AD11AE11D8A461EF17F063EFEB
:102EC00017F0D6EF17F09CC13EF09DC13FF09EC1B8
:102ED00040F09FC141F0B4C13AF0B5C13BF0B6C17A
:102EE0003CF0B7C13DF09AEC2BF03AC042F03BC049
:102EF00043F03CC044F03DC045F03C0E076EAA0EC6
:102F0000086E380E096E330E0A6E64C103F065C197
:102F100004F066C105F067C106F0B9EC1FF003C00C
:102F200046F004C047F005C048F006C049F09FECE9
:102F300029F0D8B09EEF17F0A0EF17F0A0EF18F02F
:102F4000CA0E176EF20E186E490E196E710E1A6EB9
:102F500084C113F085C114F086C115F087C116F045
:102F600019EC22F013C0A4F114C0A5F115C0A6F10C
:102F700016C0A7F1A4C113F0A5C114F0A6C115F0A5
:102F8000A7C116F0CA0E176EF20E186E490E196E12
:102F9000710E1A6E19EC22F013C088F014C089F07B
:102FA00015C08AF016C08BF058EF1DF0FF0EAC155F
:102FB0000001906FFF0E0101AD150001916FFF0E32
:102FC0000101AE150001926F7F0E0101AF150001E6
:102FD000936F93BFF8EF17F09005000E9159160EFE
:102FE0009259430E9359D8A0F8EF17F0FAEF17F063
:102FF00030EF18F0600E176E420E186EA20E196EAA
:103000000D0E1A6E84C113F085C114F086C115F03F
:1030100087C116F019EC22F013C0A4F114C0A5F179
:1030200015C0A6F116C0A7F1A4C113F0A5C114F0F4
:10303000A6C115F0A7C116F0600E176E420E186EED
:10304000A20E196E0D0E1A6E19EC22F013C088F044
:1030500014C089F015C08AF016C08BF058EF1DF02F
:10306000160E0101AE1909E1C30EAF19AC11AD1175
:10307000D8A43DEF18F03FEF18F0A0EF18F09CC176
:103080003EF09DC13FF09EC140F09FC141F0B4C1F0
:103090003AF0B5C13BF0B6C13CF0B7C13DF09AEC97
:1030A0002BF03AC042F03BC043F03CC044F03DC07E
:1030B00045F064C146F065C147F066C148F067C19C
:1030C00049F09FEC29F0D8A068EF18F06AEF18F0EB
:1030D000A0EF18F0600E176E420E186EA20E196E59
:1030E0000D0E1A6E84C113F085C114F086C115F05F
:1030F00087C116F019EC22F013C0A4F114C0A5F199
:1031000015C0A6F116C0A7F1A4C113F0A5C114F013
:10311000A6C115F0A7C116F0600E176E420E186E0C
:10312000A20E196E0D0E1A6E19EC22F013C088F063
:1031300014C089F015C08AF016C08BF058EF1DF04E
:10314000FF0E0101AC152C6FFF0EAD152D6FFF0E9C
:10315000AE152E6F7F0EAF152F6F170E0001906FFB
:103160002CC191F02DC192F02EC193F02FC194F09B
:103170009067BDEF18F0C5EF18F094359433933392
:1031800092339133902FB8EF18F0810E0001912502
:103190000101A06FFF0E000192210101A16FFF0E3E
:1031A000000193210101A26FFF0E00019421010192
:1031B000A36F000E886F000E896F000E8A6F000EDD
:1031C0008B6F2FBFF0EF18F02C05000E2D59000E5D
:1031D0002E593F0E2F59D8A0F0EF18F0F2EF18F04B
:1031E000F6EF19F0A0C190F0010E00019027000E3B
:1031F000916F000E926F800E936F000E946F906728
:1032000004EF19F00CEF19F09435943393339233A3
:103210009133902FFFEF18F00101AC51000191257F
:103220000101886FAD51000192210101896FAE51FA
:103230000001932101018A6FAF5100019421010126
:103240008B6F810E0001906FFF0E916FFF0E926FDA
:10325000FF0E936F170E946F88C195F089C196F099
:103260008AC197F08BC198F0946739EF19F041EF5C
:1032700019F098359833973396339533942F34EF6C
:1032800019F00001955190250101A06F000E000179
:1032900091210101A16F000E000192210101A26F95
:1032A000000E000193210101A36FA0C190F0FF0E59
:1032B0000001916FFF0E926F7F0E936F000E946F5F
:1032C000906765EF19F06DEF19F0943594339333EF
:1032D00092339133902F60EF19F00001911D956F9B
:1032E000921D966F931D976F941D986F01018851E1
:1032F000000195150101B86F895100019615010172
:10330000B96F8A51000197150101BA6F8B51000105
:1033100098150101BB6FB8C1B0F1B9C1B1F1BAC123
:10332000B2F1BBC1B3F1A05117080001906FFF0EBD
:10333000010188150001916FFF0E0101891500013F
:10334000926F7F0E01018A150001936F000E01013B
:103350008B150001946F000E9111956F000E921164
:10336000966F800E9311976F000E9411986F90676F
:10337000BCEF19F0C4EF19F09835983397339633B2
:103380009533902FB7EF19F095C088F196C089F169
:1033900097C08AF198C08BF10101AFBFD4EF19F04B
:1033A000D2EF19F0DCEF19F08B1F8A1F891F886D8F
:1033B000000E89238A238B239CC13AF09DC13BF0E8
:1033C0009EC13CF09FC13DF0B0C13EF0B1C13FF0A5
:1033D000B2C140F0B3C141F09AEC2BF03AC09CF17D
:1033E0003BC09DF13CC09EF13DC09FF164C103F024
:1033F00065C104F066C105F067C106F09CC107F025
:103400009DC108F09EC109F09FC10AF0B9EC1FF000
:1034100003C0B0F104C0B1F105C0B2F106C0B3F110
:10342000B0C1B8F1B1C1B9F1B2C1BAF1B3C1BBF128
:10343000B8C194F1B9C195F1BAC196F1BBC197F188
:10344000000E01019415B86F800E9515B96FFF0E2F
:103450009615BA6FFF0E9715BB6FB8C1B0F1B9C121
:10346000B1F1BAC1B2F1BBC1B3F1B0C113F0B1C196
:1034700014F0B2C115F0B3C116F0000E176E720E43
:10348000186E310E196E3F0E1A6E19EC22F013C031
:1034900074F114C075F115C076F116C077F19CC1B6
:1034A0003EF09DC13FF09EC140F09FC141F0B0C1D0
:1034B0003AF0B1C13BF0B2C13CF0B3C13DF09AEC7F
:1034C0002BF03AC098F13BC099F13CC09AF13DC055
:1034D0009BF1180E176E720E186E310E196E3F0E9C
:1034E0001A6E98C13EF099C13FF09AC140F09BC15D
:1034F00041F064C13AF065C13BF066C13CF067C180
:103500003DF09AEC2BF03AC013F03BC014F03CC0F5
:1035100015F03DC016F019EC22F013C014F114C0E0
:1035200015F115C016F116C017F114C103F015C13D
:1035300004F016C105F017C106F08C0E176EBE0E12
:10354000186EBF0E196E350E1A6EB0C113F0B1C1F0
:1035500014F0B2C115F0B3C116F019EC22F013C08B
:1035600007F014C008F015C009F016C00AF0B9EC55
:103570001FF003C078F104C079F105C07AF106C0EC
:103580007BF174C103F075C104F076C105F077C119
:1035900006F078C107F079C108F07AC109F07BC163
:1035A0000AF0B9EC1FF003C0B4F104C0B5F105C0D6
:1035B000B6F106C0B7F174C13EF075C13FF076C1F7
:1035C00040F077C141F0B4C13AF0B5C13BF0B6C1AB
:1035D0003CF0B7C13DF09AEC2BF03AC098F13BC0FB
:1035E00099F13CC09AF13DC09BF178C13AF079C1A4
:1035F0003BF07AC13CF07BC13DF098C13EF099C1EF
:103600003FF09AC140F09BC141F09AEC2BF03AC0D8
:1036100044F13BC045F13CC046F13DC047F1B4C167
:1036200013F0B5C114F0B6C115F0B7C116F0B4C1AE
:1036300017F0B5C118F0B6C119F0B7C11AF019ECFE
:1036400022F013C0B0F114C0B1F115C0B2F116C030
:10365000B3F10E0E076EEA0E086EDD0E096EB50EA2
:103660000A6E4C0E176EBB0E186E310E196E330EAD
:103670001A6EB0C113F0B1C114F0B2C115F0B3C1EC
:1036800016F019EC22F013C003F014C004F015C0BA
:1036900005F016C006F0B9EC1FF003C0A4F104C099
:1036A000A5F105C0A6F106C0A7F1550E076EB30E31
:1036B000086E8A0E096E380E0A6EB0C117F0B1C1DD
:1036C00018F0B2C119F0B3C11AF0A4C113F0A5C12A
:1036D00014F0A6C115F0A7C116F019EC22F013C022
:1036E00003F014C004F015C005F016C006F0B9ECE4
:1036F0001FF003C058F104C059F105C05AF106C0CB
:103700005BF1610E076E0B0E086E360E096EBB0E76
:103710000A6EB0C117F0B1C118F0B2C119F0B3C14F
:103720001AF058C113F059C114F05AC115F05BC119
:1037300016F019EC22F013C003F014C004F015C009
:1037400005F016C006F0B9EC1FF003C048F104C044
:1037500049F105C04AF106C04BF1AB0E076EAA0E47
:10376000086E2A0E096E3E0E0A6EB0C117F0B1C186
:1037700018F0B2C119F0B3C11AF048C113F049C131
:1037800014F04AC115F04BC116F019EC22F013C029
:1037900003F014C004F015C005F016C006F0B9EC33
:1037A0001FF003C038F104C039F105C03AF106C07A
:1037B0003BF1B4C13AF0B5C13BF0B6C13CF0B7C182
:1037C0003DF0B0C117F0B1C118F0B2C119F0B3C1EA
:1037D0001AF038C113F039C114F03AC115F03BC1E9
:1037E00016F019EC22F013C03EF014C03FF015C0E3
:1037F00040F016C041F09AEC2BF03AC080F13BC08B
:1038000081F13CC082F13DC083F1000E076E000ED5
:10381000086E000E096EC00E0A6E80C103F081C1F1
:1038200004F082C105F083C106F0B9EC1FF003C0BB
:1038300046F004C047F005C048F006C049F080C11A
:1038400017F081C118F082C119F083C11AF0B4C118
:1038500013F0B5C114F0B6C115F0B7C116F019ECEC
:1038600022F013C042F014C043F015C044F016C05B
:1038700045F02EEC24F042C03CF143C03DF144C081
:103880003EF145C03FF144C107F045C108F046C1D3
:1038900009F047C10AF044C117F045C118F046C10C
:1038A00019F047C11AF0B4C113F0B5C114F0B6C194
:1038B00015F0B7C116F019EC22F013C003F014C0D4
:1038C00004F015C005F016C006F0B9EC1FF003C0F7
:1038D00018F104C019F105C01AF106C01BF13CC172
:1038E0003AF03DC13BF03EC13CF03FC13DF018C154
:1038F0003EF019C13FF01AC140F01BC141F09AECF3
:103900002BF03AC04CF13BC04DF13CC04EF13DC0F4
:103910004FF1B4C13EF0B5C13FF0B6C140F0B7C100
:1039200041F04CC13AF04DC13BF04EC13CF04FC1AB
:103930003DF09AEC2BF03AC098F13BC099F13CC0B5
:103940009AF13DC09BF1000E3A6E000E3B6E800E68
:103950003C6E3F0E3D6E98C13EF099C13FF09AC15A
:1039600040F09BC141F09AEC2BF03AC0B4F13BC05F
:10397000B5F13CC0B6F13DC0B7F1B4C1B8F1B5C1C5
:10398000B9F1B6C1BAF1B7C1BBF1B8C1ACF1B9C1B7
:10399000ADF1BAC1AEF1BBC1AFF188C190F089C140
:1039A00091F08AC192F08BC193F0170ED89000016C
:1039B0009037913792379337E82ED6EF1CF090511D
:1039C0000101AC27000191510101AD230001925189
:1039D0000101AE23000193510101AF23170E000135
:1039E000906FACC191F0ADC192F0AEC193F0AFC198
:1039F00094F09067FEEF1CF006EF1DF094359433C1
:103A0000933392339133902FF9EF1CF0000194BF60
:103A100016EF1DF094519311921106E19105D8B063
:103A200014EF1DF016EF1DF02EEF1DF0B4C12CF0B9
:103A3000B5C12DF0B6C12EF0B7C12FF088C130F05E
:103A400089C131F0FBEC25F02CC0B4F12DC0B5F1EB
:103A50002EC0B6F12FC0B7F13EEF1DF0ACC1B8F1EA
:103A6000ADC1B9F1AEC1BAF1AFC1BBF1B8C1B4F1EA
:103A7000B9C1B5F1BAC1B6F1BBC1B7F184C113F098
:103A800085C114F086C115F087C116F0B4C117F0D6
:103A9000B5C118F0B6C119F0B7C11AF019EC22F08F
:103AA00013C088F014C089F015C08AF016C08BF0DE
:103AB00012004EC06CF04FC06DF050C06EF051C09F
:103AC0006FF06CC084F06DC085F06EC086F06FC082
:103AD00087F0000E00018415526E000E8515536E9E
:103AE000800E8615546E7F0E8715556E800E541805
:103AF00009E17F0E551852105310D8A482EF1DF023
:103B000084EF1DF0B2EF1DF04EC017F04FC018F05B
:103B100050C019F051C01AF04EC013F04FC014F04D
:103B200050C015F051C016F019EC22F013C003F08C
:103B300014C004F015C005F016C006F04EC007F022
:103B40004FC008F050C009F051C00AF0B9EC1FF0A6
:103B500003C04EF004C04FF005C050F006C051F055
:103B6000B8EF1FF087BFC1EF1DF087518611851197
:103B700006E18405D8B0BFEF1DF0C1EF1DF0FDEFE9
:103B80001DF0FF0E8415526EFF0E8515536EFF0E4D
:103B90008615546E7F0E8715556E52505310541073
:103BA0005510D8A4D6EF1DF0D8EF1DF0E2EF1DF0B0
:103BB0004EC04EF04FC04FF050C050F051C051F0C9
:103BC000B8EF1FF087BFE9EF1DF0E7EF1DF0FDEF45
:103BD0001DF0000EBA6F210EB96F7D0E036E100E30
:103BE000046E8FEC2CF003C04EF004C04FF005C003
:103BF00050F006C051F0B8EF1FF0170E526E84C09F
:103C000053F085C054F086C055F087C056F0526618
:103C10000CEF1EF014EF1EF056345632553254326B
:103C20005332522E07EF1EF053C07CF054C07DF08B
:103C300055C07EF056C07FF000017C517D117E1191
:103C40007F11D8A426EF1EF028EF1EF058EF1EF0CB
:103C5000000E686F000E696F000E6A6F000E6B6FCA
:103C60003DEF1EF0D8908437853786378737010EB1
:103C70006827000E69236A236B2386AF42EF1EF08C
:103C800044EF1EF032EF1EF0FF0E6825526EFF0E5D
:103C90006921536EFF0E6A21546EFF0E6B21556E23
:103CA00052507C5F53507D5B54507E5B55507F5B20
:103CB000810E7C27FF0E7D23FF0E7E23FF0E7F23C8
:103CC000FF0E8415526EFF0E8515536E7F0E8615FE
:103CD000546E000E8715556E000E5210846F000E44
:103CE0005310856F800E5410866F000E5510876F2D
:103CF0007CA17DEF1EF07FEF1EF087EF1EF0845158
:103D000084278551852386518623875187237F35D4
:103D10007F337E337D337C338451842785518523E3
:103D20008651862387518723000E646F000E656FCE
:103D3000000E666F000E676F64C070F065C071F0B2
:103D400066C072F067C073F0000E806F000E816F66
:103D5000000E826F010E836FF6EF1EF08051642516
:103D6000746F81516521756F82516621766F835121
:103D70006721776F7451845D7551855976518659E5
:103D80008751800A526E7751800A5258D8A0CBEFE3
:103D90001EF0CDEF1EF0E9EF1EF080517425646F28
:103DA00081517521656F82517621666F835177212C
:103DB000676F7451845F7551855B7651865B77516F
:103DC000875B805170278151712382517223835107
:103DD00073238451842785518523865186238751F7
:103DE0008723D8908333823381338033805181118C
:103DF00082118311D8A4FFEF1EF001EF1FF0AEEF88
:103E00001EF08451851186118711D8B40AEF1FF076
:103E10000CEF1FF06DEF1FF0000E786F000E796F42
:103E2000800E7A6F3F0E7B6F78C042F079C043F00E
:103E30007AC044F07BC045F0000E466E000E476E1F
:103E4000800E486E3F0E496E9FEC29F0D8A02BEFF4
:103E50001FF02DEF1FF06DEF1FF0000E0001786FC7
:103E6000000E796F800E7A6F3F0E7B6F000E426EF0
:103E7000000E436E800E446E3F0E456E78C046F0D5
:103E800079C047F07AC048F07BC049F09FEC29F038
:103E9000D8B04DEF1FF04FEF1FF058EF1FF0020E9C
:103EA00000017027000E7123722373236DEF1FF042
:103EB000010E00017015526E000E7115536E000E4A
:103EC0007215546E000E7315556E52507027535074
:103ED0007123545072235550732370C052F071C037
:103EE00053F072C054F073C055F05534553254320B
:103EF00053325232000E52240001846F000E5320C0
:103F0000856F000E5420866F3F0E5520876F7CC052
:103F100052F07DC053F07EC054F07FC055F0170EB4
:103F2000D8905236533654365536E82E90EF1FF05F
:103F3000525084275350852354508623555087234D
:103F400084C06CF085C06DF086C06EF087C06FF0E5
:103F50006CC078F06DC079F06EC07AF06FC07BF005
:103F600078C04EF079C04FF07AC050F07BC051F06D
:103F700012000650800B0F6E06500624116E05AE1F
:103F8000C4EF1FF0C6EF1FF0C7EF1FF011801150F4
:103F9000D8B4CDEF1FF0CFEF1FF0E4EF1FF01128E2
:103FA000D8A4D5EF1FF0D7EF1FF0DFEF1FF0000E02
:103FB000036E000E046E000E056E000E066E058E7A
:103FC000000E066EECEF1FF0000E036E000E046E86
:103FD000000E056E000E066E0A50800B106E0F501C
:103FE0001018D8B4F6EF1FF0F8EF1FF0F9EF1FF03C
:103FF0000F8C0A500A24106E09AE01EF20F003EF77
:1040000020F004EF20F010801050D8B40AEF20F018
:104010000CEF20F021EF20F01028D8A412EF20F0B0
:1040200014EF20F01CEF20F0000E076E000E086E5B
:10403000000E096E000E0A6E098E000E0A6E29EF40
:1040400020F0000E076E000E086E000E096E000EC6
:104050000A6E1150105CD8B030EF20F032EF20F033
:1040600059EF20F00FAC37EF20F039EF20F03BEFA5
:1040700020F0800E0F1A11C012F010C011F012C003
:1040800010F003C012F007C003F012C007F004C024
:1040900012F008C004F012C008F005C012F009C008
:1040A00005F012C009F006C012F00AC006F012C0F6
:1040B0000AF0000E126E115010C00BF00C6A0B5E6D
:1040C000000E0C5A0CBE6EEF20F00C5009E11A0ED7
:1040D0000B5CD8A06EEF20F070EF20F0A7EF20F07F
:1040E0000350041005100610D8A479EF20F07CEFDF
:1040F00020F0010E7DEF20F0000E126E000E036E18
:10410000000E046E000E056E000E066E10C011F05B
:10411000B0EF20F012A08FEF20F091EF20F097EF9A
:1041200020F0D89012300109126E99EF20F0D8904B
:10413000123203A09EEF20F0A0EF20F0A1EF20F0BC
:10414000128E06340632053204320332112A105020
:10415000115CD8A0AEEF20F0B0EF20F08AEF20F095
:104160000FBCB5EF20F0B7EF20F0F7EF20F01150C3
:10417000D8A4BDEF20F0BFEF20F0C9EF20F0000E73
:10418000036E000E046E000E056E000E066E18EF34
:1041900022F00750032608500422095005220A5035
:1041A000062206A0D6EF20F0D8EF20F084EF21F011
:1041B00012A0DDEF20F0DFEF20F0E5EF20F0D89047
:1041C00012300109126EE7EF20F0D890123203A0EE
:1041D000ECEF20F0EEEF20F0EFEF20F0128E06343F
:1041E0000632053204320332112A84EF21F00750DF
:1041F000035C08500458095005580650800A0B6E9D
:104200000A50800A0B58D8B008EF21F00AEF21F0CD
:1042100035EF21F00350075C0B6E045008580C6E0C
:10422000055009580D6E06500A580E6EFF0E0B24ED
:10423000036EFF0E0C20046EFF0E0D20056EFF0EA8
:104240000E20066E800E0F1A126C1250D8A42BEF9F
:1042500021F02DEF21F03DEF21F0010E0326000E9D
:104260000422052206223DEF21F00750035E08508C
:10427000045A0950055A0A50065A035004100510F2
:104280000610D8A446EF21F048EF21F07DEF21F091
:104290001250D8A44EEF21F050EF21F07DEF21F025
:1042A000000E036E000E046E000E056E000E066E0C
:1042B00018EF22F0D890033604360536063612AED3
:1042C00064EF21F066EF21F067EF21F0038012A088
:1042D0006CEF21F06EEF21F072EF21F0D8801236F2
:1042E00074EF21F0D89012361150D8B47AEF21F043
:1042F0007CEF21F07DEF21F0110605AE82EF21F079
:1043000084EF21F05AEF21F0000E106E12AE8BEF09
:1043100021F08DEF21F0A5EF21F012C00BF07F0E00
:104320000B16D8B496EF21F098EF21F09CEF21F016
:10433000010E106EA5EF21F003A0A1EF21F0A3EF75
:1043400021F0A5EF21F098EF21F01050D8B4ABEF99
:1043500021F0ADEF21F0D8EF21F0010E0326000E81
:1043600004220522062206A0B8EF21F0BAEF21F0C0
:10437000D8EF21F003C00BF004C00CF005C00DF025
:1043800006C00EF00E340E320D320C320B320BC062
:1043900003F00CC004F00DC005F00EC006F01128AB
:1043A000D8B4D5EF21F0D7EF21F0D8EF21F0112AC2
:1043B0001128D8B4DEEF21F0E0EF21F0E8EF21F092
:1043C0001150D8A4E6EF21F0E8EF21F0FAEF21F048
:1043D000000E036E000E046E000E056E000E066EDB
:1043E0001150D8A4F6EF21F0F8EF21F0FAEF21F008
:1043F000000E0F6E11A0FFEF21F001EF22F004EF8D
:1044000022F0058E05EF22F0059ED8901130066E41
:104410000FAE0DEF22F00FEF22F010EF22F0068E1C
:1044200003C003F004C004F005C005F006C006F0A8
:1044300012001650800B1F6E16501624256E15AEF6
:1044400024EF22F026EF22F027EF22F025802550DE
:10445000D8B42DEF22F02FEF22F042EF22F02528E2
:10446000D8A435EF22F037EF22F03FEF22F0000E14
:10447000136E000E146E000E156E000E166E158E65
:104480004AEF22F0000E136E000E146E000E156E31
:10449000000E166E1A50800B1F1A1A501A24246E22
:1044A00019AE55EF22F057EF22F058EF22F024809A
:1044B0002450D8B45EEF22F060EF22F073EF22F0C8
:1044C0002428D8A466EF22F068EF22F070EF22F0E3
:1044D000000E176E000E186E000E196E000E1A6E8A
:1044E000198E7BEF22F0000E176E000E186E000E74
:1044F000196E000E1A6E2450D8B481EF22F083EFAB
:1045000022F08BEF22F02550D8A489EF22F08BEF18
:1045100022F095EF22F0000E136E000E146E000EC6
:10452000156E000E166E2DEF24F019501302F3CF06
:104530002AF0F4CF2BF02A50206E216A226A236AD7
:104540002B50266E276A286A296A18501402F3CF66
:104550002AF0F4CF2BF02A502026000E212222220E
:1045600023222B502626000E2722282229221750EC
:104570001502F3CF2AF0F4CF2BF02A502026000E9C
:104580002122222223222B502626000E27222822F7
:10459000292222C023F021C022F020C021F0206A6D
:1045A00017501402F3CF2AF0F4CF2BF02A50202614
:1045B0002B502122000E2222000E2322185013021B
:1045C000F3CF2AF0F4CF2BF02A5020262B502122B3
:1045D000000E2222000E232222C023F021C022F04E
:1045E00020C021F0206A17501302F3CF2AF0F4CF35
:1045F0002BF02A5020262B502122000E2222000EC2
:10460000232219501402F3CF2AF0F4CF2BF02A50B2
:1046100026262B502722000E2822000E2922185071
:104620001502F3CF2AF0F4CF2BF02A5026262B5078
:104630002722000E2822000E292219501502F3CF3E
:104640002AF0F4CF2BF02A501B6E2B501C6E1D6AE3
:104650001E6A1DC01EF01CC01DF01BC01CF01B6A92
:104660001B5026261C5027221D5028221E5029226E
:1046700020C01BF021C01CF022C01DF023C01EF082
:10468000190E48EF23F0D8901E321D321C321B3217
:10469000E82E43EF23F01B5026261C5027221D50E6
:1046A00028221E50292222C023F021C022F020C03F
:1046B00021F0206A245025C01BF01C6A1B26000E26
:1046C0001C22820E1B242A6EFF0E1C202B6E7EEFF6
:1046D00023F0D890263627362836293623AE73EFB6
:1046E00023F075EF23F076EF23F02680D890203664
:1046F0002136223623362A06D8A02B0628AE83EF91
:1047000023F085EF23F069EF23F0000E246E23AE33
:104710008CEF23F08EEF23F0B2EF23F0FF0E201486
:104720001B6EFF0E21141C6EFF0E22141D6E7F0ED9
:1047300023141E6E1B501C101D101E10D8B4A3EFA6
:1047400023F0A5EF23F0A9EF23F0010E246EB2EFC2
:1047500023F026A0AEEF23F0B0EF23F0B2EF23F06A
:10476000A5EF23F02450D8B4B8EF23F0BAEF23F02C
:10477000DEEF23F0010E2626000E27222822292212
:1047800029A0C5EF23F0C7EF23F0DEEF23F026C00A
:104790001BF027C01CF028C01DF029C01EF01E34DD
:1047A0001E321D321C321B321BC026F01CC027F0EB
:1047B0001DC028F01EC029F02A4A2B2A2BBEE9EF83
:1047C00023F02B5008E12A28D8A0E9EF23F0EBEFE3
:1047D00023F0F5EF23F0000E266E000E276E800EFC
:1047E000286E7F0E296E23EF24F02BBE02EF24F0FB
:1047F0002B5006E12A04D8B000EF24F002EF24F099
:104800000EEF24F0000E266E000E276E000E286EAE
:10481000000E296E000E1F6E23EF24F02AC025F033
:10482000FF0E2616FF0E27167F0E2816000E2916DD
:1048300025A01DEF24F01FEF24F020EF24F0288E98
:10484000D8902530296E1F50291226C013F027C09A
:1048500014F028C015F029C016F012004550800B46
:10486000526E45504524596E44AE39EF24F03BEF6B
:1048700024F03CEF24F059805950D8B442EF24F092
:1048800044EF24F059EF24F05928D8A44AEF24F03B
:104890004CEF24F054EF24F0000E426E000E436EF5
:1048A000000E446E000E456E448E000E456E61EFA4
:1048B00024F0000E426E000E436E000E446E000E99
:1048C000456E4950800B521A495049245A6E48AEE1
:1048D0006CEF24F06EEF24F06FEF24F05A805A5002
:1048E000D8B475EF24F077EF24F08CEF24F05A2839
:1048F000D8A47DEF24F07FEF24F087EF24F0000EA2
:10490000466E000E476E000E486E000E496E488ED1
:10491000000E496E94EF24F0000E466E000E476EB6
:10492000000E486E000E496E465047104810491060
:10493000D8A49DEF24F09FEF24F0B7EF24F0000EF1
:10494000426E000E436E000E446E000E456E800EE9
:1049500044127F0E45125250451242C042F043C0ED
:1049600043F044C044F045C045F0FAEF25F05950FB
:10497000D8A4BDEF24F0BFEF24F0C9EF24F0000E5F
:10498000426E000E436E000E446E000E456EFAEF4E
:1049900025F05A5059C04AF04B6A4A5E000E4B5AF5
:1049A0007F0E4A24536E000E4B20546E42C04EF0D0
:1049B00043C04FF044C050F045C051F0000E426E6D
:1049C000000E436E000E446E000E456E000E556ED6
:1049D000000E566E000E576E000E586E000E5A6E88
:1049E0002AEF25F05A50D8B4F8EF24F0FAEF24F06B
:1049F00011EF25F0D8904E364F3650365136D890BC
:104A0000423643364436453658AE09EF25F00BEFB3
:104A100025F00CEF25F04280D890553656365736A3
:104A2000583646504E5C47504F58485050584950A1
:104A30005158D8A01EEF25F020EF25F029EF25F0E2
:104A4000588C46504E5E47504F5A4850505A495025
:104A5000515A5A2A190E5A6430EF25F032EF25F0D8
:104A6000F2EF24F04E504F1050105110D8B43BEFDD
:104A700025F03DEF25F055EF25F0558055EF25F059
:104A8000D890423643364436453658AE4AEF25F084
:104A90004CEF25F04DEF25F04280D8905536563634
:104AA000573658365306D8A0540644AE5AEF25F070
:104AB0005CEF25F040EF25F0000E5A6E58AE63EF24
:104AC00025F065EF25F089EF25F0FF0E55144A6EAD
:104AD000FF0E56144B6EFF0E57144C6E7F0E58147B
:104AE0004D6E4A504B104C104D10D8B47AEF25F053
:104AF0007CEF25F080EF25F0010E5A6E89EF25F04E
:104B000042A085EF25F087EF25F089EF25F07CEFB7
:104B100025F05A50D8B48FEF25F091EF25F0B5EF7E
:104B200025F0010E4226000E43224422452245A0D4
:104B30009CEF25F09EEF25F0B5EF25F042C04AF03E
:104B400043C04BF044C04CF045C04DF04D344D32A5
:104B50004C324B324A324AC042F04BC043F04CC058
:104B600044F04DC045F0534A542A54BEC0EF25F0DE
:104B7000545008E15328D8A0C0EF25F0C2EF25F02B
:104B8000CDEF25F0000E546E5368000E426E000EFD
:104B9000436E000E446E000E456E54BEDAEF25F0F3
:104BA000545006E15304D8B0D8EF25F0DAEF25F0E1
:104BB000E8EF25F0000E546E000E536E000E426EAC
:104BC000000E436E000E446E000E456E000E526ED7
:104BD00053C059F059A0EFEF25F0F1EF25F0F4EFB5
:104BE00025F0448EF5EF25F0449ED8905930456E5F
:104BF000ABEF24F012002CC03AF02DC03BF02EC0D9
:104C00003CF02FC03DF031BE0FEF26F0315009E1EE
:104C1000800E305CD8A00FEF26F011EF26F06FEF7A
:104C200026F03AC013F03BC014F03CC015F03DC074
:104C300016F0000E176E000E186E000E196E7F0E25
:104C40001A6E19EC22F013C03AF014C03BF015C0F4
:104C50003CF016C03DF0810E3026FF0E312231BEF1
:104C60003BEF26F0315009E1800E305CD8A03BEFDD
:104C700026F03DEF26F0D9EF26F03AC013F03BC006
:104C800014F03CC015F03DC016F0000E176E000E7B
:104C9000186E000E196E7F0E1A6E19EC22F013C0FA
:104CA0003AF014C03BF015C03CF016C03DF0810E48
:104CB0003026FF0E312231BE67EF26F0315009E178
:104CC000800E305CD8A067EF26F069EF26F0D9EFB0
:104CD00026F0000E316E7F0E306ED9EF26F031AE29
:104CE0007BEF26F0820E305CFF0E3158D8B07BEFA0
:104CF00026F07DEF26F0D9EF26F03AC013F03BC046
:104D000014F03CC015F03DC016F0000E176E000EFA
:104D1000186E800E196E0C0E1A6E19EC22F013C06C
:104D20003AF014C03BF015C03CF016C03DF0660EE2
:104D30003026000E312231AEA7EF26F0820E305C15
:104D4000FF0E3158D8B0A7EF26F0A9EF26F0D9EF23
:104D500026F03AC013F03BC014F03CC015F03DC043
:104D600016F0000E176E000E186E800E196E0C0EE7
:104D70001A6E19EC22F013C03AF014C03BF015C0C3
:104D80003CF016C03DF0660E3026000E312231AEEA
:104D9000D3EF26F0820E305CFF0E3158D8B0D3EF3F
:104DA00026F0D5EF26F0D9EF26F0FF0E316E820EF9
:104DB000306E7F0E3024326E000E3120336E346A36
:104DC000356A170ED8903236333634363536E82EFB
:104DD000E2EF26F032C036F033C037F034C038F09E
:104DE00035C039F036C013F037C014F038C015F0B4
:104DF00039C016F03AC017F03BC018F03CC019F0AB
:104E00003DC01AF019EC22F013C02CF014C02DF0A4
:104E100015C02EF016C02FF02CC02CF02DC02DF098
:104E20002EC02EF02FC02FF01200346E3450D8B4A4
:104E30001CEF27F01EEF27F040EF27F02FBE25EFE5
:104E400027F023EF27F040EF27F02CC030F02DC0E3
:104E500031F02EC032F02FC033F0301E311E321E22
:104E6000331E302A000E31223222332230C036F077
:104E700031C037F032C038F033C039F048EF27F096
:104E80002CC036F02DC037F02EC038F02FC039F0CE
:104E90002C502D102E102F10D8A451EF27F053EFC7
:104EA00027F05DEF27F0000E2C6E000E2D6E000E29
:104EB0002E6E000E2F6EEEEF27F0960E356E67EF1A
:104EC00027F0352AD8903932383237323632000E50
:104ED0003614306E000E3714316E000E3814326EF8
:104EE000FE0E3914336E3050311032103310D8A406
:104EF0007CEF27F07EEF27F061EF27F08CEF27F0B3
:104F0000352A010E3626000E372238223922D89053
:104F10003932383237323632000E3614306E000EE7
:104F20003714316E000E3814326EFF0E3914336EA2
:104F30003050311032103310D8A4A1EF27F0A3EF76
:104F400027F080EF27F0ABEF27F03506D890363604
:104F500037363836393638BEB0EF27F0B2EF27F0A3
:104F6000BAEF27F0020E3560B8EF27F0BAEF27F05E
:104F7000A5EF27F035B0BFEF27F0C1EF27F0C2EF64
:104F800027F0389ED890353235C030F0316A326A19
:104F9000336A30C033F0326A316A306A30503612C8
:104FA0003150371232503812335039123450D8B48D
:104FB000DCEF27F0DEEF27F0E6EF27F02FBEE5EF7E
:104FC00027F0E3EF27F0E6EF27F0398E36C02CF01C
:104FD00037C02DF038C02EF039C02FF01200000E6F
:104FE00000018C6F000E8D6F400E8E6F400E8F6F24
:104FF000000E886F000E896F200E8A6F410E8B6F36
:1050000040EC08F088C0A3F089C0A4F08AC0A5F0E5
:105010008BC0A6F0000E176E000E186E000E196EF3
:10502000400E1A6EA3C013F0A4C014F0A5C015F072
:10503000A6C016F019EC22F013C0A7F014C0A8F017
:1050400015C0A9F016C0AAF0000E00018C6F000E6A
:105050008D6F800E8E6F410E8F6F000E886F000E69
:10506000896F000E8A6F400E8B6F40EC08F088C08D
:10507000ABF089C0ACF08AC0ADF08BC0AEF0000ED2
:10508000176E000E186EA00E196E410E1A6EA7C094
:1050900013F0A8C014F0A9C015F0AAC016F019ECBE
:1050A00022F013C099F014C09AF015C09BF016C0FE
:1050B0009CF01BEC29F0000199C02CF09AC02DF057
:1050C000000E2DBEFF0E2E6E2F6E010E15EC27F07A
:1050D0002CC03EF02DC03FF02EC040F02FC041F05C
:1050E000ABC03AF0ACC03BF0ADC03CF0AEC03DF060
:1050F0009AEC2BF03AC0AFF03BC0B0F03CC0B1F03E
:105100003DC0B2F0AFC099F0B0C09AF0B1C09BF012
:10511000B2C09CF01BEC29F099C0C6F09AC0C7F051
:105120001200DEEC2BF0016EFEEC2BF0026E020E94
:105130000118D8A49EEF28F0A0EF28F0C9EF28F0BE
:10514000000E0001C06F000EBF6F5B4A5C2A5CBEA0
:10515000B3EF28F05C5009E1330E5B5CD8A0B3EFED
:1051600028F0B5EF28F0B7EF28F0BD4BBE2B5CBEA2
:10517000C3EF28F05C5009E1970E5B5CD8A0C3EF49
:1051800028F0C5EF28F01AEF29F0BB4BBC2B1AEF23
:1051900029F0020E0218D8A4D0EF28F0D2EF28F0A0
:1051A000F9EF28F0000E5C6E000E5B6E0001BF4B45
:1051B000C02BC0BFE5EF28F0C05109E1330EBF5D41
:1051C000D8A0E5EF28F0E7EF28F0E9EF28F0BD4B95
:1051D000BE2BC0BFF5EF28F0C05109E1970EBF5DAF
:1051E000D8A0F5EF28F0F7EF28F01AEF29F0C5EF77
:1051F00028F00104D8B4FFEF28F001EF29F009EFFF
:1052000029F00204D8A407EF29F009EF29F01AEFDA
:1052100029F0000E5C6E000E5B6E000E0001C06F88
:10522000000EBF6F000EBE6F000EBD6F000EBC6F94
:10523000000EBB6F120000019B359C35A26FA2517E
:10524000D8A425EF29F027EF29F031EF29F0000E3F
:10525000996F000E9A6F000E9B6F000E9C6F9EEF71
:1052600029F099C09DF09AC09EF09BC09FF09CC011
:10527000A0F0200E41EF29F0D890A0339F339E3349
:105280009D33E82E3CEF29F09D51A16F9B8FFF0EBF
:105290009917FF0E9A17FF0E9B17000E9C17960E7C
:1052A000A25FA2BF58EF29F056EF29F06EEF29F068
:1052B000A251800A970FD8B060EF29F062EF29F071
:1052C00064EF29F027EF29F0D8909C339B339A3371
:1052D0009933A23F64EF29F086EF29F01F0EA265F3
:1052E00074EF29F076EF29F07EEF29F027EF29F00F
:1052F000D89099379A379B379C37A207A251D8A4E8
:1053000084EF29F086EF29F078EF29F0A151D8B485
:105310008CEF29F08EEF29F096EF29F09C1F9B1F50
:105320009A1F996D000E9A239B239C2399C099F094
:105330009AC09AF09BC09BF09CC09CF01200000E9B
:1053400042144A6E000E43144B6E800E44144C6E91
:105350007F0E45144D6E4A504B104C104D10D8A482
:10536000B4EF29F0B6EF29F0BEEF29F0000E426E3F
:10537000000E436E000E446E000E456E000E461485
:105380004A6E000E47144B6E800E48144C6E7F0E12
:1053900049144D6E4A504B104C104D10D8A4D3EF09
:1053A00029F0D5EF29F0DDEF29F0000E466E000E52
:1053B000476E000E486E000E496E45AEE2EF29F0D2
:1053C000E4EF29F0EDEF29F0426C431ED8B0432AF8
:1053D000441ED8B0442A800E455649AEF2EF29F05B
:1053E000F4EF29F0FDEF29F0466C471ED8B0472AAC
:1053F000481ED8B0482A800E4956000E421A000EA8
:10540000431A000E441A800E451A000E461A000E6A
:10541000471A000E481A800E491A4650425C4750FF
:1054200043584850445849504558D8B01AEF2AF0CC
:105430001CEF2AF01FEF2AF0D89020EF2AF0D88036
:105440001200B1EC2CF0BCEC2CF0C1EC2CF0C6EC52
:105450002CF0EFEC27F047EF2AF0C2EC2AF047EFF0
:105460002AF01EEC2CF047EF2AF068EC2BF047EF07
:105470002AF0BDEC2BF047EF2AF035EC2BF047EF8C
:105480002AF073EC2AF047EF2AF0FFEC2AF0000133
:10549000C151B36FB46BB451000AD8B452EF2AF0C3
:1054A00047EF2AF0B351000AD8B42DEF2AF0010AD1
:1054B000D8B431EF2AF0030AD8B435EF2AF0010A44
:1054C000D8B439EF2AF0070AD8B43DEF2AF0010A20
:1054D000D8B441EF2AF0030AD8B445EF2AF047EFD9
:1054E0002AF007EF00F00001BF51C011D8B47BEFE4
:1054F0002AF07DEF2AF08AEF2AF05CBE88EF2AF0CE
:105500005C5008E15B04D8A088EF2AF08AEF2AF00B
:105510008CEF2AF0000EC16FC0BF98EF2AF0C05187
:1055200009E1970EBF5DD8A098EF2AF09AEF2AF014
:10553000A5EF2AF05B505C10D8A4A1EF2AF0A3EFEE
:105540002AF0A5EF2AF0060EC16FBEBFB1EF2AF018
:10555000BE5109E11A0EBD5DD8A0B1EF2AF0B3EF3C
:105560002AF0C1EF2AF05B505C10D8A4BAEF2AF001
:10557000BCEF2AF0C1EF2AF08C06000EBE6F000EC1
:10558000BD6F1200000E5C6E000E5B6E000E00011F
:10559000C06F000EBF6F000EBE6F000EBD6F000E1D
:1055A000BC6F000EBB6F5CBEDEEF2AF05C5008E102
:1055B0005B04D8A0DEEF2AF0E0EF2AF0E5EF2AF056
:1055C0008C2A010EC16FFEEF2AF0C0BFF0EF2AF067
:1055D000C05108E1BF05D8A0F0EF2AF0F2EF2AF0A1
:1055E000FEEF2AF05B505C10D8A4F9EF2AF0FBEF35
:1055F0002AF0FEEF2AF08C06040EC16F12000001A3
:10560000BF51C011D8B407EF2BF009EF2BF016EF04
:105610002BF05CBE14EF2BF05C5008E15B04D8A0CB
:1056200014EF2BF016EF2BF018EF2BF0000EC16FDC
:10563000BCBF24EF2BF0BC5109E1060EBB5DD8A026
:1056400024EF2BF026EF2BF034EF2BF05B505C10A7
:10565000D8A42DEF2BF02FEF2BF034EF2BF08C068E
:10566000000EBC6F000EBB6F12000001BF51C011D5
:10567000D8B43DEF2BF03FEF2BF04CEF2BF05CBE9E
:105680004AEF2BF05C5008E15B04D8A04AEF2BF006
:105690004CEF2BF04EEF2BF0000EC16FC0BF5AEF56
:1056A0002BF0C05109E1330EBF5DD8A05AEF2BF0AB
:1056B0005CEF2BF067EF2BF05B505C10D8A463EF2E
:1056C0002BF065EF2BF067EF2BF0050EC16F12008A
:1056D0005B505C10D8A46FEF2BF071EF2BF074EFE0
:1056E0002BF0000E0001C16F5CBE80EF2BF05C5010
:1056F00009E1970E5B5CD8A080EF2BF082EF2BF0D6
:1057000085EF2BF0030E0001C16F0001BEBF92EFC9
:105710002BF0BE5109E11A0EBD5DD8A092EF2BF01F
:1057200094EF2BF099EF2BF08C2A000EBE6F000E39
:10573000BD6F1200000E3E1A000E3F1A000E401AF6
:10574000800E411A3AC003F03BC004F03CC005F0A3
:105750003DC006F03EC007F03FC008F040C009F071
:1057600041C00AF0B9EC1FF003C03AF004C03BF0AE
:1057700005C03CF006C03DF012005B505C10D8A4A0
:10578000C4EF2BF0C6EF2BF0C9EF2BF0000E000199
:10579000C16F0001BCBFD6EF2BF0BC5109E1060E72
:1057A000BB5DD8A0D6EF2BF0D8EF2BF0DDEF2BF0C0
:1057B0008C2A000EBC6F000EBB6F1200C4C0C5F077
:1057C000000E80BA010E0001C46FC551C419D8A4DF
:1057D000ECEF2BF0EEEF2BF0FCEF2BF0C451D8A444
:1057E000F4EF2BF0F6EF2BF0F9EF2BF0020EFDEFBC
:1057F0002BF0010EFDEF2BF0000E1200C2C0C3F023
:10580000000E81B0010E0001C26FC351C219D8A4AD
:105810000CEF2CF00EEF2CF01CEF2CF0C251D8A4A2
:1058200014EF2CF016EF2CF019EF2CF0020E1DEFF8
:105830002CF0010E1DEF2CF0000E12005B505C10DE
:10584000D8A425EF2CF027EF2CF02AEF2CF0000E37
:105850000001C16F5CBE36EF2CF05C5009E1330EE5
:105860005B5CD8A036EF2CF038EF2CF03BEF2CF03F
:10587000020E0001C16F1200920EF66E590EF76E05
:10588000000EF86E00EEC2F010EE04F00900F5CF45
:10589000EEFFE550E150FAE100EEB5F00D0EEE6AD4
:1058A000E806FDE15C6A5B6A5D905D92000121EFB4
:1058B0002AF00350041005100610D8B462EF2CF043
:1058C00064EF2CF06CEF2CF0000E031A000E041A9B
:1058D000000E051A800E061A03C003F004C004F07F
:1058E00005C005F006C006F01200B5C007F0B6C04E
:1058F00008F0B7C009F0B8C00AF003C007F004C050
:1059000008F005C009F006C00AF00A9E07C003F0BF
:1059100008C004F009C005F00AC006F01200FF0E2E
:10592000076EFF0E086EFF0E096E7F0E0A6E07C02F
:1059300003F008C004F009C005F00AC006F0120028
:105940000600F2A4A6EF2CF0A8EF2CF0AFEF2CF09D
:10595000F294C6C0D6FFC7C0D7FF91EC28F05D9285
:105960001100EFEC27F0F28AF28E880ED56EC6C0D9
:10597000D6FFC7C0D7FF1200000E8C6E000E956ECA
:105980001200928A93800F0EC16E1200700ED36EB9
:06599000120001010101FB
:020000040020DA
:08000000FFFFFFFFFFFFFFFF00
:020000040030CA
:0E000000FF09191EF38381FFFFC0FFE0FF40E0
:00000001FF
