:020000040000FA
:0400000007EF00F016
:0A0008004A8202ED31F08FEF31F073
:101000000000000000DCCFD1350000000000C0155A
:101010003F6042A20D70A5EC363BAAB83F4F387630
:101020003F3CAA38338CBEBF350072313F18723155
:101030003F4CBB31330EEADDB555B38A38610B3610
:10104000BBABAA2A3E42F1533E55326C3E05A38B00
:101050003EABAAAA3EB76DDB3E9A99193F6042A209
:101060000DCAF249710000804B0000803F0000C0B3
:0F1070003F00AAB83FC623F6B80040763F000005
:10108000BBC0B8F1BCC0B9F1BDC0BAF1BEC0BBF1C4
:10109000B8C160F1B9C161F1BAC162F1BBC163F11C
:1010A000BFC0B8F1C0C0B9F1C1C0BAF1C2C0BBF194
:1010B000B8C17CF1B9C17DF1BAC17EF1BBC17FF18C
:1010C000FF0E01016015A86FFF0E6115A96FFF0EDD
:1010D0006215AA6F7F0E6315AB6FFF0E7C15906FC4
:1010E000FF0E7D15916FFF0E7E15926F7F0E7F159F
:1010F000936F9051911192119311D8A482EF08F03F
:1011000084EF08F08FEF08F0000E0001BB6F000EB7
:10111000BC6F800EBD6F3F0EBE6F6DEF1DF0800E79
:10112000621909E13F0E631960116111D8A49BEFA8
:1011300008F09DEF08F0A8EF08F0000E0001BB6F6B
:10114000000EBC6F800EBD6F3F0EBE6F6DEF1DF0C9
:10115000ABBFB9EF08F0A805000EA959800EAA5937
:101160007F0EAB59D8B0B7EF08F0B9EF08F0CAEF6F
:1011700008F093BFC8EF08F09005000E9159800E5B
:1011800092597F0E9359D8A0C8EF08F0CAEF08F023
:10119000E6EF08F0BBC066F0BCC067F0BDC068F009
:1011A000BEC069F0BFC06AF0C0C06BF0C1C06CF0D7
:1011B000C2C06DF061EC20F066C0BBF067C0BCF04F
:1011C00068C0BDF069C0BEF06DEF1DF0000E506F3D
:1011D000000E516F000E526F000E536F63BFF5EF9C
:1011E00008F0F3EF08F0C1EF09F093BF01EF09F049
:1011F000800E925D4B0E9359D8A001EF09F003EFDA
:1012000009F00DEF09F0020E506F000E516F000E45
:10121000526F000E536FC1EF09F093BF19EF09F041
:10122000800E925D3F0E9359D8A019EF09F01BEF85
:1012300009F0C1EF09F0170E0001C36F90C1C4F0AF
:1012400091C1C5F092C1C6F093C1C7F0C3672BEF3F
:1012500009F033EF09F0C735C733C633C533C4339C
:10126000C32F26EF09F0810E0001C4250101A06FF4
:10127000FF0E0001C5210101A16FFF0E0001C62173
:101280000101A26FFF0E0001C7210101A36FA05150
:1012900017080001C36F90C1C4F091C1C5F092C19D
:1012A000C6F093C1C7F0C36758EF09F060EF09F0CB
:1012B000C735C733C633C533C433C32F53EF09F023
:1012C000C4C0ACF1C5C0ADF1C6C0AEF1C7C0AFF18E
:1012D0000101A05117080001C36FACC1C4F0ADC13A
:1012E000C5F0AEC1C6F0AFC1C7F0C32B7DEF09F0AA
:1012F000D890C437C537C637C737C32F78EF09F042
:10130000010190510001C41913E101019151000143
:10131000C5190EE1010192510001C61909E101014F
:1013200093510001C719D8A498EF09F09AEF09F07A
:10133000C1EF09F0010E0101AC150001C36F000EF1
:101340000101AD150001C46F000E0101AE150001D1
:10135000C56F000E0101AF150001C66FC351020831
:101360000101506F000E0001C4550101516F000EC4
:101370000001C5550101526F000E0001C655010163
:10138000536F800E0101921909E17F0E931990119C
:101390009111D8A4CEEF09F0D0EF09F03CEF0AF09C
:1013A000800EAA1909E13F0EAB19A811A911D8A402
:1013B000DCEF09F0DEEF09F0E9EF09F0000E0001C3
:1013C000BB6F000EBC6F800EBD6F3F0EBE6F6DEF2A
:1013D0001DF0ABBFF8EF09F0A805000EA959800E6B
:1013E000AA593F0EAB59D8A0F8EF09F0FAEF09F06F
:1013F00016EF0AF07FBF01EF0AF0FFEF09F00CEFE4
:101400000AF0000E0001BB6F000EBC6F000EBD6F36
:10141000000EBE6F6DEF1DF0BFC0BBF0C0C0BCF0D2
:10142000C1C0BDF0C2C0BEF06DEF1DF07FBF1DEFAB
:101430000AF01BEF0AF031EF0AF0BFC015F0C0C090
:1014400016F0C1C017F0C2C018F073EC31F015C02F
:10145000BBF016C0BCF017C0BDF018C0BEF06DEFF9
:101460001DF0000E0001BB6F000EBC6F000EBD6FC3
:10147000000EBE6F6DEF1DF0800E921909E13F0E58
:10148000931990119111D8A448EF0AF04AEF0AF08D
:1014900078EF0AF07FBF51EF0AF04FEF0AF06EEFDE
:1014A0000AF0000E00017E6F000E7F6F800E806FCD
:1014B0003F0E816FBBC082F0BCC083F0BDC084F022
:1014C000BEC085F035EC27F07EC0BBF07FC0BCF01D
:1014D00080C0BDF081C0BEF06DEF1DF0BBC0BBF0A1
:1014E000BCC0BCF0BDC0BDF0BEC0BEF06DEF1DF015
:1014F000400E7F197C117D117E11D8A482EF0AF075
:1015000084EF0AF0A0EF0AF0BBC015F0BCC016F0E3
:10151000BDC017F0BEC018F0BBC019F0BCC01AF0B7
:10152000BDC01BF0BEC01CF020EC25F015C0BBF008
:1015300016C0BCF017C0BDF018C0BEF06DEF1DF0B6
:101540003F0E7F197C117D117E11D8A4AAEF0AF0FD
:10155000ACEF0AF0C7EF0AF063BFB1EF0AF0B3EFE8
:101560000AF0C7EF0AF0BBC08AF0BCC08BF0BDC068
:101570008CF0BEC08DF0C2EC22F08AC0BBF08BC0F4
:10158000BCF08CC0BDF08DC0BEF06DEF1DF0BBC0D7
:1015900015F0BCC016F0BDC017F0BEC018F0C5EC09
:1015A00031F015C070F116C071F117C072F118C09A
:1015B00073F1800E0101AA190BE17F0EAB19A8117E
:1015C000A911D8B4E6EF0AF0E8EF0AF001EF0BF04A
:1015D000A851A911AA11AB11D8B4F1EF0AF0F3EF99
:1015E0000AF001EF0BF0800EAA1909E13F0EAB19CA
:1015F000A811A911D8A4FFEF0AF001EF0BF0CDEF6D
:101600000BF070C1B4F171C1B5F172C1B6F173C123
:10161000B7F17FBF10EF0BF00EEF0BF02BEF0BF0DD
:10162000000E00017E6F000E7F6F800E806F3F0EF8
:10163000816FB4C182F0B5C183F0B6C184F0B7C187
:1016400085F035EC27F07EC0B4F17FC0B5F180C0E5
:10165000B6F181C0B7F1010163BF33EF0BF031EF99
:101660000BF0C3EF0BF0000EA8250001C36F000EB6
:101670000101A9210001C46F800E0101AA2100010E
:10168000C56FC00E0101AB210001C66F01015051B1
:101690000001C311C76F010151510001C411C86F8E
:1016A000010152510001C511C96F010153510001DF
:1016B000C611CA6FC751C811C911CA11D8A463EFA6
:1016C0000BF065EF0BF0A5EF0BF0B4C17AF0B5C1EC
:1016D0007BF0B6C17CF0B7C17DF0B4C176F0B5C186
:1016E00077F0B6C178F0B7C179F04FEC31F076C041
:1016F0007EF077C07FF078C080F079C081F0B4C10F
:101700007AF0B5C17BF0B6C17CF0B7C17DF0B4C151
:1017100076F0B5C177F0B6C178F0B7C179F04FEC8B
:1017200031F076C082F077C083F078C084F079C061
:1017300085F035EC27F07EC0B4F17FC0B5F180C0F4
:10174000B6F181C0B7F1C3EF0BF0010150055111A3
:1017500052115311D8A4AFEF0BF0B1EF0BF0C3EF60
:101760000BF0B4C115F0B5C116F0B6C117F0B7C192
:1017700018F073EC31F015C0B4F116C0B5F117C014
:10178000B6F118C0B7F1B4C1BBF0B5C1BCF0B6C179
:10179000BDF0B7C1BEF06DEF1DF0000E886F000EFA
:1017A000896F800E8A6F3F0E8B6F63BFDCEF0BF08B
:1017B000DAEF0BF03AEF0CF0505151115211531176
:1017C000D8A4E5EF0BF0E7EF0BF027EF0CF0BBC070
:1017D0007AF0BCC07BF0BDC07CF0BEC07DF0BBC069
:1017E00076F0BCC077F0BDC078F0BEC079F04FECA9
:1017F00031F076C07EF077C07FF078C080F079C09D
:1018000081F0BBC07AF0BCC07BF0BDC07CF0BEC034
:101810007DF0BBC076F0BCC077F0BDC078F0BEC034
:1018200079F04FEC31F076C082F077C083F078C069
:1018300084F079C085F035EC27F07EC0BBF07FC026
:10184000BCF080C0BDF081C0BEF06DEF1DF0500552
:10185000511152115311D8A430EF0CF032EF0CF0AB
:101860003AEF0CF0000E886F000E896F800E8A6FC1
:10187000BF0E8B6F93BF49EF0CF09005000E91598E
:10188000000E92594D0E9359D8A049EF0CF04BEF32
:101890000CF0D3EF0EF0ABBF5DEF0CF0F80EA85DCF
:1018A000FF0EA9597F0EAA593F0EAB59D8B05BEF76
:1018B0000CF05DEF0CF0D0EF0CF07FBF62EF0CF09E
:1018C00064EF0CF09AEF0CF0600E196E420E1A6E77
:1018D000A20E1B6E0D0E1C6E88C115F089C116F08C
:1018E0008AC117F08BC118F020EC25F015C0A4F1C7
:1018F00016C0A5F117C0A6F118C0A7F1A4C115F034
:10190000A5C116F0A6C117F0A7C118F0600E196E98
:10191000420E1A6EA20E1B6E0D0E1C6E20EC25F0F0
:1019200015C0BBF016C0BCF017C0BDF018C0BEF0AB
:101930006DEF1DF0CA0E196EF20E1A6E490E1B6E77
:10194000710E1C6E88C115F089C116F08AC117F09E
:101950008BC118F020EC25F015C0A4F116C0A5F13C
:1019600017C0A6F118C0A7F1A4C115F0A5C116F0C3
:10197000A6C117F0A7C118F0CA0E196EF20E1A6EA2
:10198000490E1B6E710E1C6E20EC25F015C0BBF0CD
:1019900016C0BCF017C0BDF018C0BEF06DEF1DF052
:1019A000ABBFE0EF0CF0080EA85D000EA959800E49
:1019B000AA593F0EAB59D8A0E0EF0CF0E2EF0CF0C3
:1019C0005DEF0DF07FBFF1EF0CF07F517E117D11C7
:1019D00006E17C05D8B0EFEF0CF0F1EF0CF027EF4B
:1019E0000DF0600E196E420E1A6EA20E1B6E0D0ED9
:1019F0001C6E88C115F089C116F08AC117F08BC121
:101A000018F020EC25F015C0A4F116C0A5F117C000
:101A1000A6F118C0A7F1A4C115F0A5C116F0A6C182
:101A200017F0A7C118F0600E196E420E1A6EA20EC2
:101A30001B6E0D0E1C6E20EC25F015C0BBF016C001
:101A4000BCF017C0BDF018C0BEF06DEF1DF0CA0E9F
:101A5000196EF20E1A6E490E1B6E710E1C6E88C145
:101A600015F089C116F08AC117F08BC118F020EC6F
:101A700025F015C0A4F116C0A5F117C0A6F118C035
:101A8000A7F1A4C115F0A5C116F0A6C117F0A7C112
:101A900018F0CA0E196EF20E1A6E490E1B6E710EF8
:101AA0001C6E20EC25F015C0BBF016C0BCF017C0B2
:101AB000BDF018C0BEF06DEF1DF070C166F071C1D1
:101AC00067F072C168F073C169F0000E00016A6FBF
:101AD000000E6B6F800E6C6FBF0E6D6F61EC20F0AF
:101AE00066C0B0F167C0B1F168C0B2F169C0B3F1CE
:101AF000000E196E000E1A6E800E1B6E3E0E1C6ECE
:101B0000B0C115F0B1C116F0B2C117F0B3C118F0F1
:101B100020EC25F015C07AF016C07BF017C07CF0E1
:101B200018C07DF0AB0E0001766FAA0E776FAA0E7B
:101B3000786F3E0E796F4FEC31F076C0A4F177C02C
:101B4000A5F178C0A6F179C0A7F1B0C119F0B1C173
:101B50001AF0B2C11BF0B3C11CF0B0C115F0B1C195
:101B600016F0B2C117F0B3C118F020EC25F015C083
:101B700054F116C055F117C056F118C057F1B0C155
:101B800019F0B1C11AF0B2C11BF0B3C11CF0A4C16D
:101B900015F0A5C116F0A6C117F0A7C118F020ECEA
:101BA00025F015C07AF016C07BF017C07CF018C085
:101BB0007DF0000E0001766F000E776F000E786FDB
:101BC0003F0E796F4FEC31F076C048F177C049F1A4
:101BD00078C04AF179C04BF154C115F055C116F0E7
:101BE00056C117F057C118F048C119F049C11AF091
:101BF0004AC11BF04BC11CF020EC25F015C044F18C
:101C000016C045F117C046F118C047F1B0C115F034
:101C1000B1C116F0B2C117F0B3C118F0000E196EC1
:101C2000AA0E1A6EB80E1B6E3F0E1C6E20EC25F02D
:101C300015C074F116C075F117C076F118C077F1B0
:101C4000700E196EA50E1A6EEC0E1B6E360E1C6E03
:101C5000B0C115F0B1C116F0B2C117F0B3C118F0A0
:101C600020EC25F015C076F016C077F017C078F09C
:101C700018C079F03B0E196EAA0E1A6EB80E1B6EC4
:101C80003F0E1C6E44C115F045C116F046C117F059
:101C900047C118F020EC25F015C07AF016C07BF093
:101CA00017C07CF018C07DF04FEC31F076C078F1B1
:101CB00077C079F178C07AF179C07BF174C166F0B0
:101CC00075C167F076C168F077C169F078C16AF0D4
:101CD00079C16BF07AC16CF07BC16DF061EC20F0E2
:101CE00066C084F167C085F168C086F169C087F17C
:101CF00084C1B8F185C1B9F186C1BAF187C1BBF120
:101D0000B8C194F1B9C195F1BAC196F1BBC197F1CF
:101D1000000E01019415B86FF00E9515B96FFF0E06
:101D20009615BA6FFF0E9715BB6FB8C184F1B9C194
:101D300085F1BAC186F1BBC187F174C17AF075C172
:101D40007BF076C17CF077C17DF084C176F085C1EF
:101D500077F086C178F087C179F04FEC31F076C02A
:101D600098F177C099F178C09AF179C09BF178C168
:101D700076F079C177F07AC178F07BC179F098C1BB
:101D80007AF099C17BF09AC17CF09BC17DF04FEC59
:101D900031F076C01CF177C01DF178C01EF179C01A
:101DA0001FF15AEF16F0000E806F000E816F000ECB
:101DB000826F000E836FABBFE9EF0EF0AB5107E10E
:101DC000800EAA5DD8B0E7EF0EF0E9EF0EF01CEF41
:101DD0000FF070C115F071C116F072C117F073C128
:101DE00018F0000E196E000E1A6E800E1B6E4B0E50
:101DF0001C6E20EC25F015C070F116C071F117C0F3
:101E000072F118C073F1E80E01018027FF0E8123E3
:101E1000FF0E8223FF0E832370C1B8F171C1B9F1A7
:101E200072C1BAF173C1BBF1B8C1A8F1B9C1A9F1CE
:101E3000BAC1AAF1BBC1ABF1170E0001C36FA8C1B3
:101E4000C4F0A9C1C5F0AAC1C6F0ABC1C7F0C36751
:101E50002CEF0FF034EF0FF0C735C733C633C5335F
:101E6000C433C32F27EF0FF0810E0001C425C86FC4
:101E7000FF0EC521C96FFF0EC621CA6FFF0EC72115
:101E8000CB6FC851010180270001C9510101812395
:101E90000001CA51010182230001CB5101018323BA
:101EA000FF0EA815AC6FFF0EA915AD6F7F0EAA151A
:101EB000AE6F000EAB15AF6F000EAC11A86F000E29
:101EC000AD11A96F800EAE11AA6F3F0EAF11AB6FAF
:101ED000AFBF7AEF0FF0AF510BE1720EAC5DC40EE5
:101EE000AD591C0EAE59D8B078EF0FF07AEF0FF065
:101EF00084EF0FF0000EA06F000EA16F000EA26F16
:101F0000000EA36FB6EF0FF0AFBF96EF0FF0AF511B
:101F10000BE1D70EAC5DB30EAD595D0EAE59D8B026
:101F200094EF0FF096EF0FF0A0EF0FF0010EA06FFF
:101F3000000EA16F000EA26F000EA36FB6EF0FF0A0
:101F4000000EA06F000EA16F000EA26F000EA36F17
:101F5000010E8027000E812382238323000EA827F1
:101F6000000EA923800EAA23FF0EAB23A8C1B8F14F
:101F7000A9C1B9F1AAC1BAF1ABC1BBF1B8C170F145
:101F8000B9C171F1BAC172F1BBC173F170C176F020
:101F900071C177F072C178F073C179F0A0C1C3F05C
:101FA000A1C1C4F00001D890C337C437D890C3375B
:101FB000C437690EC325F66E100EC421F76EF86A99
:101FC000000EF8220900F5CF7AF00900F5CF7BF07A
:101FD0000900F5CF7CF00A00F5CF7DF04FEC31F031
:101FE00076C074F177C075F178C076F179C077F179
:101FF000000E00017E6F000E7F6F800E806F3F0E1F
:10200000816F70C16AF071C16BF072C16CF073C105
:102010006DF0A0C1C3F0A1C1C4F0D890C337C437DC
:10202000D890C337C437690EC325F66E100EC4218D
:10203000F76EF86A000EF8220900F5CF66F0090085
:10204000F5CF67F00900F5CF68F00A00F5CF69F029
:1020500061EC20F066C082F067C083F068C084F055
:1020600069C085F035EC27F07EC078F17FC079F14A
:1020700080C07AF181C07BF174C115F075C116F092
:1020800076C117F077C118F078C119F079C11AF04C
:102090007AC11BF07BC11CF020EC25F015C05CF16F
:1020A00016C05DF117C05EF118C05FF15CC16CF144
:1020B0005DC16DF15EC16EF15FC16FF16CC1B8F1D0
:1020C0006DC1B9F16EC1BAF16FC1BBF1B8C194F184
:1020D000B9C195F1BAC196F1BBC197F1000E0101EA
:1020E0009415B86FF00E9515B96FFF0E9615BA6F6F
:1020F000FF0E9715BB6FB8C16CF1B9C16DF1BAC1D4
:102100006EF1BBC16FF1A8C1C3F0A9C1C4F0AAC1EF
:10211000C5F0ABC1C6F00001C635C633C533C43304
:10212000C333000EC315C76FF00EC415C86FFF0E82
:10213000C515C96FFF0EC615CA6F000EC711010184
:10214000946F000E0001C8110101956F000E00018F
:10215000C9110101966F200E0001CA110101976F8C
:10216000A0C1C3F0A1C1C4F0A2C1C5F0A3C1C6F013
:10217000150ED8900001C337C437C537C637E82ECF
:10218000B9EF10F0010194510001C325C76F01019F
:1021900095510001C421C86F010196510001C5216C
:1021A000C96F010197510001C621CA6F000EC725F2
:1021B0000101B86F000E0001C8210101B96F400E86
:1021C0000001C9210101BA6F000E0001CA210101FD
:1021D000BB6FB8C168F1B9C169F1BAC16AF1BBC1DD
:1021E0006BF1A0C1C3F0A1C1C4F00001D890C33706
:1021F000C437D890C337C437690EC325F66E100EA6
:10220000C421F76EF86A000EF8220900F5CF7AF0C3
:102210000900F5CF7BF00900F5CF7CF00A00F5CF7F
:102220007DF068C176F069C177F06AC178F06BC162
:1022300079F04FEC31F076C098F177C099F178C021
:102240009AF179C09BF170C176F071C177F072C1DB
:1022500078F073C179F098C17AF099C17BF09AC196
:102260007CF09BC17DF04FEC31F076C034F177C04B
:1022700035F178C036F179C037F168C119F069C11C
:102280001AF06AC11BF06BC11CF06CC115F06DC176
:1022900016F06EC117F06FC118F020EC25F015C0D4
:1022A0007AF016C07BF017C07CF018C07DF074C1C6
:1022B00076F075C177F076C178F077C179F04FECA0
:1022C00031F076C098F177C099F178C09AF179C071
:1022D0009BF134C119F035C11AF036C11BF037C17A
:1022E0001CF06CC115F06DC116F06EC117F06FC116
:1022F00018F020EC25F015C07AF016C07BF017C05E
:102300007CF018C07DF098C176F099C177F09AC141
:1023100078F09BC179F04FEC31F076C054F177C082
:1023200055F178C056F179C057F154C115F055C137
:1023300016F056C117F057C118F078C119F079C1DD
:102340001AF07AC11BF07BC11CF020EC25F015C0FF
:1023500030F116C031F117C032F118C033F15CC151
:1023600015F05DC116F05EC117F05FC118F05CC1D9
:1023700019F05DC11AF05EC11BF05FC11CF020ECCA
:1023800025F015C08CF116C08DF117C08EF118C064
:102390008FF1550E00016A6F320E6B6F6C0E6C6F11
:1023A0003E0E6D6F420E196EF10E1A6E530E1B6EBD
:1023B0003E0E1C6E8CC115F08DC116F08EC117F04B
:1023C0008FC118F020EC25F015C066F016C067F03C
:1023D00017C068F018C069F061EC20F066C0A4F185
:1023E00067C0A5F168C0A6F169C0A7F1050E00019C
:1023F0006A6FA30E6B6F8B0E6C6F3E0E6D6F8CC190
:1024000019F08DC11AF08EC11BF08FC11CF0A4C150
:1024100015F0A5C116F0A6C117F0A7C118F020EC61
:1024200025F015C066F016C067F017C068F018C038
:1024300069F061EC20F066C054F167C055F168C0E6
:1024400056F169C057F1AB0E00016A6FAA0E6B6FAF
:10245000AA0E6C6F3E0E6D6F8CC119F08DC11AF013
:102460008EC11BF08FC11CF054C115F055C116F080
:1024700056C117F057C118F020EC25F015C066F0D2
:1024800016C067F017C068F018C069F061EC20F062
:1024900066C048F167C049F168C04AF169C04BF1B4
:1024A000B70E00016A6F6D0E6B6FDB0E6C6F3E0E28
:1024B0006D6F8CC119F08DC11AF08EC11BF08FC1E8
:1024C0001CF048C115F049C116F04AC117F04BC1C4
:1024D00018F020EC25F015C066F016C067F017C0A4
:1024E00068F018C069F061EC20F066C038F167C090
:1024F00039F168C03AF169C03BF19A0E00016A6F88
:10250000990E6B6F190E6C6F3F0E6D6F8CC119F0C9
:102510008DC11AF08EC11BF08FC11CF038C115F0AF
:1025200039C116F03AC117F03BC118F020EC25F084
:1025300015C066F016C067F017C068F018C069F0E3
:1025400061EC20F066C000F167C001F168C002F1E3
:1025500069C003F18CC119F08DC11AF08EC11BF056
:102560008FC11CF08CC115F08DC116F08EC117F013
:102570008FC118F020EC25F015C004F116C005F14C
:1025800017C006F118C007F100C115F001C116F01F
:1025900002C117F003C118F004C119F005C11AF007
:1025A00006C11BF007C11CF020EC25F015C04CF152
:1025B00016C04DF117C04EF118C04FF130C119F0DF
:1025C00031C11AF032C11BF033C11CF05CC16AF09A
:1025D0005DC16BF05EC16CF05FC16DF06CC166F007
:1025E0006DC167F06EC168F06FC169F061EC20F0F9
:1025F00066C015F067C016F068C017F069C018F023
:1026000020EC25F015C058F116C059F117C05AF149
:1026100018C05BF14CC166F04DC167F04EC168F067
:102620004FC169F058C16AF059C16BF05AC16CF0E2
:102630005BC16DF061EC20F066C04CF167C04DF1FC
:1026400068C04EF169C04FF16CC115F06DC116F054
:102650006EC117F06FC118F06CC119F06DC11AF09E
:102660006EC11BF06FC11CF020EC25F015C08CF181
:1026700016C08DF117C08EF118C08FF1000E000149
:102680006A6F000E6B6F400E6C6F400E6D6F8CC1E9
:1026900066F08DC167F08EC168F08FC169F061ECA2
:1026A00020F066C058F167C059F168C05AF169C09E
:1026B0005BF158C166F059C167F05AC168F05BC15F
:1026C00069F04CC16AF04DC16BF04EC16CF04FC166
:1026D0006DF061EC20F066C068F167C069F168C018
:1026E0006AF169C06BF168C1B8F169C1B9F16AC139
:1026F000BAF16BC1BBF1B8C194F1B9C195F1BAC1DE
:1027000096F1BBC197F1000E01019415B86FF00E60
:102710009515B96FFF0E9615BA6FFF0E9715BB6F23
:10272000B8C168F1B9C169F1BAC16AF1BBC16BF155
:10273000000E00016A6F000E6B6F400E6C6FC00ED2
:102740006D6F68C166F069C167F06AC168F06BC1FE
:1027500069F061EC20F066C03CF167C03DF168C0F3
:102760003EF169C03FF18CC17AF08DC17BF08EC122
:102770007CF08FC17DF03CC176F03DC177F03EC169
:1027800078F03FC179F04FEC31F076C040F177C07E
:1027900041F178C042F179C043F14CC176F04DC1AE
:1027A00077F04EC178F04FC179F040C17AF041C165
:1027B0007BF042C17CF043C17DF04FEC31F076C03C
:1027C00034F177C035F178C036F179C037F16CC19A
:1027D00015F06DC116F06EC117F06FC118F068C129
:1027E00019F069C11AF06AC11BF06BC11CF020EC32
:1027F00025F015C074F116C075F117C076F118C038
:1028000077F168C119F069C11AF06AC11BF06BC198
:102810001CF030C115F031C116F032C117F033C1D0
:1028200018F020EC25F015C066F016C067F017C050
:1028300068F018C069F05CC119F05DC11AF05EC1A2
:102840001BF05FC11CF034C115F035C116F036C164
:1028500017F037C118F020EC25F015C06AF016C04B
:102860006BF017C06CF018C06DF061EC20F066C022
:1028700078F167C079F168C07AF169C07BF174C101
:1028800066F075C167F076C168F077C169F078C10C
:102890006AF079C16BF07AC16CF07BC16DF061ECCC
:1028A00020F066C09CF167C09DF168C09EF169C0D0
:1028B0009FF19CC1B8F19DC1B9F19EC1BAF19FC110
:1028C000BBF1B8C194F1B9C195F1BAC196F1BBC1E0
:1028D00097F1000E01019415B86FF00E9515B96FC0
:1028E000FF0E9615BA6FFF0E9715BB6FB8C19CF11E
:1028F000B9C19DF1BAC19EF1BBC19FF174C17AF01B
:1029000075C17BF076C17CF077C17DF09CC176F01B
:102910009DC177F09EC178F09FC179F04FEC31F006
:1029200076C098F177C099F178C09AF179C09BF19F
:1029300078C176F079C177F07AC178F07BC179F00F
:1029400098C17AF099C17BF09AC17CF09BC17DF06F
:102950004FEC31F076C064F177C065F178C066F174
:1029600079C067F19CC115F09DC116F09EC117F0AA
:102970009FC118F0000E196E400E1A6E760E1B6E77
:102980003F0E1C6E20EC25F015C020F116C021F181
:1029900017C022F118C023F14F0E196E380E1A6EAF
:1029A000760E1B6E3F0E1C6E64C115F065C116F0ED
:1029B00066C117F067C118F020EC25F015C06AF069
:1029C00016C06BF017C06CF018C06DF0C60E196E13
:1029D000230E1A6EF60E1B6EB80E1C6E9CC115F0FF
:1029E0009DC116F09EC117F09FC118F020EC25F094
:1029F00015C066F016C067F017C068F018C069F01F
:102A000061EC20F066C058F167C059F168C05AF116
:102A100069C05BF158C166F059C167F05AC168F0EE
:102A20005BC169F0A0C1C3F0A1C1C4F00001D8909E
:102A3000C337C437D890C337C437010EC325F66EE9
:102A4000100EC421F76EF86A000EF8220900F5CFC7
:102A50006AF00900F5CF6BF00900F5CF6CF00A00C1
:102A6000F5CF6DF061EC20F066C024F167C025F170
:102A700068C026F169C027F180C12EF081C12FF016
:102A800082C130F083C131F0010E9EEC2BF02EC0DC
:102A9000B0F12FC0B1F130C0B2F131C0B3F124C1F7
:102AA0006AF025C16BF026C16CF027C16DF020C122
:102AB00066F021C167F022C168F023C169F061ECC2
:102AC00020F066C058F167C059F168C05AF169C07A
:102AD0005BF1A0C1C3F0A1C1C4F00001D890C3371D
:102AE000C437D890C337C437090EC325F66E100E0D
:102AF000C421F76EF86A000EF8220900F5CF6AF0DB
:102B00000900F5CF6BF00900F5CF6CF00A00F5CFA6
:102B10006DF058C166F059C167F05AC168F05BC1E9
:102B200069F061EC20F066C008F167C009F168C087
:102B30000AF169C00BF108C166F009C167F00AC16A
:102B400068F00BC169F0B0C16AF0B1C16BF0B2C1FD
:102B50006CF0B3C16DF061EC20F066C084F167C029
:102B600085F168C086F169C087F184C1B8F185C17B
:102B7000B9F186C1BAF187C1BBF1B8C194F1B9C14D
:102B800095F1BAC196F1BBC197F1000E0101941500
:102B9000B86FF00E9515B96FFF0E9615BA6FFF0E50
:102BA0009715BB6FB8C184F1B9C185F1BAC186F17F
:102BB000BBC187F1B0C17AF0B1C17BF0B2C17CF08A
:102BC000B3C17DF084C176F085C177F086C178F01D
:102BD00087C179F04FEC31F076C098F177C099F168
:102BE00078C09AF179C09BF1A0C1C3F0A1C1C4F033
:102BF0000001D890C337C437D890C337C437090E03
:102C0000C325F66E100EC421F76EF86A000EF82286
:102C10000900F5CF7AF00900F5CF7BF00900F5CF78
:102C20007CF00A00F5CF7DF098C176F099C177F07D
:102C30009AC178F09BC179F04FEC31F076C040F149
:102C400077C041F178C042F179C043F120C17AF0F8
:102C500021C17BF022C17CF023C17DF040C176F020
:102C600041C177F042C178F043C179F04FEC31F0C7
:102C700076C00CF177C00DF178C00EF179C00FF17C
:102C800024C176F025C177F026C178F027C179F00C
:102C90000CC17AF00DC17BF00EC17CF00FC17DF04C
:102CA0004FEC31F076C01CF177C01DF178C01EF1F9
:102CB00079C01FF1BFC0B8F1C0C0B9F1C1C0BAF14D
:102CC000C2C0BBF1B8C194F1B9C195F1BAC196F1D6
:102CD000BBC197F1000E01019415B86FF00E951568
:102CE000B96FFF0E9615BA6FFF0E9715BB6FB8C17F
:102CF00028F1B9C129F1BAC12AF1BBC12BF184C1B4
:102D000019F085C11AF086C11BF087C11CF028C1DB
:102D10007AF029C17BF02AC17CF02BC17DF0BFC0C5
:102D200076F0C0C077F0C1C078F0C2C079F04FEC47
:102D300031F076C015F077C016F078C017F079C082
:102D400018F020EC25F015C010F116C011F117C0D5
:102D500012F118C013F110C166F011C167F012C171
:102D600068F013C169F01CC119F01DC11AF01EC131
:102D70001BF01FC11CF0BFC015F0C0C016F0C1C0D1
:102D800017F0C2C018F020EC25F015C06AF016C08C
:102D90006BF017C06CF018C06DF061EC20F066C0ED
:102DA00064F167C065F168C066F169C067F128C168
:102DB00015F029C116F02AC117F02BC118F084C1F3
:102DC00019F085C11AF086C11BF087C11CF020ECF8
:102DD00025F015C09CF116C09DF117C09EF118C0DA
:102DE0009FF164C166F065C167F066C168F067C1B4
:102DF00069F09CC16AF09DC16BF09EC16CF09FC1EF
:102E00006DF061EC20F066C0B4F167C0B5F168C048
:102E1000B6F169C0B7F1B4C1B8F1B5C1B9F1B6C185
:102E2000BAF1B7C1BBF1B8C1ACF1B9C1ADF1BAC12A
:102E3000AEF1BBC1AFF10101AFBF2BEF17F0AC0595
:102E4000000EAD59000EAE59430EAF59D8A02BEF6E
:102E500017F02DEF17F063EF17F0CA0E196EF20E90
:102E60001A6E490E1B6E710E1C6E88C115F089C159
:102E700016F08AC117F08BC118F020EC25F015C0B0
:102E8000A4F116C0A5F117C0A6F118C0A7F1A4C1FE
:102E900015F0A5C116F0A6C117F0A7C118F0CA0E0B
:102EA000196EF20E1A6E490E1B6E710E1C6E20EC1E
:102EB00025F015C0BBF016C0BCF017C0BDF018C09F
:102EC000BEF06DEF1DF0430EAF19AC11AD11AE1198
:102ED000D8A46DEF17F06FEF17F0E4EF17F09CC177
:102EE0007AF09DC17BF09EC17CF09FC17DF0B4C1A2
:102EF00076F0B5C177F0B6C178F0B7C179F04FEC94
:102F000031F076C07EF077C07FF078C080F079C075
:102F100081F03C0E00016A6FAA0E6B6F380E6C6F69
:102F2000330E6D6F64C166F065C167F066C168F00D
:102F300067C169F061EC20F066C082F067C083F081
:102F400068C084F069C085F00DEC30F00001D8B0A5
:102F5000ACEF17F0AEEF17F0AFEF18F0CA0E196E26
:102F6000F20E1A6E490E1B6E710E1C6E88C115F0A2
:102F700089C116F08AC117F08BC118F020EC25F03A
:102F800015C0A4F116C0A5F117C0A6F118C0A7F18D
:102F9000A4C115F0A5C116F0A6C117F0A7C118F07D
:102FA000CA0E196EF20E1A6E490E1B6E710E1C6E51
:102FB00020EC25F015C0BBF016C0BCF017C0BDF06A
:102FC00018C0BEF06DEF1DF0FF0EAC150001C36F11
:102FD000FF0E0101AD150001C46FFF0E0101AE151A
:102FE0000001C56F7F0E0101AF150001C66FC6BF9E
:102FF00006EF18F0C305000EC459160EC559430E4E
:10300000C659D8A006EF18F008EF18F03EEF18F0F8
:10301000600E196E420E1A6EA20E1B6E0D0E1C6E05
:1030200088C115F089C116F08AC117F08BC118F05C
:1030300020EC25F015C0A4F116C0A5F117C0A6F12B
:1030400018C0A7F1A4C115F0A5C116F0A6C117F0CC
:10305000A7C118F0600E196E420E1A6EA20E1B6EFA
:103060000D0E1C6E20EC25F015C0BBF016C0BCF098
:1030700017C0BDF018C0BEF06DEF1DF0160E0101B7
:10308000AE1909E1C30EAF19AC11AD11D8A44BEFC5
:1030900018F04DEF18F0AFEF18F09CC17AF09DC119
:1030A0007BF09EC17CF09FC17DF0B4C176F0B5C1CC
:1030B00077F0B6C178F0B7C179F04FEC31F076C057
:1030C0007EF077C07FF078C080F079C081F064C175
:1030D00082F065C183F066C184F067C185F00DECB4
:1030E00030F00001D8A077EF18F079EF18F0AFEFCB
:1030F00018F0600E196E420E1A6EA20E1B6E0D0EA7
:103100001C6E88C115F089C116F08AC117F08BC1F9
:1031100018F020EC25F015C0A4F116C0A5F117C0D9
:10312000A6F118C0A7F1A4C115F0A5C116F0A6C15B
:1031300017F0A7C118F0600E196E420E1A6EA20E9B
:103140001B6E0D0E1C6E20EC25F015C0BBF016C0DA
:10315000BCF017C0BDF018C0BEF06DEF1DF0FF0E43
:103160000101AC152C6FFF0EAD152D6FFF0EAE15C6
:103170002E6F7F0EAF152F6F170E0001C36F2CC17E
:10318000C4F02DC1C5F02EC1C6F02FC1C7F0C36772
:10319000CCEF18F0D4EF18F0C735C733C633C533BA
:1031A000C433C32FC7EF18F0810E0001C4250101FD
:1031B000A06FFF0E0001C5210101A16FFF0E0001EC
:1031C000C6210101A26FFF0E0001C7210101A36FFB
:1031D000000E806F000E816F000E826F000E836FF5
:1031E0002FBFFFEF18F02C05000E2D59000E2E59A1
:1031F0003F0E2F59D8A0FFEF18F001EF19F005EF9F
:103200001AF0A0C1C3F0010E0001C327000EC46F65
:10321000000EC56F800EC66F000EC76FC36713EF39
:1032200019F01BEF19F0C735C733C633C533C433A4
:10323000C32F0EEF19F00101AC510001C4250101AB
:10324000806FAD510001C5210101816FAE510001B8
:10325000C6210101826FAF510001C7210101836FB7
:10326000810E0001C36FFF0EC46FFF0EC56FFF0E0E
:10327000C66F170EC76F80C1C8F081C1C9F082C187
:10328000CAF083C1CBF0C76748EF19F050EF19F0CF
:10329000CB35CB33CA33C933C833C72F43EF19F00B
:1032A0000001C851C3250101A06F000E0001C42117
:1032B0000101A16F000E0001C5210101A26F000EE6
:1032C0000001C6210101A36FA0C1C3F0FF0E0001E0
:1032D000C46FFF0EC56F7F0EC66F000EC76FC3674A
:1032E00074EF19F07CEF19F0C735C733C633C53317
:1032F000C433C32F6FEF19F00001C41DC86FC51D83
:10330000C96FC61DCA6FC71DCB6F01018051000177
:10331000C8150101B86F81510001C9150101B96FCC
:1033200082510001CA150101BA6F83510001CB150A
:103330000101BB6FB8C1B0F1B9C1B1F1BAC1B2F10D
:10334000BBC1B3F1A05117080001C36FFF0E01010B
:1033500080150001C46FFF0E010181150001C56FCA
:103360007F0E010182150001C66F000E0101831559
:103370000001C76F000EC411C86F000EC511C96FE0
:10338000800EC611CA6F000EC711CB6FC367CBEF9B
:1033900019F0D3EF19F0CB35CB33CA33C933C83367
:1033A000C32FC6EF19F0C8C080F1C9C081F1CAC0EF
:1033B00082F1CBC083F10101AFBFE3EF19F0E1EF80
:1033C00019F0EBEF19F0831F821F811F806D000E33
:1033D0008123822383239CC176F09DC177F09EC117
:1033E00078F09FC179F0B0C17AF0B1C17BF0B2C181
:1033F0007CF0B3C17DF04FEC31F076C09CF177C02A
:103400009DF178C09EF179C09FF164C166F065C1FD
:1034100067F066C168F067C169F09CC16AF09DC140
:103420006BF09EC16CF09FC16DF061EC20F066C046
:10343000B0F167C0B1F168C0B2F169C0B3F1B0C119
:10344000B8F1B1C1B9F1B2C1BAF1B3C1BBF1B8C100
:1034500094F1B9C195F1BAC196F1BBC197F1000ED3
:1034600001019415B86F800E9515B96FFF0E961572
:10347000BA6FFF0E9715BB6FB8C1B0F1B9C1B1F10A
:10348000BAC1B2F1BBC1B3F1B0C115F0B1C116F010
:10349000B2C117F0B3C118F0000E196E720E1A6E99
:1034A000310E1B6E3F0E1C6E20EC25F015C074F122
:1034B00016C075F117C076F118C077F19CC17AF08B
:1034C0009DC17BF09EC17CF09FC17DF0B0C176F0C4
:1034D000B1C177F0B2C178F0B3C179F04FEC31F0FF
:1034E00076C098F177C099F178C09AF179C09BF1D4
:1034F000180E196E720E1A6E310E1B6E3F0E1C6E78
:1035000098C17AF099C17BF09AC17CF09BC17DF0A3
:1035100064C176F065C177F066C178F067C179F073
:103520004FEC31F076C015F077C016F078C017F088
:1035300079C018F020EC25F015C014F116C015F173
:1035400017C016F118C017F114C166F015C167F065
:1035500016C168F017C169F08C0E196EBE0E1A6E96
:10356000BF0E1B6E350E1C6EB0C115F0B1C116F04A
:10357000B2C117F0B3C118F020EC25F015C06AF005
:1035800016C06BF017C06CF018C06DF061EC20F045
:1035900066C078F167C079F168C07AF169C07BF1E3
:1035A00074C166F075C167F076C168F077C169F0E3
:1035B00078C16AF079C16BF07AC16CF07BC16DF0B3
:1035C00061EC20F066C0B4F167C0B5F168C0B6F137
:1035D00069C0B7F174C17AF075C17BF076C17CF037
:1035E00077C17DF0B4C176F0B5C177F0B6C178F09F
:1035F000B7C179F04FEC31F076C098F177C099F10E
:1036000078C09AF179C09BF178C176F079C177F0F2
:103610007AC178F07BC179F098C17AF099C17BF0DA
:103620009AC17CF09BC17DF04FEC31F076C044F143
:1036300077C045F178C046F179C047F1B4C115F0C3
:10364000B5C116F0B6C117F0B7C118F0B4C119F082
:10365000B5C11AF0B6C11BF0B7C11CF020EC25F0C3
:1036600015C0B0F116C0B1F117C0B2F118C0B3F176
:103670000E0E00016A6FEA0E6B6FDD0E6C6FB50EF9
:103680006D6F4C0E196EBB0E1A6E310E1B6E330E23
:103690001C6EB0C115F0B1C116F0B2C117F0B3C1C4
:1036A00018F020EC25F015C066F016C067F017C0C2
:1036B00068F018C069F061EC20F066C0A4F167C042
:1036C000A5F168C0A6F169C0A7F1550E00016A6FA7
:1036D000B30E6B6F8A0E6C6F380E6D6FB0C119F040
:1036E000B1C11AF0B2C11BF0B3C11CF0A4C115F0F6
:1036F000A5C116F0A6C117F0A7C118F020EC25F05F
:1037000015C066F016C067F017C068F018C069F001
:1037100061EC20F066C054F167C055F168C056F105
:1037200069C057F1610E00016A6F0B0E6B6F360EA8
:103730006C6FBB0E6D6FB0C119F0B1C11AF0B2C1A0
:103740001BF0B3C11CF054C115F055C116F056C1A1
:1037500017F057C118F020EC25F015C066F016C020
:1037600067F017C068F018C069F061EC20F066C01F
:1037700048F167C049F168C04AF169C04BF1AB0E2E
:1037800000016A6FAA0E6B6F2A0E6C6F3E0E6D6F92
:10379000B0C119F0B1C11AF0B2C11BF0B3C11CF035
:1037A00048C115F049C116F04AC117F04BC118F0D5
:1037B00020EC25F015C066F016C067F017C068F061
:1037C00018C069F061EC20F066C038F167C039F1CB
:1037D00068C03AF169C03BF1B4C176F0B5C177F089
:1037E000B6C178F0B7C179F0B0C119F0B1C11AF023
:1037F000B2C11BF0B3C11CF038C115F039C116F0CD
:103800003AC117F03BC118F020EC25F015C07AF052
:1038100016C07BF017C07CF018C07DF04FEC31F083
:1038200076C084F177C085F178C086F179C087F1E0
:10383000000E00016A6F000E6B6F000E6C6FC00E01
:103840006D6F84C166F085C167F086C168F087C17D
:1038500069F061EC20F066C082F067C083F068C058
:1038600084F069C085F084C119F085C11AF086C161
:103870001BF087C11CF0B4C115F0B5C116F0B6C17C
:1038800017F0B7C118F020EC25F015C07EF016C077
:103890007FF017C080F018C081F035EC27F07EC0B3
:1038A0003CF17FC03DF180C03EF181C03FF144C199
:1038B0006AF045C16BF046C16CF047C16DF044C180
:1038C00019F045C11AF046C11BF047C11CF0B4C144
:1038D00015F0B5C116F0B6C117F0B7C118F020EC5D
:1038E00025F015C066F016C067F017C068F018C064
:1038F00069F061EC20F066C018F167C019F168C08A
:103900001AF169C01BF13CC176F03DC177F03EC1B0
:1039100078F03FC179F018C17AF019C17BF01AC173
:103920007CF01BC17DF04FEC31F076C04CF177C0DC
:103930004DF178C04EF179C04FF1B4C17AF0B5C104
:103940007BF0B6C17CF0B7C17DF04CC176F04DC1C3
:1039500077F04EC178F04FC179F04FEC31F076C07E
:1039600098F177C099F178C09AF179C09BF1000E77
:103970000001766F000E776F800E786F3F0E796FC3
:1039800098C17AF099C17BF09AC17CF09BC17DF01F
:103990004FEC31F076C0B4F177C0B5F178C0B6F134
:1039A00079C0B7F1B4C1B8F1B5C1B9F1B6C1BAF1D6
:1039B000B7C1BBF1B8C1ACF1B9C1ADF1BAC1AEF19B
:1039C000BBC1AFF180C1C3F081C1C4F082C1C5F0F9
:1039D00083C1C6F0170ED8900001C337C437C5376E
:1039E000C637E82EEBEF1CF0C3510101AC270001F4
:1039F000C4510101AD230001C5510101AE230001F5
:103A0000C6510101AF23170E0001C36FACC1C4F052
:103A1000ADC1C5F0AEC1C6F0AFC1C7F0C36713EF0B
:103A20001DF01BEF1DF0C735C733C633C533C43394
:103A3000C32F0EEF1DF00001C7BF2BEF1DF0C751C4
:103A4000C611C51106E1C405D8B029EF1DF02BEF52
:103A50001DF043EF1DF0B4C12EF0B5C12FF0B6C17B
:103A600030F0B7C131F080C132F081C133F084EC65
:103A70002AF02EC0B4F12FC0B5F130C0B6F131C07C
:103A8000B7F153EF1DF0ACC1B8F1ADC1B9F1AEC1A2
:103A9000BAF1AFC1BBF1B8C1B4F1B9C1B5F1BAC1A6
:103AA000B6F1BBC1B7F188C115F089C116F08AC162
:103AB00017F08BC118F0B4C119F0B5C11AF0B6C136
:103AC0001BF0B7C11CF020EC25F015C0BBF016C0F0
:103AD000BCF017C0BDF018C0BEF01200000E00010F
:103AE000696F000E686F140E3E183F10D8A47BEF6C
:103AF0001DF07DEF1DF07FEF1DF060EF20F03E50D8
:103B00003F10D8A486EF1DF088EF1DF024EF1EF0C3
:103B1000000E416E000E406E40C015F041C016F020
:103B2000000E186E190E176EF8EC31F0D40E152435
:103B3000D96E010E1620DA6E1BC0DEFF1CC0DEFF40
:103B40001DC0DEFF1EC0DEFF1FC0DEFF20C0DEFF87
:103B500021C0DEFF22C0DEFF40C015F041C016F0DC
:103B6000000E186E190E176EF8EC31F0CC0E1524FD
:103B7000D96E010E1620DA6E23C0DEFF24C0DEFFF0
:103B800025C0DEFF26C0DEFF27C0DEFF28C0DEFF27
:103B900029C0DEFF2AC0DEFF40C015F041C016F08C
:103BA000000E186E190E176EF8EC31F0DC0E1524AD
:103BB000D96E010E1620DA6E000EDE6E000EDD6E7E
:103BC00040C015F041C016F0000E186E190E176EA9
:103BD000F8EC31F0DE0E1524D96E010E1620DA6EE7
:103BE0002BC0DEFF2CC0DEFF2DC0DEFF40C015F075
:103BF00041C016F0000E186E190E176EF8EC31F079
:103C0000E10E1524D96E010E1620DA6EFF0EDE6E5F
:103C1000FF0EDD6E40C015F041C016F0000E186EAC
:103C2000190E176EF8EC31F0E30E1524D96E010E63
:103C30001620DA6E2EC0DEFF2FC0DDFF3E4A3F2A7F
:103C400060EF20F0684B692B68C015F069C016F072
:103C5000000E186E190E176EF8EC31F0DE0E1524FA
:103C6000D96E010E1620DA6EDE50DE10DE10D8B4EA
:103C70003CEF1EF03EEF1EF04DEF1EF0000169BF5D
:103C80004BEF1EF0695109E1140E685DD8A04BEFAF
:103C90001EF04DEF1EF022EF1EF040C066F041C056
:103CA00067F066C015F067C016F0000E186E190EAA
:103CB000176EF8EC31F0D40E1524D96E010E1620D3
:103CC000DA6EDE501B5CDE501C58DE501D58DE5094
:103CD0001E58DE501F58DE502058DE502158DE504E
:103CE0002258D8B076EF1EF078EF1EF0C6EF1EF027
:103CF00068C015F069C016F0000E186E190E176E28
:103D0000F8EC31F0E10E1524D96E010E1620DA6EB2
:103D100040C0DEFF41C0DDFF68C040F069C041F037
:103D200068C015F069C016F0000E186E190E176EF7
:103D3000F8EC31F0E10E1524D96E010E1620DA6E82
:103D4000DECF60F0DDCF61F060C015F061C016F02D
:103D5000000E186E190E176EF8EC31F0D40E152403
:103D6000D96E010E1620DA6E1B50DE5E1C50DE5A34
:103D70001D50DE5A1E50DE5A1F50DE5A2050DE5AA9
:103D80002150DE5A2250DE5AE0EF1FF066C064F088
:103D900067C065F066C015F067C016F0000E186EBB
:103DA000190E176EF8EC31F0E10E1524D96E010EE4
:103DB0001620DA6EDECF66F0DDCF67F064C015F056
:103DC00065C016F0000E186E190E176EF8EC31F083
:103DD000D40E1524D96E010E1620DA6EDE501B5E4D
:103DE000DE501C5ADE501D5ADE501E5ADE501F5A3D
:103DF000DE50205ADE50215ADD50225A38EF1FF093
:103E000066C015F067C016F0000E186E190E176E1A
:103E1000F8EC31F0D40E1524D96E010E1620DA6EAE
:103E2000DE501B5EDE501C5ADE501D5ADE501E5AFC
:103E3000DE501F5ADE50205ADE50215ADD50225AE1
:103E400066C064F067C065F066C015F067C016F024
:103E5000000E186E190E176EF8EC31F0E10E1524F5
:103E6000D96E010E1620DA6EDECF66F0DDCF67F078
:103E700066C015F067C016F0000E186E190E176EAA
:103E8000F8EC31F0D40E1524D96E010E1620DA6E3E
:103E9000DE501B5CDE501C58DE501D58DE501E5894
:103EA000DE501F58DE502058DE502158DE50225878
:103EB000D8A05DEF1FF05FEF1FF06AEF1FF0000169
:103EC000662906E16729D8A468EF1FF06AEF1FF0A2
:103ED00000EF1FF064C015F065C016F0000E186EFC
:103EE000190E176EF8EC31F0E10E1524D96E010EA3
:103EF0001620DA6E68C0DEFF69C0DDFF68C015F00D
:103F000069C016F0000E186E190E176EF8EC31F03D
:103F1000E10E1524D96E010E1620DA6E66C0DEFFA2
:103F200067C0DDFF68C015F069C016F0000E186E9E
:103F3000190E176EF8EC31F0E10E1524D96E010E52
:103F40001620DA6EDE2808E1DE28D8B4AAEF1FF0CA
:103F5000ACEF1FF0E0EF1FF068C015F069C016F07D
:103F6000000E186E190E176EF8EC31F0E10E1524E4
:103F7000D96E010E1620DA6EDECF62F0DDCF63F06F
:103F800062C015F063C016F0000E186E190E176EA1
:103F9000F8EC31F0D40E1524D96E010E1620DA6E2D
:103FA0001B50DE5E1C50DE5A1D50DE5A1E50DE5A7B
:103FB0001F50DE5A2050DE5A2150DE5A2250DE5A5F
:103FC00068C015F069C016F0000E186E190E176E55
:103FD000F8EC31F0D40E1524D96E010E1620DA6EED
:103FE0001BC0DEFF1CC0DEFF1DC0DEFF1EC0DEFFEB
:103FF0001FC0DEFF20C0DEFF21C0DEFF22C0DEFFCB
:1040000068C015F069C016F0000E186E190E176E14
:10401000F8EC31F0CC0E1524D96E010E1620DA6EB4
:1040200023C0DEFF24C0DEFF25C0DEFF26C0DEFF8A
:1040300027C0DEFF28C0DEFF29C0DEFF2AC0DEFF6A
:1040400068C015F069C016F0000E186E190E176ED4
:10405000F8EC31F0DC0E1524D96E010E1620DA6E64
:10406000000EDE6E000EDD6E68C015F069C016F041
:10407000000E186E190E176EF8EC31F0E30E1524D1
:10408000D96E010E1620DA6E2EC0DEFF2FC0DDFFC6
:1040900068C015F069C016F0000E186E190E176E84
:1040A000F8EC31F0DE0E1524D96E010E1620DA6E12
:1040B0002BC0DEFF2CC0DEFF2DC0DEFF1EEF1EF08A
:1040C000120000016951800B726F69516925746F8C
:1040D00068AF6DEF20F06FEF20F070EF20F074818B
:1040E0007451D8B476EF20F078EF20F08DEF20F007
:1040F0007429D8A47EEF20F080EF20F088EF20F024
:10410000000E666F000E676F000E686F000E696F1D
:10411000688F000E696F95EF20F0000E666F000E3D
:10412000676F000E686F000E696F6D51800B736FC3
:1041300072517319D8B49FEF20F0A1EF20F0A2EFD5
:1041400020F0728D6D516D25736F6CAFAAEF20F06A
:10415000ACEF20F0ADEF20F073817351D8B4B3EF22
:1041600020F0B5EF20F0CAEF20F07329D8A4BBEF00
:1041700020F0BDEF20F0C5EF20F0000E6A6F000EBA
:104180006B6F000E6C6F000E6D6F6C8F000E6D6F9D
:10419000D2EF20F0000E6A6F000E6B6F000E6C6F96
:1041A000000E6D6F7451735DD8B0D9EF20F0DBEF66
:1041B00020F002EF21F072ADE0EF20F0E2EF20F00E
:1041C000E4EF20F0800E721B74C075F073C074F0C1
:1041D00075C073F066C075F06AC066F075C06AF0AD
:1041E00067C075F06BC067F075C06BF068C075F0A4
:1041F0006CC068F075C06CF069C075F06DC069F096
:1042000075C06DF0000E756F745173C06EF06F6BFA
:104210006E5F000E6F5B6FBF17EF21F06F5109E10A
:104220001A0E6E5DD8A017EF21F019EF21F050EFB4
:1042300021F06651671168116911D8A422EF21F0AD
:1042400025EF21F0010E26EF21F0000E756F000E14
:10425000666F000E676F000E686F000E696F73C0A7
:1042600074F059EF21F075A138EF21F03AEF21F009
:1042700040EF21F0D89075310109756F42EF21F0C0
:10428000D890753366A147EF21F049EF21F04AEF4E
:1042900021F0758F69356933683367336633742B62
:1042A0007351745DD8A057EF21F059EF21F033EF2F
:1042B00021F072BD5EEF21F060EF21F0A0EF21F060
:1042C0007451D8A466EF21F068EF21F072EF21F06D
:1042D000000E666F000E676F000E686F000E696F4C
:1042E000C1EF22F06A5166276B5167236C51682336
:1042F0006D51692369A17FEF21F081EF21F02DEF4E
:1043000022F075A186EF21F088EF21F08EEF21F0E9
:10431000D89075310109756F90EF21F0D890753301
:1043200066A195EF21F097EF21F098EF21F0758FBE
:1043300069356933683367336633742B2DEF22F0A8
:104340006A51665D6B5167596C5168596951800AB1
:104350006E6F6D51800A6E59D8B0B1EF21F0B3EF96
:1043600021F0DEEF21F066516A5D6E6F67516B5987
:104370006F6F68516C59706F69516D59716FFF0E95
:104380006E25666FFF0E6F21676FFF0E7021686FDD
:10439000FF0E7121696F800E721B756D7551D8A467
:1043A000D4EF21F0D6EF21F0E6EF21F0010E6627E1
:1043B000000E672368236923E6EF21F06A51665FE8
:1043C0006B51675B6C51685B6D51695B665167113E
:1043D00068116911D8A4EFEF21F0F1EF21F026EF79
:1043E00022F07551D8A4F7EF21F0F9EF21F026EF74
:1043F00022F0000E666F000E676F000E686F000EF1
:10440000696FC1EF22F0D890663767376837693730
:1044100075AF0DEF22F00FEF22F010EF22F0668162
:1044200075A115EF22F017EF22F01BEF22F0D880D4
:1044300075371DEF22F0D89075377451D8B423EF3B
:1044400022F025EF22F026EF22F0740768AF2BEF61
:1044500022F02DEF22F003EF22F0000E736F75AF04
:1044600034EF22F036EF22F04EEF22F075C06EF0FE
:104470007F0E6E17D8B43FEF22F041EF22F045EFE8
:1044800022F0010E736F4EEF22F066A14AEF22F088
:104490004CEF22F04EEF22F041EF22F07351D8B4EE
:1044A00054EF22F056EF22F081EF22F0010E662742
:1044B000000E67236823692369A161EF22F063EF8F
:1044C00022F081EF22F066C06EF067C06FF068C026
:1044D00070F069C071F07135713370336F336E33C2
:1044E0006EC066F06FC067F070C068F071C069F0B0
:1044F0007429D8B47EEF22F080EF22F081EF22F011
:10450000742B7429D8B487EF22F089EF22F091EF51
:1045100022F07451D8A48FEF22F091EF22F0A3EF94
:1045200022F0000E666F000E676F000E686F000EBF
:10453000696F7451D8A49FEF22F0A1EF22F0A3EF8E
:1045400022F0000E726F74A1A8EF22F0AAEF22F001
:10455000ADEF22F0688FAEEF22F0689FD8907431F3
:10456000696F72AFB6EF22F0B8EF22F0B9EF22F028
:10457000698F66C066F067C067F068C068F069C0A0
:1045800069F012008AC09FF08BC0A0F08CC0A1F02F
:104590008DC0A2F09FC0B7F0A0C0B8F0A1C0B9F024
:1045A000A2C0BAF0000E0001B7158E6F000EB8154C
:1045B0008F6F800EB915906F7F0EBA15916F800EB8
:1045C000901909E17F0E91198E118F11D8A4EBEF8C
:1045D00022F0EDEF22F01BEF23F08AC019F08BC020
:1045E0001AF08CC01BF08DC01CF08AC015F08BC077
:1045F00016F08CC017F08DC018F020EC25F015C017
:1046000066F016C067F017C068F018C069F08AC07D
:104610006AF08BC06BF08CC06CF08DC06DF061ECFB
:1046200020F066C08AF067C08BF068C08CF069C06B
:104630008DF01FEF25F0BABF2AEF23F0BA51B91160
:10464000B81106E1B705D8B028EF23F02AEF23F020
:1046500066EF23F0FF0EB7158E6FFF0EB8158F6F44
:10466000FF0EB915906F7F0EBA15916F8E518F1195
:1046700090119111D8A43FEF23F041EF23F04BEFBD
:1046800023F08AC08AF08BC08BF08CC08CF08DC078
:104690008DF01FEF25F0BABF52EF23F050EF23F05B
:1046A00066EF23F0000EF06F210EEF6F7D0E156E9A
:1046B000100E166E1EEC32F015C08AF016C08BF08C
:1046C00017C08CF018C08DF01FEF25F0170E8E6FFD
:1046D000B7C08FF0B8C090F0B9C091F0BAC092F0F6
:1046E0008E6775EF23F07DEF23F09235923391338F
:1046F00090338F338E2F70EF23F08FC0AFF090C0C8
:10470000B0F091C0B1F092C0B2F00001AF51B01161
:10471000B111B211D8A48FEF23F091EF23F0C1EFC4
:1047200023F0000E9B6F000E9C6F000E9D6F000E1D
:104730009E6FA6EF23F0D890B737B837B937BA379E
:10474000010E9B27000E9C239D239E23B9AFABEF48
:1047500023F0ADEF23F09BEF23F0FF0E9B258E6F30
:10476000FF0E9C218F6FFF0E9D21906FFF0E9E21EB
:10477000916F8E51AF5F8F51B05B9051B15B915192
:10478000B25B810EAF27FF0EB023FF0EB123FF0EE9
:10479000B223FF0EB7158E6FFF0EB8158F6F7F0E09
:1047A000B915906F000EBA15916F000E8E11B76F8C
:1047B000000E8F11B86F800E9011B96F000E91111D
:1047C000BA6FAFA1E6EF23F0E8EF23F0F0EF23F0AC
:1047D000B751B727B851B823B951B923BA51BA2341
:1047E000B235B233B133B033AF33B751B727B85165
:1047F000B823B951B923BA51BA23000E976F000EEE
:10480000986F000E996F000E9A6F97C0A3F098C032
:10481000A4F099C0A5F09AC0A6F0000EB36F000EE8
:10482000B46F000EB56F010EB66F5FEF24F0B35199
:104830009725A76FB4519821A86FB5519921A96FF9
:10484000B6519A21AA6FA751B75DA851B859A9517D
:10485000B959BA51800A8E6FAA51800A8E59D8A0D0
:1048600034EF24F036EF24F052EF24F0B351A725B3
:10487000976FB451A821986FB551A921996FB6517E
:10488000AA219A6FA751B75FA851B85BA951B95B2C
:10489000AA51BA5BB351A327B451A423B551A523A0
:1048A000B651A623B751B727B851B823B951B92388
:1048B000BA51BA23D890B633B533B433B333B35106
:1048C000B411B511B611D8A468EF24F06AEF24F042
:1048D00017EF24F0B751B811B911BA11D8B473EF6A
:1048E00024F075EF24F0D5EF24F0000EAB6F000E2E
:1048F000AC6F800EAD6F3F0EAE6FABC07EF0ACC044
:104900007FF0ADC080F0AEC081F0000E826F000E6F
:10491000836F800E846F3F0E856F0DEC30F00001C9
:10492000D8A095EF24F097EF24F0D5EF24F0000EF7
:10493000AB6F000EAC6F800EAD6F3F0EAE6F000E12
:104940007E6F000E7F6F800E806F3F0E816FABC059
:1049500082F0ACC083F0ADC084F0AEC085F00DEC49
:1049600030F00001D8B0B7EF24F0B9EF24F0C1EF78
:1049700024F0020EA327000EA423A523A623D5EF1F
:1049800024F0010EA3158E6F000EA4158F6F000E7C
:10499000A515906F000EA615916F8E51A3278F510C
:1049A000A4239051A5239151A623A3C08EF0A4C0A7
:1049B0008FF0A5C090F0A6C091F09135913390335F
:1049C0008F338E33000E8E25B76F000E8F21B86F98
:1049D000000E9021B96F3F0E9121BA6FAFC08EF0DB
:1049E000B0C08FF0B1C090F0B2C091F0170ED89067
:1049F0008E378F3790379137E82EF7EF24F08E51AE
:104A0000B7278F51B8239051B9239151BA23B7C01A
:104A10009FF0B8C0A0F0B9C0A1F0BAC0A2F09FC08A
:104A2000ABF0A0C0ACF0A1C0ADF0A2C0AEF0ABC086
:104A30008AF0ACC08BF0ADC08CF0AEC08DF012002F
:104A40001850800B216E18501824276E17AE2BEFCC
:104A500025F02DEF25F02EEF25F027802750D8B434
:104A600034EF25F036EF25F049EF25F02728D8A4BC
:104A70003CEF25F03EEF25F046EF25F0000E156ED9
:104A8000000E166E000E176E000E186E178E51EF88
:104A900025F0000E156E000E166E000E176E000E3D
:104AA000186E1C50800B211A1C501C24226E1BAE49
:104AB0005CEF25F05EEF25F05FEF25F022802250BD
:104AC000D8B465EF25F067EF25F07AEF25F02228BE
:104AD000D8A46DEF25F06FEF25F077EF25F0000EED
:104AE000196E000E1A6E000E1B6E000E1C6E1B8ED1
:104AF00082EF25F0000E196E000E1A6E000E1B6E6E
:104B0000000E1C6E2250D8B488EF25F08AEF25F0F5
:104B100092EF25F02750D8A490EF25F092EF25F0E2
:104B20009CEF25F0000E156E000E166E000E176E2F
:104B3000000E186E34EF27F01B501502F3CF2CF047
:104B4000F4CF2DF02C50236E246A256A266A2D504E
:104B5000286E296A2A6A2B6A1A501602F3CF2CF0A3
:104B6000F4CF2DF02C502326000E242225222622BD
:104B70002D502826000E29222A222B2219501702F6
:104B8000F3CF2CF0F4CF2DF02C502326000E24224E
:104B9000252226222D502826000E29222A222B22C9
:104BA00025C026F024C025F023C024F0236A195024
:104BB0001602F3CF2CF0F4CF2DF02C5023262D50DD
:104BC0002422000E2522000E26221A501502F3CFB1
:104BD0002CF0F4CF2DF02C5023262D502422000E43
:104BE0002522000E262225C026F024C025F023C051
:104BF00024F0236A19501502F3CF2CF0F4CF2DF0D6
:104C00002C5023262D502422000E2522000E262271
:104C10001B501602F3CF2CF0F4CF2DF02C50282689
:104C20002D502922000E2A22000E2B221A50170284
:104C3000F3CF2CF0F4CF2DF02C5028262D50292224
:104C4000000E2A22000E2B221B501702F3CF2CF04D
:104C5000F4CF2DF02C501D6E2D501E6E1F6A206A51
:104C60001FC020F01EC01FF01DC01EF01D6A1D5089
:104C700028261E5029221F502A2220502B2223C0D2
:104C80001DF024C01EF025C01FF026C020F0190E14
:104C90004FEF26F0D89020321F321E321D32E82E00
:104CA0004AEF26F01D5028261E5029221F502A2286
:104CB00020502B2225C026F024C025F023C024F04C
:104CC000236A225027C01DF01E6A1D26000E1E22D8
:104CD000820E1D242C6EFF0E1E202D6E85EF26F0F9
:104CE000D890283629362A362B3626AE7AEF26F08B
:104CF0007CEF26F07DEF26F02880D89023362436EE
:104D0000253626362C06D8A02D062AAE8AEF26F0A8
:104D10008CEF26F070EF26F0000E226E26AE93EF99
:104D200026F095EF26F0B9EF26F0FF0E23141D6E46
:104D3000FF0E24141E6EFF0E25141F6E7F0E261408
:104D4000206E1D501E101F102010D8B4AAEF26F0A0
:104D5000ACEF26F0B0EF26F0010E226EB9EF26F090
:104D600028A0B5EF26F0B7EF26F0B9EF26F0ACEFAC
:104D700026F02250D8B4BFEF26F0C1EF26F0E5EFC1
:104D800026F0010E2826000E29222A222B222BA0F3
:104D9000CCEF26F0CEEF26F0E5EF26F028C01DF090
:104DA00029C01EF02AC01FF02BC020F02034203272
:104DB0001F321E321D321DC028F01EC029F01FC038
:104DC0002AF020C02BF02C4A2D2A2DBEF0EF26F021
:104DD0002D5008E12C28D8A0F0EF26F0F2EF26F0B5
:104DE000FCEF26F0000E286E000E296E800E2A6E53
:104DF0007F0E2B6E2AEF27F02DBE09EF27F02D50E6
:104E000006E12C04D8B007EF27F009EF27F015EFE3
:104E100027F0000E286E000E296E000E2A6E000E7E
:104E20002B6E000E216E2AEF27F02CC027F0FF0E0C
:104E30002816FF0E29167F0E2A16000E2B1627A005
:104E400024EF27F026EF27F027EF27F02A8ED890BF
:104E500027302B6E21502B1228C015F029C016F0D8
:104E60002AC017F02BC018F0120000018151800BEE
:104E70008E6F81518125956F80AF41EF27F043EF11
:104E800027F044EF27F095819551D8B44AEF27F0E9
:104E90004CEF27F061EF27F09529D8A452EF27F0C7
:104EA00054EF27F05CEF27F0000E7E6F000E7F6F4F
:104EB000000E806F000E816F808F000E816F69EF92
:104EC00027F0000E7E6F000E7F6F000E806F000EC9
:104ED000816F8551800B8E1B85518525966F84AF20
:104EE00074EF27F076EF27F077EF27F09681965151
:104EF000D8B47DEF27F07FEF27F094EF27F09629C5
:104F0000D8A485EF27F087EF27F08FEF27F0000E6A
:104F1000826F000E836F000E846F000E856F848F8A
:104F2000000E856F9CEF27F0000E826F000E836FDE
:104F3000000E846F000E856F8251831184118511DC
:104F4000D8A4A5EF27F0A7EF27F0BFEF27F0000EBA
:104F50007E6F000E7F6F000E806F000E816F800EDF
:104F600080137F0E81138E5181137EC07EF07FC02F
:104F70007FF080C080F081C081F002EF29F0955170
:104F8000D8A4C5EF27F0C7EF27F0D1EF27F0000E28
:104F90007E6F000E7F6F000E806F000E816F02EF3C
:104FA00029F0965195C086F0876B865F000E875B6F
:104FB0007F0E86258F6F000E8721906F7EC08AF04E
:104FC0007FC08BF080C08CF081C08DF0000E7E6FB2
:104FD000000E7F6F000E806F000E816F000E916FCC
:104FE000000E926F000E936F000E946F000E966F7E
:104FF00032EF28F09651D8B400EF28F002EF28F0F5
:1050000019EF28F0D8908A378B378C378D37D890A6
:105010007E377F378037813794AF11EF28F013EF59
:1050200028F014EF28F07E81D8909137923793378B
:10503000943782518A5D83518B5984518C598551A3
:105040008D59D8A026EF28F028EF28F031EF28F06E
:10505000948D82518A5F83518B5B84518C5B855127
:105060008D5B962B190E966538EF28F03AEF28F0F5
:10507000FAEF27F08A518B118C118D11D8B443EFC0
:1050800028F045EF28F05DEF28F091815DEF28F0E2
:10509000D8907E377F378037813794AF52EF28F032
:1050A00054EF28F055EF28F07E81D8909137923751
:1050B000933794378F07D8A0900780AF62EF28F01E
:1050C00064EF28F048EF28F0000E966F94AF6BEF76
:1050D00028F06DEF28F091EF28F0FF0E9115866F04
:1050E000FF0E9215876FFF0E9315886F7F0E941534
:1050F000896F8651871188118911D8B482EF28F001
:1051000084EF28F088EF28F0010E966F91EF28F0D9
:105110007EA18DEF28F08FEF28F091EF28F084EF3B
:1051200028F09651D8B497EF28F099EF28F0BDEF0A
:1051300028F0010E7E27000E7F238023812381A18A
:10514000A4EF28F0A6EF28F0BDEF28F07EC086F08F
:105150007FC087F080C088F081C089F089358933AD
:1051600088338733863386C07EF087C07FF088C05F
:1051700080F089C081F08F4B902B90BFC8EF28F052
:10518000905108E18F29D8A0C8EF28F0CAEF28F085
:10519000D5EF28F0000E906F8F69000E7E6F000E25
:1051A0007F6F000E806F000E816F90BFE2EF28F0DE
:1051B000905106E18F05D8B0E0EF28F0E2EF28F03B
:1051C000F0EF28F0000E906F000E8F6F000E7E6FD4
:1051D000000E7F6F000E806F000E816F000E8E6FCD
:1051E0008FC095F095A1F7EF28F0F9EF28F0FCEFCC
:1051F00028F0808FFDEF28F0809FD8909531816F47
:10520000B3EF27F0120040C029F041C02AF0256812
:10521000266823EF29F029C025F02AC026F029C0EE
:1052200015F02AC016F0000E186E190E176EF8EC65
:1052300031F0E10E1524D96E010E1620DA6EDECFA4
:1052400029F0DDCF2AF029C01FF02AC020F0000E7F
:1052500020BEFF0E216E226E1B501F180DE11C5048
:1052600020180AE11D50211807E11E502218D8A469
:105270003CEF29F03EEF29F00BEF29F03FBE4AEF5B
:1052800029F03F5009E1020E3E5CD8A04AEF29F018
:105290004CEF29F006EF2AF040C01FF041C020F08B
:1052A000000E20BEFF0E216E226E1B501F180DE156
:1052B0001C5020180AE11D50211807E11E50221829
:1052C000D8A465EF29F067EF29F07DEF29F040C001
:1052D00015F041C016F0000E186E190E176EF8EC9E
:1052E00031F0E10E1524D96E010E1620DA6EDECFF4
:1052F00040F0DDCF41F006EF2AF029C015F02AC0BA
:1053000016F0000E186E190E176EF8EC31F0E10E63
:105310001524D96E010E1620DA6E25C015F026C0B0
:1053200016F0000E186E190E176EF8EC31F0E10E43
:105330001524E16E010E1620E26EDECFE6FFDDCF12
:10534000E5FF1BC015F01CC016F0000E186E190EFC
:10535000176EF8EC31F0E10E1524D96E010E16200F
:10536000DA6EDECF27F0DDCF28F01BC015F01CC0B1
:1053700016F0000E186E190E176EF8EC31F0D40E00
:105380001524D96E010E1620DA6EDECF23F0DDCFA4
:1053900024F0FCEF29F027C015F028C016F0000E0D
:1053A000186E190E176EF8EC31F0D40E1524D96E64
:1053B000010E1620DA6E2350DE5E2450DE5A000EF7
:1053C00024BEFF0EDE5ADE5ADE5ADE5ADE5ADE5A9E
:1053D0001BC015F01CC016F0000E186E190E176ECB
:1053E000F8EC31F0E10E1524D96E010E1620DA6EBC
:1053F000DECF27F0DDCF28F0272806E12828D8A423
:1054000004EF2AF006EF2AF0CBEF29F01BC015F0CD
:105410001CC016F0000E186E190E176EF8EC31F065
:10542000D40E1524D96E010E1620DA6E070EDE6A30
:10543000E806FDE21BC015F01CC016F0000E186E49
:10544000190E176EF8EC31F0CC0E1524D96E010E42
:105450001620DA6E070EDE6AE806FDE21BC015F0C4
:105460001CC016F0000E186E190E176EF8EC31F015
:10547000E10E1524D96E010E1620DA6EFF0EDE6ED7
:10548000FF0EDD6E1BC015F01CC016F0000E186E6E
:10549000190E176EF8EC31F0DC0E1524D96E010EE2
:1054A0001620DA6EFF0EDE6EFF0EDD6E1BC015F0ED
:1054B0001CC016F0000E186E190E176EF8EC31F0C5
:1054C000DE0E1524D96E010E1620DA6E000EDE6E89
:1054D000000EDE6E000EDE6E1BC015F01CC016F056
:1054E000000E186E190E176EF8EC31F0E30E15244D
:1054F000D96E010E1620DA6E000EDE6E000EDD6E25
:105500003E06D8A03F0612002EC064F02FC065F002
:1055100030C066F031C067F033BE98EF2AF03350E8
:1055200009E1800E325CD8A098EF2AF09AEF2AF0B9
:10553000F8EF2AF064C015F065C016F066C017F0E9
:1055400067C018F0000E196E000E1A6E000E1B6E6A
:105550007F0E1C6E20EC25F015C064F016C065F0BF
:1055600017C066F018C067F0810E3226FF0E332296
:1055700033BEC4EF2AF0335009E1800E325CD8A06C
:10558000C4EF2AF0C6EF2AF062EF2BF064C015F0EA
:1055900065C016F066C017F067C018F0000E196EEF
:1055A000000E1A6E000E1B6E7F0E1C6E20EC25F096
:1055B00015C064F016C065F017C066F018C067F03B
:1055C000810E3226FF0E332233BEF0EF2AF0335025
:1055D00009E1800E325CD8A0F0EF2AF0F2EF2AF059
:1055E00062EF2BF0000E336E7F0E326E62EF2BF007
:1055F00033AE04EF2BF0820E325CFF0E3358D8B07E
:1056000004EF2BF006EF2BF062EF2BF064C015F0E7
:1056100065C016F066C017F067C018F0000E196E6E
:10562000000E1A6E800E1B6E0C0E1C6E20EC25F008
:1056300015C064F016C065F017C066F018C067F0BA
:10564000660E3226000E332233AE30EF2BF0820E80
:10565000325CFF0E3358D8B030EF2BF032EF2BF026
:1056600062EF2BF064C015F065C016F066C017F04D
:1056700067C018F0000E196E000E1A6E800E1B6EB9
:105680000C0E1C6E20EC25F015C064F016C065F001
:1056900017C066F018C067F0660E3226000E33227F
:1056A00033AE5CEF2BF0820E325CFF0E3358D8B075
:1056B0005CEF2BF05EEF2BF062EF2BF0FF0E336E02
:1056C000820E326E7F0E3224346E000E3320356E21
:1056D000366A376A170ED89034363536363637364E
:1056E000E82E6BEF2BF034C060F035C061F036C0AF
:1056F00062F037C063F060C015F061C016F062C0A0
:1057000017F063C018F064C019F065C01AF066C0E5
:105710001BF067C01CF020EC25F015C02EF016C061
:105720002FF017C030F018C031F02EC02EF02FC06F
:105730002FF030C030F031C031F012000001606F46
:1057400000016051D8B4A7EF2BF0A9EF2BF0CBEFFD
:105750002BF031BEB0EF2BF0AEEF2BF0CBEF2BF0F8
:105760002EC032F02FC033F030C034F031C035F0ED
:10577000321E331E341E351E322A000E33223422CE
:10578000352232C062F033C063F034C064F035C0FB
:1057900065F0D3EF2BF02EC062F02FC063F030C065
:1057A00064F031C065F02E502F1030103110D8A4A5
:1057B000DCEF2BF0DEEF2BF0E8EF2BF0000E2E6E7F
:1057C000000E2F6E000E306E000E316E79EF2CF051
:1057D000960E616FF2EF2BF0612BD8906533643336
:1057E00063336233000E6215326E000E6315336E42
:1057F000000E6415346EFE0E6515356E3250331092
:1058000034103510D8A407EF2CF009EF2CF0ECEF92
:105810002BF017EF2CF0612B010E6227000E632393
:1058200064236523D8906533643363336233000E99
:105830006215326E000E6315336E000E6415346E01
:10584000FF0E6515356E3250331034103510D8A464
:105850002CEF2CF02EEF2CF00BEF2CF036EF2CF081
:105860006107D890623763376437653764BF3BEFB1
:105870002CF03DEF2CF045EF2CF0020E616143EF70
:105880002CF045EF2CF030EF2CF061B14AEF2CF00A
:105890004CEF2CF04DEF2CF0649FD890613361C039
:1058A00032F0336A346A356A32C035F0346A336AAA
:1058B000326A3250621333506313345064133550DC
:1058C00065136051D8B467EF2CF069EF2CF071EFDD
:1058D0002CF031BE70EF2CF06EEF2CF071EF2CF04D
:1058E000658F62C02EF063C02FF064C030F065C0D9
:1058F00031F01200000E0001BF6F000EC06F400EAD
:10590000C16F400EC26F000EBB6F000EBC6F200E49
:10591000BD6F410EBE6F40EC08F0BBC0BCF1BCC017
:10592000BDF1BDC0BEF1BEC0BFF1000E196E000ECC
:105930001A6E000E1B6E400E1C6EBCC115F0BDC170
:1059400016F0BEC117F0BFC118F020EC25F015C04D
:10595000C0F116C0C1F117C0C2F118C0C3F1000EEA
:105960000001BF6F000EC06F800EC16F410EC26F8D
:10597000000EBB6F000EBC6F000EBD6F400EBE6F01
:1059800040EC08F0BBC0C4F1BCC0C5F1BDC0C6F15D
:10599000BEC0C7F1000E196E000E1A6E800E1B6E8F
:1059A0003F0E1C6EC0C115F0C1C116F0C2C117F088
:1059B000C3C118F020EC25F015C0CCF016C0CDF016
:1059C00017C0CEF018C0CFF089EC2FF0CCC02EF06D
:1059D000CDC02FF0CEC030F0CFC031F0000E9EEC25
:1059E0002BF02EC07AF02FC07BF030C07CF031C09D
:1059F0007DF0C4C176F0C5C177F0C6C178F0C7C1EB
:105A000079F04FEC31F076C0C8F177C0C9F178C0B9
:105A1000CAF179C0CBF1000E00016A6F000E6B6F06
:105A2000800E6C6FBF0E6D6FC8C166F0C9C167F0A4
:105A3000CAC168F0CBC169F061EC20F066C0CCF05F
:105A400067C0CDF068C0CEF069C0CFF089EC2FF010
:105A5000CCC046F0CDC047F0CEC048F0CFC049F032
:105A60001200000E0001BF6F000EC06F400EC16F2C
:105A7000400EC26F000EBB6F000EBC6F200EBD6FDC
:105A8000410EBE6F40EC08F0BBC0BCF1BCC0BDF124
:105A9000BDC0BEF1BEC0BFF1000E196E000E1A6E81
:105AA000000E1B6E400E1C6EBCC115F0BDC116F081
:105AB000BEC117F0BFC118F020EC25F015C0C0F131
:105AC00016C0C1F117C0C2F118C0C3F1000E000129
:105AD000BF6F000EC06F800EC16F410EC26F000E0F
:105AE000BB6F000EBC6F000EBD6F400EBE6F40EC72
:105AF00008F0BBC0C4F1BCC0C5F1BDC0C6F1BEC09A
:105B0000C7F1000E196E000E1A6E800E1B6E3F0E4E
:105B10001C6EC0C115F0C1C116F0C2C117F0C3C1DF
:105B200018F020EC25F015C0CCF016C0CDF017C051
:105B3000CEF018C0CFF089EC2FF00001CCC02EF0D1
:105B4000CDC02FF0000E2FBEFF0E306E316E010E55
:105B50009EEC2BF02EC07AF02FC07BF030C07CF092
:105B600031C07DF0C4C176F0C5C177F0C6C178F010
:105B7000C7C179F04FEC31F076C0C8F177C0C9F1F8
:105B800078C0CAF179C0CBF1C8C1CCF0C9C1CDF0A1
:105B9000CAC1CEF0CBC1CFF089EC2FF0CCC0F1F070
:105BA000CDC0F2F00001F251CF6EF1C0CEFF120075
:105BB00040C015F041C016F0000E186E190E176E99
:105BC000F8EC31F0DC0E1524D96E010E1620DA6ED9
:105BD000010EDBBEF5EF2DF0010EDB5008E1DE0417
:105BE000D8A0F5EF2DF0F7EF2DF072EF2EF040C0BA
:105BF00015F041C016F0000E186E190E176EF8EC75
:105C000031F0DE0E1524D96E010E1620DA6E02D8A0
:105C100014EF2EF00500FA6EDE50FD6EDE50FE6EC3
:105C2000DE50FF6EFA50120040C015F041C016F071
:105C3000000E186E190E176EF8EC31F0CC0E15240C
:105C4000D96E010E1620DA6E10EED6F0180EDBCFEC
:105C5000E3FFE806FCE240C01BF041C01CF0000E70
:105C60001CBEFF0E1D6E1E6E03EC29F00001D65106
:105C7000D711D811D911DA11DB11DC11DD11D8B42B
:105C800044EF2EF046EF2EF072EF2EF0D6C01BF050
:105C9000D7C01CF0D8C01DF0D9C01EF0DAC01FF06C
:105CA000DBC020F0DCC021F0DDC022F0D6C023F044
:105CB000D7C024F0D8C025F0D9C026F0DAC027F02C
:105CC000DBC028F0DCC029F0DDC02AF0E8C02BF0F2
:105CD000E9C02CF0EAC02DF0EDC02EF0EEC02FF0A0
:105CE0006EEC1DF01200000E1C6E000E1B6EF5EF28
:105CF0002EF01BC015F01CC016F0000E186E190E09
:105D0000176EF8EC31F0D40E1524D96E010E162062
:105D1000DA6E070EDE6AE806FDE21BC015F01CC055
:105D200016F0000E186E190E176EF8EC31F0CC0E4E
:105D30001524D96E010E1620DA6E070EDE6AE8060B
:105D4000FDE21BC015F01CC016F0000E186E190EF7
:105D5000176EF8EC31F0E10E1524D96E010E162005
:105D6000DA6EFF0EDE6EFF0EDD6E1BC015F01CC07E
:105D700016F0000E186E190E176EF8EC31F0DC0EEE
:105D80001524D96E010E1620DA6EFF0EDE6EFF0EA0
:105D9000DD6E1BC015F01CC016F0000E186E190E3B
:105DA000176EF8EC31F0DE0E1524D96E010E1620B8
:105DB000DA6E000EDE6E000EDE6E000EDE6E1BC0B2
:105DC00015F01CC016F0000E186E190E176EF8ECC8
:105DD00031F0E30E1524D96E010E1620DA6E000E96
:105DE000DE6E000EDD6E1B4A1C2A1CBE01EF2FF07A
:105DF0001C5009E1140E1B5CD8A001EF2FF003EF3B
:105E00002FF079EF2EF01200000E1B6E000E1C6EAC
:105E1000000E1D6E000E1E6E000E1F6E000E206E18
:105E2000000E216E000E226EF40E236E010E246E03
:105E3000000E256E000E266E000E276E000E286ED8
:105E4000000E296E000E2A6E720E2B6E640E2C6EE2
:105E5000000E2D6E000E2E6E000E2F6E6EEC1DF0DD
:105E60006E0E1B6E000E1C6E000E1D6E000E1E6E62
:105E7000000E1F6E000E206E000E216E000E226EB0
:105E8000BC0E236E020E246E000E256E000E266ED2
:105E9000000E276E000E286E000E296E000E2A6E70
:105EA0005E0E2B6E640E2C6E000E2D6E000E2E6E8E
:105EB000000E2F6E6EEC1DF0FA0E1B6E000E1C6EA7
:105EC000000E1D6E000E1E6E000E1F6E000E206E68
:105ED000000E216E000E226E580E236E020E246EEE
:105EE000000E256E000E266E000E276E000E286E28
:105EF000000E296E000E2A6E860E2B6E640E2C6E1E
:105F0000000E2D6E000E2E6E000E2F6E6EEC1DF02C
:105F100012000001CE35CF35D56FD551D8A493EFFF
:105F20002FF095EF2FF09FEF2FF0000ECC6F000EAB
:105F3000CD6F000ECE6F000ECF6F0CEF30F0CCC0E7
:105F4000D0F0CDC0D1F0CEC0D2F0CFC0D3F0200E73
:105F5000AFEF2FF0D890D333D233D133D033E82EF4
:105F6000AAEF2FF0D051D46FCE8FFF0ECC17FF0EBB
:105F7000CD17FF0ECE17000ECF17960ED55FD5BFEB
:105F8000C6EF2FF0C4EF2FF0DCEF2FF0D551800AD1
:105F9000970FD8B0CEEF2FF0D0EF2FF0D2EF2FF039
:105FA00095EF2FF0D890CF33CE33CD33CC33D53FD0
:105FB000D2EF2FF0F4EF2FF01F0ED565E2EF2FF0A8
:105FC000E4EF2FF0ECEF2FF095EF2FF0D890CC37D7
:105FD000CD37CE37CF37D507D551D8A4F2EF2FF034
:105FE000F4EF2FF0E6EF2FF0D451D8B4FAEF2FF002
:105FF000FCEF2FF004EF30F0CF1FCE1FCD1FCC6D84
:10600000000ECD23CE23CF23CCC0CCF0CDC0CDF01D
:10601000CEC0CEF0CFC0CFF01200000E00017E1532
:10602000866F000E7F15876F800E8015886F7F0E3C
:106030008115896F8651871188118911D8A423EFA2
:1060400030F025EF30F02DEF30F0000E7E6F000EB7
:106050007F6F000E806F000E816F000E8215866FBD
:10606000000E8315876F800E8415886F7F0E85154F
:10607000896F8651871188118911D8A442EF30F0B9
:1060800044EF30F04CEF30F0000E826F000E836F63
:10609000000E846F000E856F81AF51EF30F053EF2B
:1060A00030F05CEF30F07E6D7F1FD8B07F2B801F0B
:1060B000D8B0802B800E815785AF61EF30F063EF51
:1060C00030F06CEF30F0826D831FD8B0832B841FCB
:1060D000D8B0842B800E8557000E7E1B000E7F1BD0
:1060E000000E801B800E811B000E821B000E831B86
:1060F000000E841B800E851B82517E5D83517F596B
:106100008451805985518159D8B089EF30F08BEF97
:1061100030F08EEF30F0D8908FEF30F0D880120052
:106120003E503F10D8A497EF30F099EF30F09BEF3E
:1061300030F001EF31F040C00FF041C010F0C9EF76
:1061400030F00FC001F010C002F0000E046E190E06
:10615000036E0BEC32F0DC0E0124D96E010E02202E
:10616000DA6E010EDE6E000EDD6E0FC001F010C0A3
:1061700002F0000E046E190E036E0BEC32F0E10E0D
:106180000124D96E010E0220DA6EDECF0FF0DDCFD2
:1061900010F00FC001F010C002F0000E046E190ED6
:1061A000036E0BEC32F0D40E0124D96E010E0220E6
:1061B000DA6EDE50DE10DE10DE10DE10DE10DE10D5
:1061C000DE10D8B4E6EF30F0E8EF30F0A1EF30F0B9
:1061D00040C001F041C002F0000E046E190E036EC3
:1061E0000BEC32F0D40E0124D96E010E0220DA6ECF
:1061F000DE06000EDE5ADE5ADE5ADE5ADE5ADE5A5D
:10620000DE5A12000600D9CF11F0DACF12F0F3CF28
:1062100013F0F4CF14F0F2AA10EF31F012EF31F0D6
:1062200030EF31F0F2A417EF31F019EF31F030EF29
:1062300031F06AEC32F0F29446C0D6FF47C0D7FF87
:10624000424A432AFA0E42184310D8A42AEF31F0EA
:106250002CEF31F030EF31F0000E436E000E426E45
:106260009DA035EF31F037EF31F045EF31F09EA0D2
:106270003CEF31F03EEF31F045EF31F09E90F1C050
:10628000CEFFF2C0CFFF444A452A14C0F4FF13C02A
:10629000F3FF12C0DAFF11C0D9FF4A921100000EBD
:1062A00000017A1B000E7B1B000E7C1B800E7D1BE9
:1062B00076C066F077C067F078C068F079C069F0A2
:1062C0007AC06AF07BC06BF07CC06CF07DC06DF072
:1062D00061EC20F066C076F067C077F068C078F0B7
:1062E00069C079F012001550161017101810D8B4A4
:1062F0007CEF31F07EEF31F086EF31F0000E151AB1
:10630000000E161A000E171A800E181A15C015F076
:1063100016C016F017C017F018C018F0120001EEE2
:10632000CCF011EEF4F0EE6AE550E150FCE1E25001
:10633000FAE100EED6F01B0EEE6AE806FDE100EE93
:1063400038F00E0EEE6AE806FDE14A904A9200012E
:106350004DEF32F05FEC32F064EC32F067EC32F08B
:106360007AEC2CF031EC2DF073EC2EF004EC2FF0E5
:10637000000E166E000E156EDFEC31F0000E166E7C
:10638000010E156EDFEC31F0120038C019F039C083
:106390001AF03AC01BF03BC01CF015C019F016C033
:1063A0001AF017C01BF018C01CF01C9E19C015F085
:1063B0001AC016F01BC017F01CC018F012001550C0
:1063C0001610D8A4E6EF31F0E8EF31F0ECEF31F041
:1063D0005AEC32F0F7EF31F015041610D8A4F3EFB1
:1063E00031F0F5EF31F0F7EF31F055EC32F012000B
:1063F00015501702F3CF19F0F4CF1AF01550180208
:10640000F3501A2616501702F3501A2619C015F029
:106410001AC016F0120001500302F3CF05F0F4CFBA
:1064200006F001500402F350062602500302F35016
:10643000062605C001F006C002F01200FF0E196E1C
:10644000FF0E1A6EFF0E1B6E7F0E1C6E19C015F02C
:106450001AC016F01BC017F01CC018F012008CA454
:1064600034EF32F037EF32F08C8438EF32F08C9426
:1064700012008CA03EEF32F041EF32F08C8042EF00
:1064800032F08C9012008CA848EF32F04BEF32F0D3
:106490008C884CEF32F08C981200AAEC31F0D8ECDA
:1064A0002DF04FEF32F007EF00F09D809E90810EAF
:1064B000CD6E1200F28AF294880ED56E1200000E94
:1064C000956E000E8C6E1200700ED36E1200F28E5E
:0A64D000F28C120090EC30F0120084
:020000040020DA
:08000000FFFFFFFFFFFFFFFF00
:020000040030CA
:0E000000FF09191EF38381FFFFC0FFE0FF40E0
:00000001FF
